{
  "address": "0x6Dfcf6CE428b401cE0e7c78183038B8Aa13f9138",
  "abi": [
    {
      "inputs": [
        {
          "internalType": "string",
          "name": "_name",
          "type": "string"
        },
        {
          "internalType": "string",
          "name": "_symbol",
          "type": "string"
        },
        {
          "internalType": "string",
          "name": "_initBaseURI",
          "type": "string"
        }
      ],
      "stateMutability": "nonpayable",
      "type": "constructor"
    },
    {
      "anonymous": false,
      "inputs": [
        {
          "indexed": true,
          "internalType": "address",
          "name": "owner",
          "type": "address"
        },
        {
          "indexed": true,
          "internalType": "address",
          "name": "approved",
          "type": "address"
        },
        {
          "indexed": true,
          "internalType": "uint256",
          "name": "tokenId",
          "type": "uint256"
        }
      ],
      "name": "Approval",
      "type": "event"
    },
    {
      "anonymous": false,
      "inputs": [
        {
          "indexed": true,
          "internalType": "address",
          "name": "owner",
          "type": "address"
        },
        {
          "indexed": true,
          "internalType": "address",
          "name": "operator",
          "type": "address"
        },
        {
          "indexed": false,
          "internalType": "bool",
          "name": "approved",
          "type": "bool"
        }
      ],
      "name": "ApprovalForAll",
      "type": "event"
    },
    {
      "anonymous": false,
      "inputs": [
        {
          "indexed": true,
          "internalType": "address",
          "name": "previousOwner",
          "type": "address"
        },
        {
          "indexed": true,
          "internalType": "address",
          "name": "newOwner",
          "type": "address"
        }
      ],
      "name": "OwnershipTransferred",
      "type": "event"
    },
    {
      "anonymous": false,
      "inputs": [
        {
          "indexed": true,
          "internalType": "address",
          "name": "from",
          "type": "address"
        },
        {
          "indexed": true,
          "internalType": "address",
          "name": "to",
          "type": "address"
        },
        {
          "indexed": true,
          "internalType": "uint256",
          "name": "tokenId",
          "type": "uint256"
        }
      ],
      "name": "Transfer",
      "type": "event"
    },
    {
      "inputs": [],
      "name": "_initBaseURI",
      "outputs": [
        {
          "internalType": "string",
          "name": "",
          "type": "string"
        }
      ],
      "stateMutability": "view",
      "type": "function"
    },
    {
      "inputs": [],
      "name": "_name",
      "outputs": [
        {
          "internalType": "string",
          "name": "",
          "type": "string"
        }
      ],
      "stateMutability": "view",
      "type": "function"
    },
    {
      "inputs": [],
      "name": "_nftcreator",
      "outputs": [
        {
          "internalType": "address",
          "name": "",
          "type": "address"
        }
      ],
      "stateMutability": "view",
      "type": "function"
    },
    {
      "inputs": [],
      "name": "_symbol",
      "outputs": [
        {
          "internalType": "string",
          "name": "",
          "type": "string"
        }
      ],
      "stateMutability": "view",
      "type": "function"
    },
    {
      "inputs": [
        {
          "internalType": "address",
          "name": "",
          "type": "address"
        }
      ],
      "name": "addressMintedBalance",
      "outputs": [
        {
          "internalType": "uint256",
          "name": "",
          "type": "uint256"
        }
      ],
      "stateMutability": "view",
      "type": "function"
    },
    {
      "inputs": [
        {
          "internalType": "address",
          "name": "to",
          "type": "address"
        },
        {
          "internalType": "uint256",
          "name": "tokenId",
          "type": "uint256"
        }
      ],
      "name": "approve",
      "outputs": [],
      "stateMutability": "nonpayable",
      "type": "function"
    },
    {
      "inputs": [
        {
          "internalType": "address",
          "name": "owner",
          "type": "address"
        }
      ],
      "name": "balanceOf",
      "outputs": [
        {
          "internalType": "uint256",
          "name": "",
          "type": "uint256"
        }
      ],
      "stateMutability": "view",
      "type": "function"
    },
    {
      "inputs": [],
      "name": "baseExtension",
      "outputs": [
        {
          "internalType": "string",
          "name": "",
          "type": "string"
        }
      ],
      "stateMutability": "view",
      "type": "function"
    },
    {
      "inputs": [],
      "name": "baseURI",
      "outputs": [
        {
          "internalType": "string",
          "name": "",
          "type": "string"
        }
      ],
      "stateMutability": "view",
      "type": "function"
    },
    {
      "inputs": [],
      "name": "cost",
      "outputs": [
        {
          "internalType": "uint256",
          "name": "",
          "type": "uint256"
        }
      ],
      "stateMutability": "view",
      "type": "function"
    },
    {
      "inputs": [],
      "name": "deployedverified",
      "outputs": [
        {
          "internalType": "bool",
          "name": "",
          "type": "bool"
        }
      ],
      "stateMutability": "view",
      "type": "function"
    },
    {
      "inputs": [
        {
          "internalType": "uint256",
          "name": "tokenId",
          "type": "uint256"
        }
      ],
      "name": "getApproved",
      "outputs": [
        {
          "internalType": "address",
          "name": "",
          "type": "address"
        }
      ],
      "stateMutability": "view",
      "type": "function"
    },
    {
      "inputs": [],
      "name": "getIsRevealed",
      "outputs": [
        {
          "internalType": "uint256",
          "name": "",
          "type": "uint256"
        }
      ],
      "stateMutability": "view",
      "type": "function"
    },
    {
      "inputs": [],
      "name": "getMintState",
      "outputs": [
        {
          "internalType": "uint256",
          "name": "",
          "type": "uint256"
        }
      ],
      "stateMutability": "view",
      "type": "function"
    },
    {
      "inputs": [],
      "name": "getRemainCollections",
      "outputs": [
        {
          "internalType": "uint256",
          "name": "",
          "type": "uint256"
        }
      ],
      "stateMutability": "view",
      "type": "function"
    },
    {
      "inputs": [],
      "name": "getRemainNFTforUser",
      "outputs": [
        {
          "internalType": "uint256",
          "name": "",
          "type": "uint256"
        }
      ],
      "stateMutability": "view",
      "type": "function"
    },
    {
      "inputs": [
        {
          "internalType": "address",
          "name": "owner",
          "type": "address"
        },
        {
          "internalType": "address",
          "name": "operator",
          "type": "address"
        }
      ],
      "name": "isApprovedForAll",
      "outputs": [
        {
          "internalType": "bool",
          "name": "",
          "type": "bool"
        }
      ],
      "stateMutability": "view",
      "type": "function"
    },
    {
      "inputs": [],
      "name": "isPaused",
      "outputs": [
        {
          "internalType": "uint256",
          "name": "",
          "type": "uint256"
        }
      ],
      "stateMutability": "view",
      "type": "function"
    },
    {
      "inputs": [
        {
          "internalType": "address",
          "name": "_user",
          "type": "address"
        }
      ],
      "name": "isWhitelisted",
      "outputs": [
        {
          "internalType": "bool",
          "name": "",
          "type": "bool"
        }
      ],
      "stateMutability": "view",
      "type": "function"
    },
    {
      "inputs": [],
      "name": "maxMintAmount",
      "outputs": [
        {
          "internalType": "uint256",
          "name": "",
          "type": "uint256"
        }
      ],
      "stateMutability": "view",
      "type": "function"
    },
    {
      "inputs": [],
      "name": "maxSupply",
      "outputs": [
        {
          "internalType": "uint256",
          "name": "",
          "type": "uint256"
        }
      ],
      "stateMutability": "view",
      "type": "function"
    },
    {
      "inputs": [],
      "name": "metaDataFolder",
      "outputs": [
        {
          "internalType": "string",
          "name": "",
          "type": "string"
        }
      ],
      "stateMutability": "view",
      "type": "function"
    },
    {
      "inputs": [
        {
          "internalType": "address",
          "name": "_to",
          "type": "address"
        },
        {
          "internalType": "uint256",
          "name": "_mintAmount",
          "type": "uint256"
        }
      ],
      "name": "mint",
      "outputs": [],
      "stateMutability": "payable",
      "type": "function"
    },
    {
      "inputs": [],
      "name": "mintState",
      "outputs": [
        {
          "internalType": "uint256",
          "name": "",
          "type": "uint256"
        }
      ],
      "stateMutability": "view",
      "type": "function"
    },
    {
      "inputs": [],
      "name": "name",
      "outputs": [
        {
          "internalType": "string",
          "name": "",
          "type": "string"
        }
      ],
      "stateMutability": "view",
      "type": "function"
    },
    {
      "inputs": [],
      "name": "nftPerAddressLimit",
      "outputs": [
        {
          "internalType": "uint256",
          "name": "",
          "type": "uint256"
        }
      ],
      "stateMutability": "view",
      "type": "function"
    },
    {
      "inputs": [],
      "name": "notRevealedUri",
      "outputs": [
        {
          "internalType": "string",
          "name": "",
          "type": "string"
        }
      ],
      "stateMutability": "view",
      "type": "function"
    },
    {
      "inputs": [],
      "name": "onlyWhitelisted",
      "outputs": [
        {
          "internalType": "uint256",
          "name": "",
          "type": "uint256"
        }
      ],
      "stateMutability": "view",
      "type": "function"
    },
    {
      "inputs": [],
      "name": "owner",
      "outputs": [
        {
          "internalType": "address",
          "name": "",
          "type": "address"
        }
      ],
      "stateMutability": "view",
      "type": "function"
    },
    {
      "inputs": [
        {
          "internalType": "uint256",
          "name": "tokenId",
          "type": "uint256"
        }
      ],
      "name": "ownerOf",
      "outputs": [
        {
          "internalType": "address",
          "name": "",
          "type": "address"
        }
      ],
      "stateMutability": "view",
      "type": "function"
    },
    {
      "inputs": [
        {
          "internalType": "bool",
          "name": "_state",
          "type": "bool"
        }
      ],
      "name": "pause",
      "outputs": [],
      "stateMutability": "nonpayable",
      "type": "function"
    },
    {
      "inputs": [],
      "name": "paused",
      "outputs": [
        {
          "internalType": "bool",
          "name": "",
          "type": "bool"
        }
      ],
      "stateMutability": "view",
      "type": "function"
    },
    {
      "inputs": [],
      "name": "remainTokenAmount",
      "outputs": [
        {
          "internalType": "uint256",
          "name": "",
          "type": "uint256"
        }
      ],
      "stateMutability": "view",
      "type": "function"
    },
    {
      "inputs": [],
      "name": "renounceOwnership",
      "outputs": [],
      "stateMutability": "nonpayable",
      "type": "function"
    },
    {
      "inputs": [],
      "name": "reveal",
      "outputs": [],
      "stateMutability": "nonpayable",
      "type": "function"
    },
    {
      "inputs": [],
      "name": "revealed",
      "outputs": [
        {
          "internalType": "uint256",
          "name": "",
          "type": "uint256"
        }
      ],
      "stateMutability": "view",
      "type": "function"
    },
    {
      "inputs": [
        {
          "internalType": "address",
          "name": "from",
          "type": "address"
        },
        {
          "internalType": "address",
          "name": "to",
          "type": "address"
        },
        {
          "internalType": "uint256",
          "name": "tokenId",
          "type": "uint256"
        }
      ],
      "name": "safeTransferFrom",
      "outputs": [],
      "stateMutability": "nonpayable",
      "type": "function"
    },
    {
      "inputs": [
        {
          "internalType": "address",
          "name": "from",
          "type": "address"
        },
        {
          "internalType": "address",
          "name": "to",
          "type": "address"
        },
        {
          "internalType": "uint256",
          "name": "tokenId",
          "type": "uint256"
        },
        {
          "internalType": "bytes",
          "name": "_data",
          "type": "bytes"
        }
      ],
      "name": "safeTransferFrom",
      "outputs": [],
      "stateMutability": "nonpayable",
      "type": "function"
    },
    {
      "inputs": [
        {
          "internalType": "address",
          "name": "operator",
          "type": "address"
        },
        {
          "internalType": "bool",
          "name": "approved",
          "type": "bool"
        }
      ],
      "name": "setApprovalForAll",
      "outputs": [],
      "stateMutability": "nonpayable",
      "type": "function"
    },
    {
      "inputs": [
        {
          "internalType": "string",
          "name": "_newBaseExtension",
          "type": "string"
        }
      ],
      "name": "setBaseExtension",
      "outputs": [],
      "stateMutability": "nonpayable",
      "type": "function"
    },
    {
      "inputs": [
        {
          "internalType": "string",
          "name": "_newBaseURI",
          "type": "string"
        }
      ],
      "name": "setBaseURI",
      "outputs": [],
      "stateMutability": "nonpayable",
      "type": "function"
    },
    {
      "inputs": [
        {
          "internalType": "uint256",
          "name": "_newCost",
          "type": "uint256"
        }
      ],
      "name": "setCost",
      "outputs": [],
      "stateMutability": "nonpayable",
      "type": "function"
    },
    {
      "inputs": [
        {
          "internalType": "uint256",
          "name": "_mintState",
          "type": "uint256"
        }
      ],
      "name": "setMintState",
      "outputs": [],
      "stateMutability": "nonpayable",
      "type": "function"
    },
    {
      "inputs": [
        {
          "internalType": "uint256",
          "name": "_limit",
          "type": "uint256"
        }
      ],
      "name": "setNftPerAddressLimit",
      "outputs": [],
      "stateMutability": "nonpayable",
      "type": "function"
    },
    {
      "inputs": [
        {
          "internalType": "uint256",
          "name": "_state",
          "type": "uint256"
        }
      ],
      "name": "setOnlyWhitelisted",
      "outputs": [],
      "stateMutability": "nonpayable",
      "type": "function"
    },
    {
      "inputs": [
        {
          "internalType": "string",
          "name": "_RevealedURI",
          "type": "string"
        }
      ],
      "name": "setRevealedURI",
      "outputs": [],
      "stateMutability": "nonpayable",
      "type": "function"
    },
    {
      "inputs": [
        {
          "internalType": "uint256",
          "name": "_newmaxMintAmount",
          "type": "uint256"
        }
      ],
      "name": "setmaxMintAmount",
      "outputs": [],
      "stateMutability": "nonpayable",
      "type": "function"
    },
    {
      "inputs": [
        {
          "internalType": "bytes4",
          "name": "interfaceId",
          "type": "bytes4"
        }
      ],
      "name": "supportsInterface",
      "outputs": [
        {
          "internalType": "bool",
          "name": "",
          "type": "bool"
        }
      ],
      "stateMutability": "view",
      "type": "function"
    },
    {
      "inputs": [],
      "name": "symbol",
      "outputs": [
        {
          "internalType": "string",
          "name": "",
          "type": "string"
        }
      ],
      "stateMutability": "view",
      "type": "function"
    },
    {
      "inputs": [
        {
          "internalType": "uint256",
          "name": "index",
          "type": "uint256"
        }
      ],
      "name": "tokenByIndex",
      "outputs": [
        {
          "internalType": "uint256",
          "name": "",
          "type": "uint256"
        }
      ],
      "stateMutability": "view",
      "type": "function"
    },
    {
      "inputs": [
        {
          "internalType": "address",
          "name": "owner",
          "type": "address"
        },
        {
          "internalType": "uint256",
          "name": "index",
          "type": "uint256"
        }
      ],
      "name": "tokenOfOwnerByIndex",
      "outputs": [
        {
          "internalType": "uint256",
          "name": "",
          "type": "uint256"
        }
      ],
      "stateMutability": "view",
      "type": "function"
    },
    {
      "inputs": [
        {
          "internalType": "uint256",
          "name": "tokenId",
          "type": "uint256"
        }
      ],
      "name": "tokenURI",
      "outputs": [
        {
          "internalType": "string",
          "name": "",
          "type": "string"
        }
      ],
      "stateMutability": "view",
      "type": "function"
    },
    {
      "inputs": [],
      "name": "totalSupply",
      "outputs": [
        {
          "internalType": "uint256",
          "name": "",
          "type": "uint256"
        }
      ],
      "stateMutability": "view",
      "type": "function"
    },
    {
      "inputs": [
        {
          "internalType": "address",
          "name": "from",
          "type": "address"
        },
        {
          "internalType": "address",
          "name": "to",
          "type": "address"
        },
        {
          "internalType": "uint256",
          "name": "tokenId",
          "type": "uint256"
        }
      ],
      "name": "transferFrom",
      "outputs": [],
      "stateMutability": "nonpayable",
      "type": "function"
    },
    {
      "inputs": [
        {
          "internalType": "address",
          "name": "newOwner",
          "type": "address"
        }
      ],
      "name": "transferOwnership",
      "outputs": [],
      "stateMutability": "nonpayable",
      "type": "function"
    },
    {
      "inputs": [
        {
          "internalType": "address",
          "name": "_owner",
          "type": "address"
        }
      ],
      "name": "walletOfOwner",
      "outputs": [
        {
          "internalType": "uint256[]",
          "name": "",
          "type": "uint256[]"
        }
      ],
      "stateMutability": "view",
      "type": "function"
    },
    {
      "inputs": [
        {
          "internalType": "address[]",
          "name": "_users",
          "type": "address[]"
        }
      ],
      "name": "whitelistUsers",
      "outputs": [],
      "stateMutability": "nonpayable",
      "type": "function"
    },
    {
      "inputs": [
        {
          "internalType": "uint256",
          "name": "",
          "type": "uint256"
        }
      ],
      "name": "whitelistedAddresses",
      "outputs": [
        {
          "internalType": "address",
          "name": "",
          "type": "address"
        }
      ],
      "stateMutability": "view",
      "type": "function"
    },
    {
      "inputs": [],
      "name": "withdraw",
      "outputs": [],
      "stateMutability": "payable",
      "type": "function"
    }
  ],
  "transactionHash": "0xe30ce562807d3770bca7b7a9561fe1331dfedcd88d4bd8f3fb0687bc063881ee",
  "args": [
    "The Underground",
    "UNDRGD",
    "https://theunderground.mypinata.cloud/ipfs/QmPpF7hVDqcn4XxKWWGY53xS8fnNL48JdNnmVMHdn7T3gF/"
  ],
  "numDeployments": 10,
  "solcInputHash": "8310700d248c30d5f9de13d5a4cde6ed",
  "bytecode": "0x60c06040526005608081905264173539b7b760d91b60a09081526200002891600d919062000236565b506040805160208101918290526000908190526200004991600e9162000236565b50604051806080016040528060608152602001620033dd6060913980516200007a91600f9160209091019062000236565b506706eccddb2eeb80006013556109c4601481905560155560646016819055601755600160188190556000601955601a805461ffff19169055601b55600a54601c80546001600160a01b0319166001600160a01b03909216919091179055348015620000e557600080fd5b506040516200343d3803806200343d83398101604081905262000108916200038f565b8251839083906200012190600090602085019062000236565b5080516200013790600190602084019062000236565b505050620001546200014e6200016860201b60201c565b6200016c565b6200015f81620001be565b5050506200046f565b3390565b600a80546001600160a01b038381166001600160a01b0319831681179093556040519116919082907f8be0079c531659141344cd1fd0a4f28419497f9722a3daafe3b4186f6b6457e090600090a35050565b600a546001600160a01b031633146200021d5760405162461bcd60e51b815260206004820181905260248201527f4f776e61626c653a2063616c6c6572206973206e6f7420746865206f776e6572604482015260640160405180910390fd5b80516200023290600c90602084019062000236565b5050565b82805462000244906200041c565b90600052602060002090601f016020900481019282620002685760008555620002b3565b82601f106200028357805160ff1916838001178555620002b3565b82800160010185558215620002b3579182015b82811115620002b357825182559160200191906001019062000296565b50620002c1929150620002c5565b5090565b5b80821115620002c15760008155600101620002c6565b600082601f830112620002ed578081fd5b81516001600160401b03808211156200030a576200030a62000459565b604051601f8301601f19908116603f0116810190828211818310171562000335576200033562000459565b8160405283815260209250868385880101111562000351578485fd5b8491505b8382101562000374578582018301518183018401529082019062000355565b838211156200038557848385830101525b9695505050505050565b600080600060608486031215620003a4578283fd5b83516001600160401b0380821115620003bb578485fd5b620003c987838801620002dc565b94506020860151915080821115620003df578384fd5b620003ed87838801620002dc565b9350604086015191508082111562000403578283fd5b506200041286828701620002dc565b9150509250925092565b600181811c908216806200043157607f821691505b602082108114156200045357634e487b7160e01b600052602260045260246000fd5b50919050565b634e487b7160e01b600052604160045260246000fd5b612f5e806200047f6000396000f3fe60806040526004361061038c5760003560e01c806370a08231116101dc578063ba4e5c4911610102578063cea7cf90116100a0578063da3ef23f1161006f578063da3ef23f14610998578063e985e9c5146109b8578063edec5f2714610a01578063f2fde38b14610a2157600080fd5b8063cea7cf901461092d578063d0eb26b01461094d578063d28d88521461096d578063d5abeb011461098257600080fd5b8063c5f9816b116100dc578063c5f9816b146108c2578063c6682862146108e2578063c7873b83146108f7578063c87b56dd1461090d57600080fd5b8063ba4e5c4914610876578063ba7d2c7614610896578063c051e38a146108ac57600080fd5b806395d89b411161017a578063aac8520a11610149578063aac8520a1461080d578063b09f12661461082c578063b187bd2614610841578063b88d4fde1461085657600080fd5b806395d89b41146107ad5780639c70b512146107c2578063a22cb465146107d8578063a475b5dd146107f857600080fd5b8063774a8835116101b6578063774a8835146107455780637f00c7a61461075a5780638da5cb5b1461077a5780639502743d1461079857600080fd5b806370a08231146106fb578063715018a61461071b578063743cc26a1461073057600080fd5b806323b872dd116102c1578063438b63001161025f57806355f804b31161022e57806355f804b31461068c5780635c975abb146106ac5780636352211e146106c65780636c0360eb146106e657600080fd5b8063438b63001461060957806344a0d68a146106365780634f6ccce714610656578063518302271461067657600080fd5b80633af32abf1161029b5780633af32abf146105ae5780633ccfd60b146105ce57806340c10f19146105d657806342842e0e146105e957600080fd5b806323b872dd1461054e5780632f745c591461056e578063326d43881461058e57600080fd5b8063095ea7b31161032e57806318160ddd1161030857806318160ddd146104e157806318cae269146104f65780631de18b3614610523578063239c70ae1461053857600080fd5b8063095ea7b31461048b5780630bb862d1146104ab57806313faede6146104cb57600080fd5b806306fdde031161036a57806306fdde031461040757806307c0af4714610429578063081812fc1461043e578063081c8c441461047657600080fd5b806301ffc9a71461039157806302329a29146103c657806302fcb7af146103e8575b600080fd5b34801561039d57600080fd5b506103b16103ac366004612ad1565b610a41565b60405190151581526020015b60405180910390f35b3480156103d257600080fd5b506103e66103e1366004612ab7565b610a6c565b005b3480156103f457600080fd5b506015545b6040519081526020016103bd565b34801561041357600080fd5b5061041c610ab2565b6040516103bd9190612cd6565b34801561043557600080fd5b506019546103f9565b34801561044a57600080fd5b5061045e610459366004612b4f565b610b44565b6040516001600160a01b0390911681526020016103bd565b34801561048257600080fd5b5061041c610bd9565b34801561049757600080fd5b506103e66104a6366004612a1e565b610c67565b3480156104b757600080fd5b506103e66104c6366004612b4f565b610d7d565b3480156104d757600080fd5b506103f960135481565b3480156104ed57600080fd5b506008546103f9565b34801561050257600080fd5b506103f96105113660046128ee565b601e6020526000908152604090205481565b34801561052f57600080fd5b5061041c610e66565b34801561054457600080fd5b506103f960165481565b34801561055a57600080fd5b506103e6610569366004612941565b610e73565b34801561057a57600080fd5b506103f9610589366004612a1e565b610ea4565b34801561059a57600080fd5b506103e66105a9366004612b09565b610f3a565b3480156105ba57600080fd5b506103b16105c93660046128ee565b610f75565b6103e6610fed565b6103e66105e4366004612a1e565b611088565b3480156105f557600080fd5b506103e6610604366004612941565b611411565b34801561061557600080fd5b506106296106243660046128ee565b61142c565b6040516103bd9190612c92565b34801561064257600080fd5b506103e6610651366004612b4f565b6114ea565b34801561066257600080fd5b506103f9610671366004612b4f565b611519565b34801561068257600080fd5b506103f960195481565b34801561069857600080fd5b506103e66106a7366004612b09565b6115ba565b3480156106b857600080fd5b50601a546103b19060ff1681565b3480156106d257600080fd5b5061045e6106e1366004612b4f565b6115fb565b3480156106f257600080fd5b5061041c611672565b34801561070757600080fd5b506103f96107163660046128ee565b61167f565b34801561072757600080fd5b506103e6611706565b34801561073c57600080fd5b506103f961173c565b34801561075157600080fd5b50601b546103f9565b34801561076657600080fd5b506103e6610775366004612b4f565b61178e565b34801561078657600080fd5b50600a546001600160a01b031661045e565b3480156107a457600080fd5b5061041c6117bd565b3480156107b957600080fd5b5061041c6117ca565b3480156107ce57600080fd5b506103f960185481565b3480156107e457600080fd5b506103e66107f33660046129f5565b6117d9565b34801561080457600080fd5b506103e66117e4565b34801561081957600080fd5b50601a546103b190610100900460ff1681565b34801561083857600080fd5b5061041c611815565b34801561084d57600080fd5b506103f9611822565b34801561086257600080fd5b506103e661087136600461297c565b611841565b34801561088257600080fd5b5061045e610891366004612b4f565b611873565b3480156108a257600080fd5b506103f960175481565b3480156108b857600080fd5b506103f9601b5481565b3480156108ce57600080fd5b506103e66108dd366004612b4f565b61189d565b3480156108ee57600080fd5b5061041c6118cc565b34801561090357600080fd5b506103f960155481565b34801561091957600080fd5b5061041c610928366004612b4f565b6118d9565b34801561093957600080fd5b50601c5461045e906001600160a01b031681565b34801561095957600080fd5b506103e6610968366004612b4f565b611afc565b34801561097957600080fd5b5061041c611b2b565b34801561098e57600080fd5b506103f960145481565b3480156109a457600080fd5b506103e66109b3366004612b09565b611b38565b3480156109c457600080fd5b506103b16109d336600461290f565b6001600160a01b03918216600090815260056020908152604080832093909416825291909152205460ff1690565b348015610a0d57600080fd5b506103e6610a1c366004612a47565b611b75565b348015610a2d57600080fd5b506103e6610a3c3660046128ee565b611bb7565b60006001600160e01b0319821663780e9d6360e01b1480610a665750610a6682611c4f565b92915050565b600a546001600160a01b03163314610a9f5760405162461bcd60e51b8152600401610a9690612d3b565b60405180910390fd5b601a805460ff1916911515919091179055565b606060008054610ac190612e66565b80601f0160208091040260200160405190810160405280929190818152602001828054610aed90612e66565b8015610b3a5780601f10610b0f57610100808354040283529160200191610b3a565b820191906000526020600020905b815481529060010190602001808311610b1d57829003601f168201915b5050505050905090565b6000818152600260205260408120546001600160a01b0316610bbd5760405162461bcd60e51b815260206004820152602c60248201527f4552433732313a20617070726f76656420717565727920666f72206e6f6e657860448201526b34b9ba32b73a103a37b5b2b760a11b6064820152608401610a96565b506000908152600460205260409020546001600160a01b031690565b600f8054610be690612e66565b80601f0160208091040260200160405190810160405280929190818152602001828054610c1290612e66565b8015610c5f5780601f10610c3457610100808354040283529160200191610c5f565b820191906000526020600020905b815481529060010190602001808311610c4257829003601f168201915b505050505081565b6000610c72826115fb565b9050806001600160a01b0316836001600160a01b03161415610ce05760405162461bcd60e51b815260206004820152602160248201527f4552433732313a20617070726f76616c20746f2063757272656e74206f776e656044820152603960f91b6064820152608401610a96565b336001600160a01b0382161480610cfc5750610cfc81336109d3565b610d6e5760405162461bcd60e51b815260206004820152603860248201527f4552433732313a20617070726f76652063616c6c6572206973206e6f74206f7760448201527f6e6572206e6f7220617070726f76656420666f7220616c6c00000000000000006064820152608401610a96565b610d788383611c9f565b505050565b600a546001600160a01b03163314610da75760405162461bcd60e51b8152600401610a9690612d3b565b6001811015610df25760405162461bcd60e51b8152602060048201526017602482015276024b7383aba102bb937b7339036b4b73a1039ba30ba329604d1b6044820152606401610a96565b6002811115610e3d5760405162461bcd60e51b8152602060048201526017602482015276024b7383aba102bb937b7339036b4b73a1039ba30ba329604d1b6044820152606401610a96565b601b8190556001811415610e4e5750565b601b5460021415610e6357610e63600061189d565b50565b60128054610be690612e66565b610e7d3382611d0d565b610e995760405162461bcd60e51b8152600401610a9690612d70565b610d78838383611e04565b6000610eaf8361167f565b8210610f115760405162461bcd60e51b815260206004820152602b60248201527f455243373231456e756d657261626c653a206f776e657220696e646578206f7560448201526a74206f6620626f756e647360a81b6064820152608401610a96565b506001600160a01b03919091166000908152600660209081526040808320938352929052205490565b600a546001600160a01b03163314610f645760405162461bcd60e51b8152600401610a9690612d3b565b610f6c6117e4565b610e63816115ba565b6000805b601d54811015610fe457826001600160a01b0316601d8281548110610fae57634e487b7160e01b600052603260045260246000fd5b6000918252602090912001546001600160a01b03161415610fd25750600192915050565b80610fdc81612ea1565b915050610f79565b50600092915050565b600a546001600160a01b031633146110175760405162461bcd60e51b8152600401610a9690612d3b565b600061102b600a546001600160a01b031690565b6001600160a01b03164760405160006040518083038185875af1925050503d8060008114611075576040519150601f19603f3d011682016040523d82523d6000602084013e61107a565b606091505b5050905080610e6357600080fd5b600061109360085490565b601a5490915060ff16156110e25760405162461bcd60e51b81526020600482015260166024820152751d1a194818dbdb9d1c9858dd081a5cc81c185d5cd95960521b6044820152606401610a96565b3361112f5760405162461bcd60e51b815260206004820152601b60248201527f526563697069656e742073686f756c642062652070726573656e7400000000006044820152606401610a96565b6000821161117f5760405162461bcd60e51b815260206004820152601b60248201527f6e65656420746f206d696e74206174206c656173742031204e465400000000006044820152606401610a96565b6000601554116111ca5760405162461bcd60e51b81526020600482015260166024820152751b585e08139195081b1a5b5a5d08195e18d95959195960521b6044820152606401610a96565b600a546001600160a01b031633146113a657601854600114156112a9576111f033610f75565b61123c5760405162461bcd60e51b815260206004820152601760248201527f75736572206973206e6f742077686974656c69737465640000000000000000006044820152606401610a96565b336000908152601e60205260409020546017546112598483612dc1565b11156112a75760405162461bcd60e51b815260206004820152601c60248201527f6d6178204e4654207065722061646472657373206578636565646564000000006044820152606401610a96565b505b346112f65760405162461bcd60e51b815260206004820181905260248201527f526f79616c74792076616c75652073686f756c6420626520706f7369746976656044820152606401610a96565b816013546113049190612ded565b3410156113485760405162461bcd60e51b8152602060048201526012602482015271696e73756666696369656e742066756e647360701b6044820152606401610a96565b6016548211156113a65760405162461bcd60e51b8152602060048201526024808201527f6d6178206d696e7420616d6f756e74207065722073657373696f6e20657863656044820152631959195960e21b6064820152608401610a96565b60015b82811161140b576113c3846113be8385612dc1565b611fab565b336000908152601e602052604081208054916113de83612ea1565b9091555050601580549060006113f383612e4f565b9190505550808061140390612ea1565b9150506113a9565b50505050565b610d7883838360405180602001604052806000815250611841565b606060006114398361167f565b905060008167ffffffffffffffff81111561146457634e487b7160e01b600052604160045260246000fd5b60405190808252806020026020018201604052801561148d578160200160208202803683370190505b50905060005b828110156114e2576114a58582610ea4565b8282815181106114c557634e487b7160e01b600052603260045260246000fd5b6020908102919091010152806114da81612ea1565b915050611493565b509392505050565b600a546001600160a01b031633146115145760405162461bcd60e51b8152600401610a9690612d3b565b601355565b600061152460085490565b82106115875760405162461bcd60e51b815260206004820152602c60248201527f455243373231456e756d657261626c653a20676c6f62616c20696e646578206f60448201526b7574206f6620626f756e647360a01b6064820152608401610a96565b600882815481106115a857634e487b7160e01b600052603260045260246000fd5b90600052602060002001549050919050565b600a546001600160a01b031633146115e45760405162461bcd60e51b8152600401610a9690612d3b565b80516115f790600c906020840190612742565b5050565b6000818152600260205260408120546001600160a01b031680610a665760405162461bcd60e51b815260206004820152602960248201527f4552433732313a206f776e657220717565727920666f72206e6f6e657869737460448201526832b73a103a37b5b2b760b91b6064820152608401610a96565b600c8054610be690612e66565b60006001600160a01b0382166116ea5760405162461bcd60e51b815260206004820152602a60248201527f4552433732313a2062616c616e636520717565727920666f7220746865207a65604482015269726f206164647265737360b01b6064820152608401610a96565b506001600160a01b031660009081526003602052604090205490565b600a546001600160a01b031633146117305760405162461bcd60e51b8152600401610a9690612d3b565b61173a6000611fc5565b565b600080611751600a546001600160a01b031690565b6001600160a01b0316336001600160a01b03161461178657336000908152601e6020526040902054601754610a669190612e0c565b5060c8919050565b600a546001600160a01b031633146117b85760405162461bcd60e51b8152600401610a9690612d3b565b601655565b600e8054610be690612e66565b606060018054610ac190612e66565b6115f7338383612017565b600a546001600160a01b0316331461180e5760405162461bcd60e51b8152600401610a9690612d3b565b6001601955565b60118054610be690612e66565b601a5460009060ff1615156001141561183b5750600190565b50600090565b61184b3383611d0d565b6118675760405162461bcd60e51b8152600401610a9690612d70565b61140b848484846120e6565b601d818154811061188357600080fd5b6000918252602090912001546001600160a01b0316905081565b600a546001600160a01b031633146118c75760405162461bcd60e51b8152600401610a9690612d3b565b601855565b600d8054610be690612e66565b6000818152600260205260409020546060906001600160a01b03166119585760405162461bcd60e51b815260206004820152602f60248201527f4552433732314d657461646174613a2055524920717565727920666f72206e6f60448201526e3732bc34b9ba32b73a103a37b5b2b760891b6064820152608401610a96565b6000828152600b60205260408120805461197190612e66565b80601f016020809104026020016040519081016040528092919081815260200182805461199d90612e66565b80156119ea5780601f106119bf576101008083540402835291602001916119ea565b820191906000526020600020905b8154815290600101906020018083116119cd57829003601f168201915b5050505050905060006119fb612119565b905060195460001415611a9c57600f8054611a1590612e66565b80601f0160208091040260200160405190810160405280929190818152602001828054611a4190612e66565b8015611a8e5780601f10611a6357610100808354040283529160200191611a8e565b820191906000526020600020905b815481529060010190602001808311611a7157829003601f168201915b505050505092505050919050565b8051611aa9575092915050565b815115611ade578082600d604051602001611ac693929190612b93565b60405160208183030381529060405292505050919050565b80611ae885612128565b600d604051602001611ac693929190612b93565b600a546001600160a01b03163314611b265760405162461bcd60e51b8152600401610a9690612d3b565b601755565b60108054610be690612e66565b600a546001600160a01b03163314611b625760405162461bcd60e51b8152600401610a9690612d3b565b80516115f790600d906020840190612742565b600a546001600160a01b03163314611b9f5760405162461bcd60e51b8152600401610a9690612d3b565b611bab601d60006127c6565b610d78601d83836127e4565b600a546001600160a01b03163314611be15760405162461bcd60e51b8152600401610a9690612d3b565b6001600160a01b038116611c465760405162461bcd60e51b815260206004820152602660248201527f4f776e61626c653a206e6577206f776e657220697320746865207a65726f206160448201526564647265737360d01b6064820152608401610a96565b610e6381611fc5565b60006001600160e01b031982166380ac58cd60e01b1480611c8057506001600160e01b03198216635b5e139f60e01b145b80610a6657506301ffc9a760e01b6001600160e01b0319831614610a66565b600081815260046020526040902080546001600160a01b0319166001600160a01b0384169081179091558190611cd4826115fb565b6001600160a01b03167f8c5be1e5ebec7d5bd14f71427d1e84f3dd0314c0f7b2291e5b200ac8c7c3b92560405160405180910390a45050565b6000818152600260205260408120546001600160a01b0316611d865760405162461bcd60e51b815260206004820152602c60248201527f4552433732313a206f70657261746f7220717565727920666f72206e6f6e657860448201526b34b9ba32b73a103a37b5b2b760a11b6064820152608401610a96565b6000611d91836115fb565b9050806001600160a01b0316846001600160a01b03161480611dcc5750836001600160a01b0316611dc184610b44565b6001600160a01b0316145b80611dfc57506001600160a01b0380821660009081526005602090815260408083209388168352929052205460ff165b949350505050565b826001600160a01b0316611e17826115fb565b6001600160a01b031614611e7b5760405162461bcd60e51b815260206004820152602560248201527f4552433732313a207472616e736665722066726f6d20696e636f72726563742060448201526437bbb732b960d91b6064820152608401610a96565b6001600160a01b038216611edd5760405162461bcd60e51b8152602060048201526024808201527f4552433732313a207472616e7366657220746f20746865207a65726f206164646044820152637265737360e01b6064820152608401610a96565b611ee8838383612242565b611ef3600082611c9f565b6001600160a01b0383166000908152600360205260408120805460019290611f1c908490612e0c565b90915550506001600160a01b0382166000908152600360205260408120805460019290611f4a908490612dc1565b909155505060008181526002602052604080822080546001600160a01b0319166001600160a01b0386811691821790925591518493918716917fddf252ad1be2c89b69c2b068fc378daa952ba7f163c4a11628f55a4df523b3ef91a4505050565b6115f78282604051806020016040528060008152506122fa565b600a80546001600160a01b038381166001600160a01b0319831681179093556040519116919082907f8be0079c531659141344cd1fd0a4f28419497f9722a3daafe3b4186f6b6457e090600090a35050565b816001600160a01b0316836001600160a01b031614156120795760405162461bcd60e51b815260206004820152601960248201527f4552433732313a20617070726f766520746f2063616c6c6572000000000000006044820152606401610a96565b6001600160a01b03838116600081815260056020908152604080832094871680845294825291829020805460ff191686151590811790915591519182527f17307eab39ab6107e8899845ad3d59bd9653f200f220920489ca2b5937696c31910160405180910390a3505050565b6120f1848484611e04565b6120fd8484848461232d565b61140b5760405162461bcd60e51b8152600401610a9690612ce9565b6060600c8054610ac190612e66565b60608161214c5750506040805180820190915260018152600360fc1b602082015290565b8160005b8115612176578061216081612ea1565b915061216f9050600a83612dd9565b9150612150565b60008167ffffffffffffffff81111561219f57634e487b7160e01b600052604160045260246000fd5b6040519080825280601f01601f1916602001820160405280156121c9576020820181803683370190505b5090505b8415611dfc576121de600183612e0c565b91506121eb600a86612ebc565b6121f6906030612dc1565b60f81b81838151811061221957634e487b7160e01b600052603260045260246000fd5b60200101906001600160f81b031916908160001a90535061223b600a86612dd9565b94506121cd565b6001600160a01b03831661229d5761229881600880546000838152600960205260408120829055600182018355919091527ff3f7a9fe364faab93b216da50a3214154f22a0a2b415b23a84c8169e8b636ee30155565b6122c0565b816001600160a01b0316836001600160a01b0316146122c0576122c0838261243a565b6001600160a01b0382166122d757610d78816124d7565b826001600160a01b0316826001600160a01b031614610d7857610d7882826125b0565b61230483836125f4565b612311600084848461232d565b610d785760405162461bcd60e51b8152600401610a9690612ce9565b60006001600160a01b0384163b1561242f57604051630a85bd0160e11b81526001600160a01b0385169063150b7a0290612371903390899088908890600401612c55565b602060405180830381600087803b15801561238b57600080fd5b505af19250505080156123bb575060408051601f3d908101601f191682019092526123b891810190612aed565b60015b612415573d8080156123e9576040519150601f19603f3d011682016040523d82523d6000602084013e6123ee565b606091505b50805161240d5760405162461bcd60e51b8152600401610a9690612ce9565b805181602001fd5b6001600160e01b031916630a85bd0160e11b149050611dfc565b506001949350505050565b600060016124478461167f565b6124519190612e0c565b6000838152600760205260409020549091508082146124a4576001600160a01b03841660009081526006602090815260408083208584528252808320548484528184208190558352600790915290208190555b5060009182526007602090815260408084208490556001600160a01b039094168352600681528383209183525290812055565b6008546000906124e990600190612e0c565b6000838152600960205260408120546008805493945090928490811061251f57634e487b7160e01b600052603260045260246000fd5b90600052602060002001549050806008838154811061254e57634e487b7160e01b600052603260045260246000fd5b600091825260208083209091019290925582815260099091526040808220849055858252812055600880548061259457634e487b7160e01b600052603160045260246000fd5b6001900381819060005260206000200160009055905550505050565b60006125bb8361167f565b6001600160a01b039093166000908152600660209081526040808320868452825280832085905593825260079052919091209190915550565b6001600160a01b03821661264a5760405162461bcd60e51b815260206004820181905260248201527f4552433732313a206d696e7420746f20746865207a65726f20616464726573736044820152606401610a96565b6000818152600260205260409020546001600160a01b0316156126af5760405162461bcd60e51b815260206004820152601c60248201527f4552433732313a20746f6b656e20616c7265616479206d696e746564000000006044820152606401610a96565b6126bb60008383612242565b6001600160a01b03821660009081526003602052604081208054600192906126e4908490612dc1565b909155505060008181526002602052604080822080546001600160a01b0319166001600160a01b03861690811790915590518392907fddf252ad1be2c89b69c2b068fc378daa952ba7f163c4a11628f55a4df523b3ef908290a45050565b82805461274e90612e66565b90600052602060002090601f01602090048101928261277057600085556127b6565b82601f1061278957805160ff19168380011785556127b6565b828001600101855582156127b6579182015b828111156127b657825182559160200191906001019061279b565b506127c2929150612837565b5090565b5080546000825590600052602060002090810190610e639190612837565b8280548282559060005260206000209081019282156127b6579160200282015b828111156127b65781546001600160a01b0319166001600160a01b03843516178255602090920191600190910190612804565b5b808211156127c25760008155600101612838565b600067ffffffffffffffff8084111561286757612867612efc565b604051601f8501601f19908116603f0116810190828211818310171561288f5761288f612efc565b816040528093508581528686860111156128a857600080fd5b858560208301376000602087830101525050509392505050565b80356001600160a01b03811681146128d957600080fd5b919050565b803580151581146128d957600080fd5b6000602082840312156128ff578081fd5b612908826128c2565b9392505050565b60008060408385031215612921578081fd5b61292a836128c2565b9150612938602084016128c2565b90509250929050565b600080600060608486031215612955578081fd5b61295e846128c2565b925061296c602085016128c2565b9150604084013590509250925092565b60008060008060808587031215612991578081fd5b61299a856128c2565b93506129a8602086016128c2565b925060408501359150606085013567ffffffffffffffff8111156129ca578182fd5b8501601f810187136129da578182fd5b6129e98782356020840161284c565b91505092959194509250565b60008060408385031215612a07578182fd5b612a10836128c2565b9150612938602084016128de565b60008060408385031215612a30578182fd5b612a39836128c2565b946020939093013593505050565b60008060208385031215612a59578182fd5b823567ffffffffffffffff80821115612a70578384fd5b818501915085601f830112612a83578384fd5b813581811115612a91578485fd5b8660208260051b8501011115612aa5578485fd5b60209290920196919550909350505050565b600060208284031215612ac8578081fd5b612908826128de565b600060208284031215612ae2578081fd5b813561290881612f12565b600060208284031215612afe578081fd5b815161290881612f12565b600060208284031215612b1a578081fd5b813567ffffffffffffffff811115612b30578182fd5b8201601f81018413612b40578182fd5b611dfc8482356020840161284c565b600060208284031215612b60578081fd5b5035919050565b60008151808452612b7f816020860160208601612e23565b601f01601f19169290920160200192915050565b600084516020612ba68285838a01612e23565b855191840191612bb98184848a01612e23565b85549201918390600181811c9080831680612bd557607f831692505b858310811415612bf357634e487b7160e01b88526022600452602488fd5b808015612c075760018114612c1857612c44565b60ff19851688528388019550612c44565b60008b815260209020895b85811015612c3c5781548a820152908401908801612c23565b505083880195505b50939b9a5050505050505050505050565b6001600160a01b0385811682528416602082015260408101839052608060608201819052600090612c8890830184612b67565b9695505050505050565b6020808252825182820181905260009190848201906040850190845b81811015612cca57835183529284019291840191600101612cae565b50909695505050505050565b6020815260006129086020830184612b67565b60208082526032908201527f4552433732313a207472616e7366657220746f206e6f6e20455243373231526560408201527131b2b4bb32b91034b6b83632b6b2b73a32b960711b606082015260800190565b6020808252818101527f4f776e61626c653a2063616c6c6572206973206e6f7420746865206f776e6572604082015260600190565b60208082526031908201527f4552433732313a207472616e736665722063616c6c6572206973206e6f74206f6040820152701ddb995c881b9bdc88185c1c1c9bdd9959607a1b606082015260800190565b60008219821115612dd457612dd4612ed0565b500190565b600082612de857612de8612ee6565b500490565b6000816000190483118215151615612e0757612e07612ed0565b500290565b600082821015612e1e57612e1e612ed0565b500390565b60005b83811015612e3e578181015183820152602001612e26565b8381111561140b5750506000910152565b600081612e5e57612e5e612ed0565b506000190190565b600181811c90821680612e7a57607f821691505b60208210811415612e9b57634e487b7160e01b600052602260045260246000fd5b50919050565b6000600019821415612eb557612eb5612ed0565b5060010190565b600082612ecb57612ecb612ee6565b500690565b634e487b7160e01b600052601160045260246000fd5b634e487b7160e01b600052601260045260246000fd5b634e487b7160e01b600052604160045260246000fd5b6001600160e01b031981168114610e6357600080fdfea26469706673582212209ed7892dcb2b743d91a46c519fa6820c980cfcb380e197ae8604db3b233421b364736f6c6343000804003368747470733a2f2f746865756e64657267726f756e642e6d7970696e6174612e636c6f75642f697066732f516d637a367153683642396d445231366f31527164426f556a717531347869634b427435325462673856695968502f312e6a736f6e",
  "devdoc": {
    "kind": "dev",
    "methods": {
      "approve(address,uint256)": {
        "details": "See {IERC721-approve}."
      },
      "balanceOf(address)": {
        "details": "See {IERC721-balanceOf}."
      },
      "getApproved(uint256)": {
        "details": "See {IERC721-getApproved}."
      },
      "isApprovedForAll(address,address)": {
        "details": "See {IERC721-isApprovedForAll}."
      },
      "name()": {
        "details": "See {IERC721Metadata-name}."
      },
      "owner()": {
        "details": "Returns the address of the current owner."
      },
      "ownerOf(uint256)": {
        "details": "See {IERC721-ownerOf}."
      },
      "renounceOwnership()": {
        "details": "Leaves the contract without owner. It will not be possible to call `onlyOwner` functions anymore. Can only be called by the current owner. NOTE: Renouncing ownership will leave the contract without an owner, thereby removing any functionality that is only available to the owner."
      },
      "safeTransferFrom(address,address,uint256)": {
        "details": "See {IERC721-safeTransferFrom}."
      },
      "safeTransferFrom(address,address,uint256,bytes)": {
        "details": "See {IERC721-safeTransferFrom}."
      },
      "setApprovalForAll(address,bool)": {
        "details": "See {IERC721-setApprovalForAll}."
      },
      "supportsInterface(bytes4)": {
        "details": "See {IERC165-supportsInterface}."
      },
      "symbol()": {
        "details": "See {IERC721Metadata-symbol}."
      },
      "tokenByIndex(uint256)": {
        "details": "See {IERC721Enumerable-tokenByIndex}."
      },
      "tokenOfOwnerByIndex(address,uint256)": {
        "details": "See {IERC721Enumerable-tokenOfOwnerByIndex}."
      },
      "tokenURI(uint256)": {
        "details": "See {IERC721Metadata-tokenURI}."
      },
      "totalSupply()": {
        "details": "See {IERC721Enumerable-totalSupply}."
      },
      "transferFrom(address,address,uint256)": {
        "details": "See {IERC721-transferFrom}."
      },
      "transferOwnership(address)": {
        "details": "Transfers ownership of the contract to a new account (`newOwner`). Can only be called by the current owner."
      }
    },
    "version": 1
  },
  "userdoc": {
    "kind": "user",
    "methods": {},
    "version": 1
  },
  "storageLayout": {
    "storage": [
      {
        "astId": 130,
        "contract": "contracts/TheUnderground.sol:TheUnderground",
        "label": "_name",
        "offset": 0,
        "slot": "0",
        "type": "t_string_storage"
      },
      {
        "astId": 132,
        "contract": "contracts/TheUnderground.sol:TheUnderground",
        "label": "_symbol",
        "offset": 0,
        "slot": "1",
        "type": "t_string_storage"
      },
      {
        "astId": 136,
        "contract": "contracts/TheUnderground.sol:TheUnderground",
        "label": "_owners",
        "offset": 0,
        "slot": "2",
        "type": "t_mapping(t_uint256,t_address)"
      },
      {
        "astId": 140,
        "contract": "contracts/TheUnderground.sol:TheUnderground",
        "label": "_balances",
        "offset": 0,
        "slot": "3",
        "type": "t_mapping(t_address,t_uint256)"
      },
      {
        "astId": 144,
        "contract": "contracts/TheUnderground.sol:TheUnderground",
        "label": "_tokenApprovals",
        "offset": 0,
        "slot": "4",
        "type": "t_mapping(t_uint256,t_address)"
      },
      {
        "astId": 150,
        "contract": "contracts/TheUnderground.sol:TheUnderground",
        "label": "_operatorApprovals",
        "offset": 0,
        "slot": "5",
        "type": "t_mapping(t_address,t_mapping(t_address,t_bool))"
      },
      {
        "astId": 1119,
        "contract": "contracts/TheUnderground.sol:TheUnderground",
        "label": "_ownedTokens",
        "offset": 0,
        "slot": "6",
        "type": "t_mapping(t_address,t_mapping(t_uint256,t_uint256))"
      },
      {
        "astId": 1123,
        "contract": "contracts/TheUnderground.sol:TheUnderground",
        "label": "_ownedTokensIndex",
        "offset": 0,
        "slot": "7",
        "type": "t_mapping(t_uint256,t_uint256)"
      },
      {
        "astId": 1126,
        "contract": "contracts/TheUnderground.sol:TheUnderground",
        "label": "_allTokens",
        "offset": 0,
        "slot": "8",
        "type": "t_array(t_uint256)dyn_storage"
      },
      {
        "astId": 1130,
        "contract": "contracts/TheUnderground.sol:TheUnderground",
        "label": "_allTokensIndex",
        "offset": 0,
        "slot": "9",
        "type": "t_mapping(t_uint256,t_uint256)"
      },
      {
        "astId": 7,
        "contract": "contracts/TheUnderground.sol:TheUnderground",
        "label": "_owner",
        "offset": 0,
        "slot": "10",
        "type": "t_address"
      },
      {
        "astId": 2071,
        "contract": "contracts/TheUnderground.sol:TheUnderground",
        "label": "_tokenURIs",
        "offset": 0,
        "slot": "11",
        "type": "t_mapping(t_uint256,t_string_storage)"
      },
      {
        "astId": 2073,
        "contract": "contracts/TheUnderground.sol:TheUnderground",
        "label": "baseURI",
        "offset": 0,
        "slot": "12",
        "type": "t_string_storage"
      },
      {
        "astId": 2076,
        "contract": "contracts/TheUnderground.sol:TheUnderground",
        "label": "baseExtension",
        "offset": 0,
        "slot": "13",
        "type": "t_string_storage"
      },
      {
        "astId": 2079,
        "contract": "contracts/TheUnderground.sol:TheUnderground",
        "label": "metaDataFolder",
        "offset": 0,
        "slot": "14",
        "type": "t_string_storage"
      },
      {
        "astId": 2082,
        "contract": "contracts/TheUnderground.sol:TheUnderground",
        "label": "notRevealedUri",
        "offset": 0,
        "slot": "15",
        "type": "t_string_storage"
      },
      {
        "astId": 2084,
        "contract": "contracts/TheUnderground.sol:TheUnderground",
        "label": "_name",
        "offset": 0,
        "slot": "16",
        "type": "t_string_storage"
      },
      {
        "astId": 2086,
        "contract": "contracts/TheUnderground.sol:TheUnderground",
        "label": "_symbol",
        "offset": 0,
        "slot": "17",
        "type": "t_string_storage"
      },
      {
        "astId": 2088,
        "contract": "contracts/TheUnderground.sol:TheUnderground",
        "label": "_initBaseURI",
        "offset": 0,
        "slot": "18",
        "type": "t_string_storage"
      },
      {
        "astId": 2091,
        "contract": "contracts/TheUnderground.sol:TheUnderground",
        "label": "cost",
        "offset": 0,
        "slot": "19",
        "type": "t_uint256"
      },
      {
        "astId": 2094,
        "contract": "contracts/TheUnderground.sol:TheUnderground",
        "label": "maxSupply",
        "offset": 0,
        "slot": "20",
        "type": "t_uint256"
      },
      {
        "astId": 2097,
        "contract": "contracts/TheUnderground.sol:TheUnderground",
        "label": "remainTokenAmount",
        "offset": 0,
        "slot": "21",
        "type": "t_uint256"
      },
      {
        "astId": 2100,
        "contract": "contracts/TheUnderground.sol:TheUnderground",
        "label": "maxMintAmount",
        "offset": 0,
        "slot": "22",
        "type": "t_uint256"
      },
      {
        "astId": 2103,
        "contract": "contracts/TheUnderground.sol:TheUnderground",
        "label": "nftPerAddressLimit",
        "offset": 0,
        "slot": "23",
        "type": "t_uint256"
      },
      {
        "astId": 2106,
        "contract": "contracts/TheUnderground.sol:TheUnderground",
        "label": "onlyWhitelisted",
        "offset": 0,
        "slot": "24",
        "type": "t_uint256"
      },
      {
        "astId": 2109,
        "contract": "contracts/TheUnderground.sol:TheUnderground",
        "label": "revealed",
        "offset": 0,
        "slot": "25",
        "type": "t_uint256"
      },
      {
        "astId": 2112,
        "contract": "contracts/TheUnderground.sol:TheUnderground",
        "label": "paused",
        "offset": 0,
        "slot": "26",
        "type": "t_bool"
      },
      {
        "astId": 2115,
        "contract": "contracts/TheUnderground.sol:TheUnderground",
        "label": "deployedverified",
        "offset": 1,
        "slot": "26",
        "type": "t_bool"
      },
      {
        "astId": 2118,
        "contract": "contracts/TheUnderground.sol:TheUnderground",
        "label": "mintState",
        "offset": 0,
        "slot": "27",
        "type": "t_uint256"
      },
      {
        "astId": 2122,
        "contract": "contracts/TheUnderground.sol:TheUnderground",
        "label": "_nftcreator",
        "offset": 0,
        "slot": "28",
        "type": "t_address"
      },
      {
        "astId": 2125,
        "contract": "contracts/TheUnderground.sol:TheUnderground",
        "label": "whitelistedAddresses",
        "offset": 0,
        "slot": "29",
        "type": "t_array(t_address)dyn_storage"
      },
      {
        "astId": 2129,
        "contract": "contracts/TheUnderground.sol:TheUnderground",
        "label": "addressMintedBalance",
        "offset": 0,
        "slot": "30",
        "type": "t_mapping(t_address,t_uint256)"
      }
    ],
    "types": {
      "t_address": {
        "encoding": "inplace",
        "label": "address",
        "numberOfBytes": "20"
      },
      "t_array(t_address)dyn_storage": {
        "base": "t_address",
        "encoding": "dynamic_array",
        "label": "address[]",
        "numberOfBytes": "32"
      },
      "t_array(t_uint256)dyn_storage": {
        "base": "t_uint256",
        "encoding": "dynamic_array",
        "label": "uint256[]",
        "numberOfBytes": "32"
      },
      "t_bool": {
        "encoding": "inplace",
        "label": "bool",
        "numberOfBytes": "1"
      },
      "t_mapping(t_address,t_bool)": {
        "encoding": "mapping",
        "key": "t_address",
        "label": "mapping(address => bool)",
        "numberOfBytes": "32",
        "value": "t_bool"
      },
      "t_mapping(t_address,t_mapping(t_address,t_bool))": {
        "encoding": "mapping",
        "key": "t_address",
        "label": "mapping(address => mapping(address => bool))",
        "numberOfBytes": "32",
        "value": "t_mapping(t_address,t_bool)"
      },
      "t_mapping(t_address,t_mapping(t_uint256,t_uint256))": {
        "encoding": "mapping",
        "key": "t_address",
        "label": "mapping(address => mapping(uint256 => uint256))",
        "numberOfBytes": "32",
        "value": "t_mapping(t_uint256,t_uint256)"
      },
      "t_mapping(t_address,t_uint256)": {
        "encoding": "mapping",
        "key": "t_address",
        "label": "mapping(address => uint256)",
        "numberOfBytes": "32",
        "value": "t_uint256"
      },
      "t_mapping(t_uint256,t_address)": {
        "encoding": "mapping",
        "key": "t_uint256",
        "label": "mapping(uint256 => address)",
        "numberOfBytes": "32",
        "value": "t_address"
      },
      "t_mapping(t_uint256,t_string_storage)": {
        "encoding": "mapping",
        "key": "t_uint256",
        "label": "mapping(uint256 => string)",
        "numberOfBytes": "32",
        "value": "t_string_storage"
      },
      "t_mapping(t_uint256,t_uint256)": {
        "encoding": "mapping",
        "key": "t_uint256",
        "label": "mapping(uint256 => uint256)",
        "numberOfBytes": "32",
        "value": "t_uint256"
      },
      "t_string_storage": {
        "encoding": "bytes",
        "label": "string",
        "numberOfBytes": "32"
      },
      "t_uint256": {
        "encoding": "inplace",
        "label": "uint256",
        "numberOfBytes": "32"
      }
    }
  }
}