{
  "contracts/UndergroundNFT.sol": {
    "UndergroundNFT": {
      "abi": [
        {
          "inputs": [
            {
              "internalType": "string",
              "name": "_name",
              "type": "string"
            },
            {
              "internalType": "string",
              "name": "_symbol",
              "type": "string"
            },
            {
              "internalType": "string",
              "name": "_initBaseURI",
              "type": "string"
            }
          ],
          "stateMutability": "nonpayable",
          "type": "constructor"
        },
        {
          "anonymous": false,
          "inputs": [
            {
              "indexed": true,
              "internalType": "address",
              "name": "owner",
              "type": "address"
            },
            {
              "indexed": true,
              "internalType": "address",
              "name": "approved",
              "type": "address"
            },
            {
              "indexed": true,
              "internalType": "uint256",
              "name": "tokenId",
              "type": "uint256"
            }
          ],
          "name": "Approval",
          "type": "event"
        },
        {
          "anonymous": false,
          "inputs": [
            {
              "indexed": true,
              "internalType": "address",
              "name": "owner",
              "type": "address"
            },
            {
              "indexed": true,
              "internalType": "address",
              "name": "operator",
              "type": "address"
            },
            {
              "indexed": false,
              "internalType": "bool",
              "name": "approved",
              "type": "bool"
            }
          ],
          "name": "ApprovalForAll",
          "type": "event"
        },
        {
          "anonymous": false,
          "inputs": [
            {
              "indexed": true,
              "internalType": "address",
              "name": "previousOwner",
              "type": "address"
            },
            {
              "indexed": true,
              "internalType": "address",
              "name": "newOwner",
              "type": "address"
            }
          ],
          "name": "OwnershipTransferred",
          "type": "event"
        },
        {
          "anonymous": false,
          "inputs": [
            {
              "indexed": true,
              "internalType": "address",
              "name": "from",
              "type": "address"
            },
            {
              "indexed": true,
              "internalType": "address",
              "name": "to",
              "type": "address"
            },
            {
              "indexed": true,
              "internalType": "uint256",
              "name": "tokenId",
              "type": "uint256"
            }
          ],
          "name": "Transfer",
          "type": "event"
        },
        {
          "inputs": [],
          "name": "_initBaseURI",
          "outputs": [
            {
              "internalType": "string",
              "name": "",
              "type": "string"
            }
          ],
          "stateMutability": "view",
          "type": "function"
        },
        {
          "inputs": [],
          "name": "_name",
          "outputs": [
            {
              "internalType": "string",
              "name": "",
              "type": "string"
            }
          ],
          "stateMutability": "view",
          "type": "function"
        },
        {
          "inputs": [],
          "name": "_nftcreator",
          "outputs": [
            {
              "internalType": "address",
              "name": "",
              "type": "address"
            }
          ],
          "stateMutability": "view",
          "type": "function"
        },
        {
          "inputs": [],
          "name": "_symbol",
          "outputs": [
            {
              "internalType": "string",
              "name": "",
              "type": "string"
            }
          ],
          "stateMutability": "view",
          "type": "function"
        },
        {
          "inputs": [
            {
              "internalType": "address",
              "name": "",
              "type": "address"
            }
          ],
          "name": "addressMintedBalance",
          "outputs": [
            {
              "internalType": "uint256",
              "name": "",
              "type": "uint256"
            }
          ],
          "stateMutability": "view",
          "type": "function"
        },
        {
          "inputs": [
            {
              "internalType": "address",
              "name": "to",
              "type": "address"
            },
            {
              "internalType": "uint256",
              "name": "tokenId",
              "type": "uint256"
            }
          ],
          "name": "approve",
          "outputs": [],
          "stateMutability": "nonpayable",
          "type": "function"
        },
        {
          "inputs": [
            {
              "internalType": "address",
              "name": "owner",
              "type": "address"
            }
          ],
          "name": "balanceOf",
          "outputs": [
            {
              "internalType": "uint256",
              "name": "",
              "type": "uint256"
            }
          ],
          "stateMutability": "view",
          "type": "function"
        },
        {
          "inputs": [],
          "name": "baseExtension",
          "outputs": [
            {
              "internalType": "string",
              "name": "",
              "type": "string"
            }
          ],
          "stateMutability": "view",
          "type": "function"
        },
        {
          "inputs": [],
          "name": "baseURI",
          "outputs": [
            {
              "internalType": "string",
              "name": "",
              "type": "string"
            }
          ],
          "stateMutability": "view",
          "type": "function"
        },
        {
          "inputs": [],
          "name": "cost",
          "outputs": [
            {
              "internalType": "uint256",
              "name": "",
              "type": "uint256"
            }
          ],
          "stateMutability": "view",
          "type": "function"
        },
        {
          "inputs": [],
          "name": "deployedverified",
          "outputs": [
            {
              "internalType": "bool",
              "name": "",
              "type": "bool"
            }
          ],
          "stateMutability": "view",
          "type": "function"
        },
        {
          "inputs": [
            {
              "internalType": "uint256",
              "name": "tokenId",
              "type": "uint256"
            }
          ],
          "name": "getApproved",
          "outputs": [
            {
              "internalType": "address",
              "name": "",
              "type": "address"
            }
          ],
          "stateMutability": "view",
          "type": "function"
        },
        {
          "inputs": [],
          "name": "getIsRevealed",
          "outputs": [
            {
              "internalType": "uint256",
              "name": "",
              "type": "uint256"
            }
          ],
          "stateMutability": "view",
          "type": "function"
        },
        {
          "inputs": [],
          "name": "getMintState",
          "outputs": [
            {
              "internalType": "uint256",
              "name": "",
              "type": "uint256"
            }
          ],
          "stateMutability": "view",
          "type": "function"
        },
        {
          "inputs": [],
          "name": "getRemainCollections",
          "outputs": [
            {
              "internalType": "uint256",
              "name": "",
              "type": "uint256"
            }
          ],
          "stateMutability": "view",
          "type": "function"
        },
        {
          "inputs": [],
          "name": "getRemainNFTforUser",
          "outputs": [
            {
              "internalType": "uint256",
              "name": "",
              "type": "uint256"
            }
          ],
          "stateMutability": "view",
          "type": "function"
        },
        {
          "inputs": [
            {
              "internalType": "address",
              "name": "owner",
              "type": "address"
            },
            {
              "internalType": "address",
              "name": "operator",
              "type": "address"
            }
          ],
          "name": "isApprovedForAll",
          "outputs": [
            {
              "internalType": "bool",
              "name": "",
              "type": "bool"
            }
          ],
          "stateMutability": "view",
          "type": "function"
        },
        {
          "inputs": [],
          "name": "isPaused",
          "outputs": [
            {
              "internalType": "uint256",
              "name": "",
              "type": "uint256"
            }
          ],
          "stateMutability": "view",
          "type": "function"
        },
        {
          "inputs": [
            {
              "internalType": "address",
              "name": "_user",
              "type": "address"
            }
          ],
          "name": "isWhitelisted",
          "outputs": [
            {
              "internalType": "bool",
              "name": "",
              "type": "bool"
            }
          ],
          "stateMutability": "view",
          "type": "function"
        },
        {
          "inputs": [],
          "name": "maxMintAmount",
          "outputs": [
            {
              "internalType": "uint256",
              "name": "",
              "type": "uint256"
            }
          ],
          "stateMutability": "view",
          "type": "function"
        },
        {
          "inputs": [],
          "name": "maxSupply",
          "outputs": [
            {
              "internalType": "uint256",
              "name": "",
              "type": "uint256"
            }
          ],
          "stateMutability": "view",
          "type": "function"
        },
        {
          "inputs": [],
          "name": "metaDataFolder",
          "outputs": [
            {
              "internalType": "string",
              "name": "",
              "type": "string"
            }
          ],
          "stateMutability": "view",
          "type": "function"
        },
        {
          "inputs": [
            {
              "internalType": "address",
              "name": "_to",
              "type": "address"
            },
            {
              "internalType": "uint256",
              "name": "_mintAmount",
              "type": "uint256"
            }
          ],
          "name": "mint",
          "outputs": [],
          "stateMutability": "payable",
          "type": "function"
        },
        {
          "inputs": [],
          "name": "mintState",
          "outputs": [
            {
              "internalType": "uint256",
              "name": "",
              "type": "uint256"
            }
          ],
          "stateMutability": "view",
          "type": "function"
        },
        {
          "inputs": [],
          "name": "name",
          "outputs": [
            {
              "internalType": "string",
              "name": "",
              "type": "string"
            }
          ],
          "stateMutability": "view",
          "type": "function"
        },
        {
          "inputs": [],
          "name": "nftPerAddressLimit",
          "outputs": [
            {
              "internalType": "uint256",
              "name": "",
              "type": "uint256"
            }
          ],
          "stateMutability": "view",
          "type": "function"
        },
        {
          "inputs": [],
          "name": "notRevealedUri",
          "outputs": [
            {
              "internalType": "string",
              "name": "",
              "type": "string"
            }
          ],
          "stateMutability": "view",
          "type": "function"
        },
        {
          "inputs": [],
          "name": "onlyWhitelisted",
          "outputs": [
            {
              "internalType": "uint256",
              "name": "",
              "type": "uint256"
            }
          ],
          "stateMutability": "view",
          "type": "function"
        },
        {
          "inputs": [],
          "name": "owner",
          "outputs": [
            {
              "internalType": "address",
              "name": "",
              "type": "address"
            }
          ],
          "stateMutability": "view",
          "type": "function"
        },
        {
          "inputs": [
            {
              "internalType": "uint256",
              "name": "tokenId",
              "type": "uint256"
            }
          ],
          "name": "ownerOf",
          "outputs": [
            {
              "internalType": "address",
              "name": "",
              "type": "address"
            }
          ],
          "stateMutability": "view",
          "type": "function"
        },
        {
          "inputs": [
            {
              "internalType": "bool",
              "name": "_state",
              "type": "bool"
            }
          ],
          "name": "pause",
          "outputs": [],
          "stateMutability": "nonpayable",
          "type": "function"
        },
        {
          "inputs": [],
          "name": "paused",
          "outputs": [
            {
              "internalType": "bool",
              "name": "",
              "type": "bool"
            }
          ],
          "stateMutability": "view",
          "type": "function"
        },
        {
          "inputs": [],
          "name": "remainTokenAmount",
          "outputs": [
            {
              "internalType": "uint256",
              "name": "",
              "type": "uint256"
            }
          ],
          "stateMutability": "view",
          "type": "function"
        },
        {
          "inputs": [],
          "name": "renounceOwnership",
          "outputs": [],
          "stateMutability": "nonpayable",
          "type": "function"
        },
        {
          "inputs": [],
          "name": "reveal",
          "outputs": [],
          "stateMutability": "nonpayable",
          "type": "function"
        },
        {
          "inputs": [],
          "name": "revealed",
          "outputs": [
            {
              "internalType": "uint256",
              "name": "",
              "type": "uint256"
            }
          ],
          "stateMutability": "view",
          "type": "function"
        },
        {
          "inputs": [
            {
              "internalType": "address",
              "name": "from",
              "type": "address"
            },
            {
              "internalType": "address",
              "name": "to",
              "type": "address"
            },
            {
              "internalType": "uint256",
              "name": "tokenId",
              "type": "uint256"
            }
          ],
          "name": "safeTransferFrom",
          "outputs": [],
          "stateMutability": "nonpayable",
          "type": "function"
        },
        {
          "inputs": [
            {
              "internalType": "address",
              "name": "from",
              "type": "address"
            },
            {
              "internalType": "address",
              "name": "to",
              "type": "address"
            },
            {
              "internalType": "uint256",
              "name": "tokenId",
              "type": "uint256"
            },
            {
              "internalType": "bytes",
              "name": "_data",
              "type": "bytes"
            }
          ],
          "name": "safeTransferFrom",
          "outputs": [],
          "stateMutability": "nonpayable",
          "type": "function"
        },
        {
          "inputs": [
            {
              "internalType": "address",
              "name": "operator",
              "type": "address"
            },
            {
              "internalType": "bool",
              "name": "approved",
              "type": "bool"
            }
          ],
          "name": "setApprovalForAll",
          "outputs": [],
          "stateMutability": "nonpayable",
          "type": "function"
        },
        {
          "inputs": [
            {
              "internalType": "string",
              "name": "_newBaseExtension",
              "type": "string"
            }
          ],
          "name": "setBaseExtension",
          "outputs": [],
          "stateMutability": "nonpayable",
          "type": "function"
        },
        {
          "inputs": [
            {
              "internalType": "string",
              "name": "_newBaseURI",
              "type": "string"
            }
          ],
          "name": "setBaseURI",
          "outputs": [],
          "stateMutability": "nonpayable",
          "type": "function"
        },
        {
          "inputs": [
            {
              "internalType": "uint256",
              "name": "_newCost",
              "type": "uint256"
            }
          ],
          "name": "setCost",
          "outputs": [],
          "stateMutability": "nonpayable",
          "type": "function"
        },
        {
          "inputs": [
            {
              "internalType": "uint256",
              "name": "_mintState",
              "type": "uint256"
            }
          ],
          "name": "setMintState",
          "outputs": [],
          "stateMutability": "nonpayable",
          "type": "function"
        },
        {
          "inputs": [
            {
              "internalType": "uint256",
              "name": "_limit",
              "type": "uint256"
            }
          ],
          "name": "setNftPerAddressLimit",
          "outputs": [],
          "stateMutability": "nonpayable",
          "type": "function"
        },
        {
          "inputs": [
            {
              "internalType": "uint256",
              "name": "_state",
              "type": "uint256"
            }
          ],
          "name": "setOnlyWhitelisted",
          "outputs": [],
          "stateMutability": "nonpayable",
          "type": "function"
        },
        {
          "inputs": [
            {
              "internalType": "string",
              "name": "_RevealedURI",
              "type": "string"
            }
          ],
          "name": "setRevealedURI",
          "outputs": [],
          "stateMutability": "nonpayable",
          "type": "function"
        },
        {
          "inputs": [
            {
              "internalType": "uint256",
              "name": "_newmaxMintAmount",
              "type": "uint256"
            }
          ],
          "name": "setmaxMintAmount",
          "outputs": [],
          "stateMutability": "nonpayable",
          "type": "function"
        },
        {
          "inputs": [
            {
              "internalType": "bytes4",
              "name": "interfaceId",
              "type": "bytes4"
            }
          ],
          "name": "supportsInterface",
          "outputs": [
            {
              "internalType": "bool",
              "name": "",
              "type": "bool"
            }
          ],
          "stateMutability": "view",
          "type": "function"
        },
        {
          "inputs": [],
          "name": "symbol",
          "outputs": [
            {
              "internalType": "string",
              "name": "",
              "type": "string"
            }
          ],
          "stateMutability": "view",
          "type": "function"
        },
        {
          "inputs": [
            {
              "internalType": "uint256",
              "name": "index",
              "type": "uint256"
            }
          ],
          "name": "tokenByIndex",
          "outputs": [
            {
              "internalType": "uint256",
              "name": "",
              "type": "uint256"
            }
          ],
          "stateMutability": "view",
          "type": "function"
        },
        {
          "inputs": [
            {
              "internalType": "address",
              "name": "owner",
              "type": "address"
            },
            {
              "internalType": "uint256",
              "name": "index",
              "type": "uint256"
            }
          ],
          "name": "tokenOfOwnerByIndex",
          "outputs": [
            {
              "internalType": "uint256",
              "name": "",
              "type": "uint256"
            }
          ],
          "stateMutability": "view",
          "type": "function"
        },
        {
          "inputs": [
            {
              "internalType": "uint256",
              "name": "tokenId",
              "type": "uint256"
            }
          ],
          "name": "tokenURI",
          "outputs": [
            {
              "internalType": "string",
              "name": "",
              "type": "string"
            }
          ],
          "stateMutability": "view",
          "type": "function"
        },
        {
          "inputs": [],
          "name": "totalSupply",
          "outputs": [
            {
              "internalType": "uint256",
              "name": "",
              "type": "uint256"
            }
          ],
          "stateMutability": "view",
          "type": "function"
        },
        {
          "inputs": [
            {
              "internalType": "address",
              "name": "from",
              "type": "address"
            },
            {
              "internalType": "address",
              "name": "to",
              "type": "address"
            },
            {
              "internalType": "uint256",
              "name": "tokenId",
              "type": "uint256"
            }
          ],
          "name": "transferFrom",
          "outputs": [],
          "stateMutability": "nonpayable",
          "type": "function"
        },
        {
          "inputs": [
            {
              "internalType": "address",
              "name": "newOwner",
              "type": "address"
            }
          ],
          "name": "transferOwnership",
          "outputs": [],
          "stateMutability": "nonpayable",
          "type": "function"
        },
        {
          "inputs": [
            {
              "internalType": "address",
              "name": "_owner",
              "type": "address"
            }
          ],
          "name": "walletOfOwner",
          "outputs": [
            {
              "internalType": "uint256[]",
              "name": "",
              "type": "uint256[]"
            }
          ],
          "stateMutability": "view",
          "type": "function"
        },
        {
          "inputs": [
            {
              "internalType": "address[]",
              "name": "_users",
              "type": "address[]"
            }
          ],
          "name": "whitelistUsers",
          "outputs": [],
          "stateMutability": "nonpayable",
          "type": "function"
        },
        {
          "inputs": [
            {
              "internalType": "uint256",
              "name": "",
              "type": "uint256"
            }
          ],
          "name": "whitelistedAddresses",
          "outputs": [
            {
              "internalType": "address",
              "name": "",
              "type": "address"
            }
          ],
          "stateMutability": "view",
          "type": "function"
        },
        {
          "inputs": [],
          "name": "withdraw",
          "outputs": [],
          "stateMutability": "payable",
          "type": "function"
        }
      ],
      "devdoc": {
        "kind": "dev",
        "methods": {
          "approve(address,uint256)": {
            "details": "See {IERC721-approve}."
          },
          "balanceOf(address)": {
            "details": "See {IERC721-balanceOf}."
          },
          "getApproved(uint256)": {
            "details": "See {IERC721-getApproved}."
          },
          "isApprovedForAll(address,address)": {
            "details": "See {IERC721-isApprovedForAll}."
          },
          "name()": {
            "details": "See {IERC721Metadata-name}."
          },
          "owner()": {
            "details": "Returns the address of the current owner."
          },
          "ownerOf(uint256)": {
            "details": "See {IERC721-ownerOf}."
          },
          "renounceOwnership()": {
            "details": "Leaves the contract without owner. It will not be possible to call `onlyOwner` functions anymore. Can only be called by the current owner. NOTE: Renouncing ownership will leave the contract without an owner, thereby removing any functionality that is only available to the owner."
          },
          "safeTransferFrom(address,address,uint256)": {
            "details": "See {IERC721-safeTransferFrom}."
          },
          "safeTransferFrom(address,address,uint256,bytes)": {
            "details": "See {IERC721-safeTransferFrom}."
          },
          "setApprovalForAll(address,bool)": {
            "details": "See {IERC721-setApprovalForAll}."
          },
          "supportsInterface(bytes4)": {
            "details": "See {IERC165-supportsInterface}."
          },
          "symbol()": {
            "details": "See {IERC721Metadata-symbol}."
          },
          "tokenByIndex(uint256)": {
            "details": "See {IERC721Enumerable-tokenByIndex}."
          },
          "tokenOfOwnerByIndex(address,uint256)": {
            "details": "See {IERC721Enumerable-tokenOfOwnerByIndex}."
          },
          "tokenURI(uint256)": {
            "details": "See {IERC721Metadata-tokenURI}."
          },
          "totalSupply()": {
            "details": "See {IERC721Enumerable-totalSupply}."
          },
          "transferFrom(address,address,uint256)": {
            "details": "See {IERC721-transferFrom}."
          },
          "transferOwnership(address)": {
            "details": "Transfers ownership of the contract to a new account (`newOwner`). Can only be called by the current owner."
          }
        },
        "version": 1
      },
      "evm": {
        "bytecode": {
          "linkReferences": {},
          "object": "60c06040526005608081905264173539b7b760d91b60a09081526200002891600d919062000236565b506040805160208101918290526000908190526200004991600e9162000236565b506040518060800160405280604a815260200162003402604a913980516200007a91600f9160209091019062000236565b5067011bdca06d8dc000601355610840601481905560155560076016819055601755600160188190556000601955601a805461ffff19169055601b55600a54601c80546001600160a01b0319166001600160a01b03909216919091179055348015620000e557600080fd5b506040516200344c3803806200344c83398101604081905262000108916200038f565b8251839083906200012190600090602085019062000236565b5080516200013790600190602084019062000236565b505050620001546200014e6200016860201b60201c565b6200016c565b6200015f81620001be565b5050506200046f565b3390565b600a80546001600160a01b038381166001600160a01b0319831681179093556040519116919082907f8be0079c531659141344cd1fd0a4f28419497f9722a3daafe3b4186f6b6457e090600090a35050565b600a546001600160a01b031633146200021d5760405162461bcd60e51b815260206004820181905260248201527f4f776e61626c653a2063616c6c6572206973206e6f7420746865206f776e6572604482015260640160405180910390fd5b80516200023290600c90602084019062000236565b5050565b82805462000244906200041c565b90600052602060002090601f016020900481019282620002685760008555620002b3565b82601f106200028357805160ff1916838001178555620002b3565b82800160010185558215620002b3579182015b82811115620002b357825182559160200191906001019062000296565b50620002c1929150620002c5565b5090565b5b80821115620002c15760008155600101620002c6565b600082601f830112620002ed578081fd5b81516001600160401b03808211156200030a576200030a62000459565b604051601f8301601f19908116603f0116810190828211818310171562000335576200033562000459565b8160405283815260209250868385880101111562000351578485fd5b8491505b8382101562000374578582018301518183018401529082019062000355565b838211156200038557848385830101525b9695505050505050565b600080600060608486031215620003a4578283fd5b83516001600160401b0380821115620003bb578485fd5b620003c987838801620002dc565b94506020860151915080821115620003df578384fd5b620003ed87838801620002dc565b9350604086015191508082111562000403578283fd5b506200041286828701620002dc565b9150509250925092565b600181811c908216806200043157607f821691505b602082108114156200045357634e487b7160e01b600052602260045260246000fd5b50919050565b634e487b7160e01b600052604160045260246000fd5b612f83806200047f6000396000f3fe60806040526004361061038c5760003560e01c806370a08231116101dc578063ba4e5c4911610102578063cea7cf90116100a0578063da3ef23f1161006f578063da3ef23f14610998578063e985e9c5146109b8578063edec5f2714610a01578063f2fde38b14610a2157600080fd5b8063cea7cf901461092d578063d0eb26b01461094d578063d28d88521461096d578063d5abeb011461098257600080fd5b8063c5f9816b116100dc578063c5f9816b146108c2578063c6682862146108e2578063c7873b83146108f7578063c87b56dd1461090d57600080fd5b8063ba4e5c4914610876578063ba7d2c7614610896578063c051e38a146108ac57600080fd5b806395d89b411161017a578063aac8520a11610149578063aac8520a1461080d578063b09f12661461082c578063b187bd2614610841578063b88d4fde1461085657600080fd5b806395d89b41146107ad5780639c70b512146107c2578063a22cb465146107d8578063a475b5dd146107f857600080fd5b8063774a8835116101b6578063774a8835146107455780637f00c7a61461075a5780638da5cb5b1461077a5780639502743d1461079857600080fd5b806370a08231146106fb578063715018a61461071b578063743cc26a1461073057600080fd5b806323b872dd116102c1578063438b63001161025f57806355f804b31161022e57806355f804b31461068c5780635c975abb146106ac5780636352211e146106c65780636c0360eb146106e657600080fd5b8063438b63001461060957806344a0d68a146106365780634f6ccce714610656578063518302271461067657600080fd5b80633af32abf1161029b5780633af32abf146105ae5780633ccfd60b146105ce57806340c10f19146105d657806342842e0e146105e957600080fd5b806323b872dd1461054e5780632f745c591461056e578063326d43881461058e57600080fd5b8063095ea7b31161032e57806318160ddd1161030857806318160ddd146104e157806318cae269146104f65780631de18b3614610523578063239c70ae1461053857600080fd5b8063095ea7b31461048b5780630bb862d1146104ab57806313faede6146104cb57600080fd5b806306fdde031161036a57806306fdde031461040757806307c0af4714610429578063081812fc1461043e578063081c8c441461047657600080fd5b806301ffc9a71461039157806302329a29146103c657806302fcb7af146103e8575b600080fd5b34801561039d57600080fd5b506103b16103ac366004612af6565b610a41565b60405190151581526020015b60405180910390f35b3480156103d257600080fd5b506103e66103e1366004612adc565b610a6c565b005b3480156103f457600080fd5b506015545b6040519081526020016103bd565b34801561041357600080fd5b5061041c610ab2565b6040516103bd9190612cfb565b34801561043557600080fd5b506019546103f9565b34801561044a57600080fd5b5061045e610459366004612b74565b610b44565b6040516001600160a01b0390911681526020016103bd565b34801561048257600080fd5b5061041c610bd9565b34801561049757600080fd5b506103e66104a6366004612a43565b610c67565b3480156104b757600080fd5b506103e66104c6366004612b74565b610d7d565b3480156104d757600080fd5b506103f960135481565b3480156104ed57600080fd5b506008546103f9565b34801561050257600080fd5b506103f9610511366004612913565b601e6020526000908152604090205481565b34801561052f57600080fd5b5061041c610e8b565b34801561054457600080fd5b506103f960165481565b34801561055a57600080fd5b506103e6610569366004612966565b610e98565b34801561057a57600080fd5b506103f9610589366004612a43565b610ec9565b34801561059a57600080fd5b506103e66105a9366004612b2e565b610f5f565b3480156105ba57600080fd5b506103b16105c9366004612913565b610f9a565b6103e6611012565b6103e66105e4366004612a43565b6110ad565b3480156105f557600080fd5b506103e6610604366004612966565b611436565b34801561061557600080fd5b50610629610624366004612913565b611451565b6040516103bd9190612cb7565b34801561064257600080fd5b506103e6610651366004612b74565b61150f565b34801561066257600080fd5b506103f9610671366004612b74565b61153e565b34801561068257600080fd5b506103f960195481565b34801561069857600080fd5b506103e66106a7366004612b2e565b6115df565b3480156106b857600080fd5b50601a546103b19060ff1681565b3480156106d257600080fd5b5061045e6106e1366004612b74565b611620565b3480156106f257600080fd5b5061041c611697565b34801561070757600080fd5b506103f9610716366004612913565b6116a4565b34801561072757600080fd5b506103e661172b565b34801561073c57600080fd5b506103f9611761565b34801561075157600080fd5b50601b546103f9565b34801561076657600080fd5b506103e6610775366004612b74565b6117b3565b34801561078657600080fd5b50600a546001600160a01b031661045e565b3480156107a457600080fd5b5061041c6117e2565b3480156107b957600080fd5b5061041c6117ef565b3480156107ce57600080fd5b506103f960185481565b3480156107e457600080fd5b506103e66107f3366004612a1a565b6117fe565b34801561080457600080fd5b506103e6611809565b34801561081957600080fd5b50601a546103b190610100900460ff1681565b34801561083857600080fd5b5061041c61183a565b34801561084d57600080fd5b506103f9611847565b34801561086257600080fd5b506103e66108713660046129a1565b611866565b34801561088257600080fd5b5061045e610891366004612b74565b611898565b3480156108a257600080fd5b506103f960175481565b3480156108b857600080fd5b506103f9601b5481565b3480156108ce57600080fd5b506103e66108dd366004612b74565b6118c2565b3480156108ee57600080fd5b5061041c6118f1565b34801561090357600080fd5b506103f960155481565b34801561091957600080fd5b5061041c610928366004612b74565b6118fe565b34801561093957600080fd5b50601c5461045e906001600160a01b031681565b34801561095957600080fd5b506103e6610968366004612b74565b611b21565b34801561097957600080fd5b5061041c611b50565b34801561098e57600080fd5b506103f960145481565b3480156109a457600080fd5b506103e66109b3366004612b2e565b611b5d565b3480156109c457600080fd5b506103b16109d3366004612934565b6001600160a01b03918216600090815260056020908152604080832093909416825291909152205460ff1690565b348015610a0d57600080fd5b506103e6610a1c366004612a6c565b611b9a565b348015610a2d57600080fd5b506103e6610a3c366004612913565b611bdc565b60006001600160e01b0319821663780e9d6360e01b1480610a665750610a6682611c74565b92915050565b600a546001600160a01b03163314610a9f5760405162461bcd60e51b8152600401610a9690612d60565b60405180910390fd5b601a805460ff1916911515919091179055565b606060008054610ac190612e8b565b80601f0160208091040260200160405190810160405280929190818152602001828054610aed90612e8b565b8015610b3a5780601f10610b0f57610100808354040283529160200191610b3a565b820191906000526020600020905b815481529060010190602001808311610b1d57829003601f168201915b5050505050905090565b6000818152600260205260408120546001600160a01b0316610bbd5760405162461bcd60e51b815260206004820152602c60248201527f4552433732313a20617070726f76656420717565727920666f72206e6f6e657860448201526b34b9ba32b73a103a37b5b2b760a11b6064820152608401610a96565b506000908152600460205260409020546001600160a01b031690565b600f8054610be690612e8b565b80601f0160208091040260200160405190810160405280929190818152602001828054610c1290612e8b565b8015610c5f5780601f10610c3457610100808354040283529160200191610c5f565b820191906000526020600020905b815481529060010190602001808311610c4257829003601f168201915b505050505081565b6000610c7282611620565b9050806001600160a01b0316836001600160a01b03161415610ce05760405162461bcd60e51b815260206004820152602160248201527f4552433732313a20617070726f76616c20746f2063757272656e74206f776e656044820152603960f91b6064820152608401610a96565b336001600160a01b0382161480610cfc5750610cfc81336109d3565b610d6e5760405162461bcd60e51b815260206004820152603860248201527f4552433732313a20617070726f76652063616c6c6572206973206e6f74206f7760448201527f6e6572206e6f7220617070726f76656420666f7220616c6c00000000000000006064820152608401610a96565b610d788383611cc4565b505050565b600a546001600160a01b03163314610da75760405162461bcd60e51b8152600401610a9690612d60565b6001811015610df25760405162461bcd60e51b8152602060048201526017602482015276024b7383aba102bb937b7339036b4b73a1039ba30ba329604d1b6044820152606401610a96565b6002811115610e3d5760405162461bcd60e51b8152602060048201526017602482015276024b7383aba102bb937b7339036b4b73a1039ba30ba329604d1b6044820152606401610a96565b601b8190556001811415610e6257610e556007611b21565b610e5f60076117b3565b50565b601b5460021415610e5f57610e776064611b21565b610e8160646117b3565b610e5f60006118c2565b60128054610be690612e8b565b610ea23382611d32565b610ebe5760405162461bcd60e51b8152600401610a9690612d95565b610d78838383611e29565b6000610ed4836116a4565b8210610f365760405162461bcd60e51b815260206004820152602b60248201527f455243373231456e756d657261626c653a206f776e657220696e646578206f7560448201526a74206f6620626f756e647360a81b6064820152608401610a96565b506001600160a01b03919091166000908152600660209081526040808320938352929052205490565b600a546001600160a01b03163314610f895760405162461bcd60e51b8152600401610a9690612d60565b610f91611809565b610e5f816115df565b6000805b601d5481101561100957826001600160a01b0316601d8281548110610fd357634e487b7160e01b600052603260045260246000fd5b6000918252602090912001546001600160a01b03161415610ff75750600192915050565b8061100181612ec6565b915050610f9e565b50600092915050565b600a546001600160a01b0316331461103c5760405162461bcd60e51b8152600401610a9690612d60565b6000611050600a546001600160a01b031690565b6001600160a01b03164760405160006040518083038185875af1925050503d806000811461109a576040519150601f19603f3d011682016040523d82523d6000602084013e61109f565b606091505b5050905080610e5f57600080fd5b60006110b860085490565b601a5490915060ff16156111075760405162461bcd60e51b81526020600482015260166024820152751d1a194818dbdb9d1c9858dd081a5cc81c185d5cd95960521b6044820152606401610a96565b336111545760405162461bcd60e51b815260206004820152601b60248201527f526563697069656e742073686f756c642062652070726573656e7400000000006044820152606401610a96565b600082116111a45760405162461bcd60e51b815260206004820152601b60248201527f6e65656420746f206d696e74206174206c656173742031204e465400000000006044820152606401610a96565b6000601554116111ef5760405162461bcd60e51b81526020600482015260166024820152751b585e08139195081b1a5b5a5d08195e18d95959195960521b6044820152606401610a96565b600a546001600160a01b031633146113cb57601854600114156112ce5761121533610f9a565b6112615760405162461bcd60e51b815260206004820152601760248201527f75736572206973206e6f742077686974656c69737465640000000000000000006044820152606401610a96565b336000908152601e602052604090205460175461127e8483612de6565b11156112cc5760405162461bcd60e51b815260206004820152601c60248201527f6d6178204e4654207065722061646472657373206578636565646564000000006044820152606401610a96565b505b3461131b5760405162461bcd60e51b815260206004820181905260248201527f526f79616c74792076616c75652073686f756c6420626520706f7369746976656044820152606401610a96565b816013546113299190612e12565b34101561136d5760405162461bcd60e51b8152602060048201526012602482015271696e73756666696369656e742066756e647360701b6044820152606401610a96565b6016548211156113cb5760405162461bcd60e51b8152602060048201526024808201527f6d6178206d696e7420616d6f756e74207065722073657373696f6e20657863656044820152631959195960e21b6064820152608401610a96565b60015b828111611430576113e8846113e38385612de6565b611fd0565b336000908152601e6020526040812080549161140383612ec6565b90915550506015805490600061141883612e74565b9190505550808061142890612ec6565b9150506113ce565b50505050565b610d7883838360405180602001604052806000815250611866565b6060600061145e836116a4565b905060008167ffffffffffffffff81111561148957634e487b7160e01b600052604160045260246000fd5b6040519080825280602002602001820160405280156114b2578160200160208202803683370190505b50905060005b82811015611507576114ca8582610ec9565b8282815181106114ea57634e487b7160e01b600052603260045260246000fd5b6020908102919091010152806114ff81612ec6565b9150506114b8565b509392505050565b600a546001600160a01b031633146115395760405162461bcd60e51b8152600401610a9690612d60565b601355565b600061154960085490565b82106115ac5760405162461bcd60e51b815260206004820152602c60248201527f455243373231456e756d657261626c653a20676c6f62616c20696e646578206f60448201526b7574206f6620626f756e647360a01b6064820152608401610a96565b600882815481106115cd57634e487b7160e01b600052603260045260246000fd5b90600052602060002001549050919050565b600a546001600160a01b031633146116095760405162461bcd60e51b8152600401610a9690612d60565b805161161c90600c906020840190612767565b5050565b6000818152600260205260408120546001600160a01b031680610a665760405162461bcd60e51b815260206004820152602960248201527f4552433732313a206f776e657220717565727920666f72206e6f6e657869737460448201526832b73a103a37b5b2b760b91b6064820152608401610a96565b600c8054610be690612e8b565b60006001600160a01b03821661170f5760405162461bcd60e51b815260206004820152602a60248201527f4552433732313a2062616c616e636520717565727920666f7220746865207a65604482015269726f206164647265737360b01b6064820152608401610a96565b506001600160a01b031660009081526003602052604090205490565b600a546001600160a01b031633146117555760405162461bcd60e51b8152600401610a9690612d60565b61175f6000611fea565b565b600080611776600a546001600160a01b031690565b6001600160a01b0316336001600160a01b0316146117ab57336000908152601e6020526040902054601754610a669190612e31565b5060c8919050565b600a546001600160a01b031633146117dd5760405162461bcd60e51b8152600401610a9690612d60565b601655565b600e8054610be690612e8b565b606060018054610ac190612e8b565b61161c33838361203c565b600a546001600160a01b031633146118335760405162461bcd60e51b8152600401610a9690612d60565b6001601955565b60118054610be690612e8b565b601a5460009060ff161515600114156118605750600190565b50600090565b6118703383611d32565b61188c5760405162461bcd60e51b8152600401610a9690612d95565b6114308484848461210b565b601d81815481106118a857600080fd5b6000918252602090912001546001600160a01b0316905081565b600a546001600160a01b031633146118ec5760405162461bcd60e51b8152600401610a9690612d60565b601855565b600d8054610be690612e8b565b6000818152600260205260409020546060906001600160a01b031661197d5760405162461bcd60e51b815260206004820152602f60248201527f4552433732314d657461646174613a2055524920717565727920666f72206e6f60448201526e3732bc34b9ba32b73a103a37b5b2b760891b6064820152608401610a96565b6000828152600b60205260408120805461199690612e8b565b80601f01602080910402602001604051908101604052809291908181526020018280546119c290612e8b565b8015611a0f5780601f106119e457610100808354040283529160200191611a0f565b820191906000526020600020905b8154815290600101906020018083116119f257829003601f168201915b505050505090506000611a2061213e565b905060195460001415611ac157600f8054611a3a90612e8b565b80601f0160208091040260200160405190810160405280929190818152602001828054611a6690612e8b565b8015611ab35780601f10611a8857610100808354040283529160200191611ab3565b820191906000526020600020905b815481529060010190602001808311611a9657829003601f168201915b505050505092505050919050565b8051611ace575092915050565b815115611b03578082600d604051602001611aeb93929190612bb8565b60405160208183030381529060405292505050919050565b80611b0d8561214d565b600d604051602001611aeb93929190612bb8565b600a546001600160a01b03163314611b4b5760405162461bcd60e51b8152600401610a9690612d60565b601755565b60108054610be690612e8b565b600a546001600160a01b03163314611b875760405162461bcd60e51b8152600401610a9690612d60565b805161161c90600d906020840190612767565b600a546001600160a01b03163314611bc45760405162461bcd60e51b8152600401610a9690612d60565b611bd0601d60006127eb565b610d78601d8383612809565b600a546001600160a01b03163314611c065760405162461bcd60e51b8152600401610a9690612d60565b6001600160a01b038116611c6b5760405162461bcd60e51b815260206004820152602660248201527f4f776e61626c653a206e6577206f776e657220697320746865207a65726f206160448201526564647265737360d01b6064820152608401610a96565b610e5f81611fea565b60006001600160e01b031982166380ac58cd60e01b1480611ca557506001600160e01b03198216635b5e139f60e01b145b80610a6657506301ffc9a760e01b6001600160e01b0319831614610a66565b600081815260046020526040902080546001600160a01b0319166001600160a01b0384169081179091558190611cf982611620565b6001600160a01b03167f8c5be1e5ebec7d5bd14f71427d1e84f3dd0314c0f7b2291e5b200ac8c7c3b92560405160405180910390a45050565b6000818152600260205260408120546001600160a01b0316611dab5760405162461bcd60e51b815260206004820152602c60248201527f4552433732313a206f70657261746f7220717565727920666f72206e6f6e657860448201526b34b9ba32b73a103a37b5b2b760a11b6064820152608401610a96565b6000611db683611620565b9050806001600160a01b0316846001600160a01b03161480611df15750836001600160a01b0316611de684610b44565b6001600160a01b0316145b80611e2157506001600160a01b0380821660009081526005602090815260408083209388168352929052205460ff165b949350505050565b826001600160a01b0316611e3c82611620565b6001600160a01b031614611ea05760405162461bcd60e51b815260206004820152602560248201527f4552433732313a207472616e736665722066726f6d20696e636f72726563742060448201526437bbb732b960d91b6064820152608401610a96565b6001600160a01b038216611f025760405162461bcd60e51b8152602060048201526024808201527f4552433732313a207472616e7366657220746f20746865207a65726f206164646044820152637265737360e01b6064820152608401610a96565b611f0d838383612267565b611f18600082611cc4565b6001600160a01b0383166000908152600360205260408120805460019290611f41908490612e31565b90915550506001600160a01b0382166000908152600360205260408120805460019290611f6f908490612de6565b909155505060008181526002602052604080822080546001600160a01b0319166001600160a01b0386811691821790925591518493918716917fddf252ad1be2c89b69c2b068fc378daa952ba7f163c4a11628f55a4df523b3ef91a4505050565b61161c82826040518060200160405280600081525061231f565b600a80546001600160a01b038381166001600160a01b0319831681179093556040519116919082907f8be0079c531659141344cd1fd0a4f28419497f9722a3daafe3b4186f6b6457e090600090a35050565b816001600160a01b0316836001600160a01b0316141561209e5760405162461bcd60e51b815260206004820152601960248201527f4552433732313a20617070726f766520746f2063616c6c6572000000000000006044820152606401610a96565b6001600160a01b03838116600081815260056020908152604080832094871680845294825291829020805460ff191686151590811790915591519182527f17307eab39ab6107e8899845ad3d59bd9653f200f220920489ca2b5937696c31910160405180910390a3505050565b612116848484611e29565b61212284848484612352565b6114305760405162461bcd60e51b8152600401610a9690612d0e565b6060600c8054610ac190612e8b565b6060816121715750506040805180820190915260018152600360fc1b602082015290565b8160005b811561219b578061218581612ec6565b91506121949050600a83612dfe565b9150612175565b60008167ffffffffffffffff8111156121c457634e487b7160e01b600052604160045260246000fd5b6040519080825280601f01601f1916602001820160405280156121ee576020820181803683370190505b5090505b8415611e2157612203600183612e31565b9150612210600a86612ee1565b61221b906030612de6565b60f81b81838151811061223e57634e487b7160e01b600052603260045260246000fd5b60200101906001600160f81b031916908160001a905350612260600a86612dfe565b94506121f2565b6001600160a01b0383166122c2576122bd81600880546000838152600960205260408120829055600182018355919091527ff3f7a9fe364faab93b216da50a3214154f22a0a2b415b23a84c8169e8b636ee30155565b6122e5565b816001600160a01b0316836001600160a01b0316146122e5576122e5838261245f565b6001600160a01b0382166122fc57610d78816124fc565b826001600160a01b0316826001600160a01b031614610d7857610d7882826125d5565b6123298383612619565b6123366000848484612352565b610d785760405162461bcd60e51b8152600401610a9690612d0e565b60006001600160a01b0384163b1561245457604051630a85bd0160e11b81526001600160a01b0385169063150b7a0290612396903390899088908890600401612c7a565b602060405180830381600087803b1580156123b057600080fd5b505af19250505080156123e0575060408051601f3d908101601f191682019092526123dd91810190612b12565b60015b61243a573d80801561240e576040519150601f19603f3d011682016040523d82523d6000602084013e612413565b606091505b5080516124325760405162461bcd60e51b8152600401610a9690612d0e565b805181602001fd5b6001600160e01b031916630a85bd0160e11b149050611e21565b506001949350505050565b6000600161246c846116a4565b6124769190612e31565b6000838152600760205260409020549091508082146124c9576001600160a01b03841660009081526006602090815260408083208584528252808320548484528184208190558352600790915290208190555b5060009182526007602090815260408084208490556001600160a01b039094168352600681528383209183525290812055565b60085460009061250e90600190612e31565b6000838152600960205260408120546008805493945090928490811061254457634e487b7160e01b600052603260045260246000fd5b90600052602060002001549050806008838154811061257357634e487b7160e01b600052603260045260246000fd5b60009182526020808320909101929092558281526009909152604080822084905585825281205560088054806125b957634e487b7160e01b600052603160045260246000fd5b6001900381819060005260206000200160009055905550505050565b60006125e0836116a4565b6001600160a01b039093166000908152600660209081526040808320868452825280832085905593825260079052919091209190915550565b6001600160a01b03821661266f5760405162461bcd60e51b815260206004820181905260248201527f4552433732313a206d696e7420746f20746865207a65726f20616464726573736044820152606401610a96565b6000818152600260205260409020546001600160a01b0316156126d45760405162461bcd60e51b815260206004820152601c60248201527f4552433732313a20746f6b656e20616c7265616479206d696e746564000000006044820152606401610a96565b6126e060008383612267565b6001600160a01b0382166000908152600360205260408120805460019290612709908490612de6565b909155505060008181526002602052604080822080546001600160a01b0319166001600160a01b03861690811790915590518392907fddf252ad1be2c89b69c2b068fc378daa952ba7f163c4a11628f55a4df523b3ef908290a45050565b82805461277390612e8b565b90600052602060002090601f01602090048101928261279557600085556127db565b82601f106127ae57805160ff19168380011785556127db565b828001600101855582156127db579182015b828111156127db5782518255916020019190600101906127c0565b506127e792915061285c565b5090565b5080546000825590600052602060002090810190610e5f919061285c565b8280548282559060005260206000209081019282156127db579160200282015b828111156127db5781546001600160a01b0319166001600160a01b03843516178255602090920191600190910190612829565b5b808211156127e7576000815560010161285d565b600067ffffffffffffffff8084111561288c5761288c612f21565b604051601f8501601f19908116603f011681019082821181831017156128b4576128b4612f21565b816040528093508581528686860111156128cd57600080fd5b858560208301376000602087830101525050509392505050565b80356001600160a01b03811681146128fe57600080fd5b919050565b803580151581146128fe57600080fd5b600060208284031215612924578081fd5b61292d826128e7565b9392505050565b60008060408385031215612946578081fd5b61294f836128e7565b915061295d602084016128e7565b90509250929050565b60008060006060848603121561297a578081fd5b612983846128e7565b9250612991602085016128e7565b9150604084013590509250925092565b600080600080608085870312156129b6578081fd5b6129bf856128e7565b93506129cd602086016128e7565b925060408501359150606085013567ffffffffffffffff8111156129ef578182fd5b8501601f810187136129ff578182fd5b612a0e87823560208401612871565b91505092959194509250565b60008060408385031215612a2c578182fd5b612a35836128e7565b915061295d60208401612903565b60008060408385031215612a55578182fd5b612a5e836128e7565b946020939093013593505050565b60008060208385031215612a7e578182fd5b823567ffffffffffffffff80821115612a95578384fd5b818501915085601f830112612aa8578384fd5b813581811115612ab6578485fd5b8660208260051b8501011115612aca578485fd5b60209290920196919550909350505050565b600060208284031215612aed578081fd5b61292d82612903565b600060208284031215612b07578081fd5b813561292d81612f37565b600060208284031215612b23578081fd5b815161292d81612f37565b600060208284031215612b3f578081fd5b813567ffffffffffffffff811115612b55578182fd5b8201601f81018413612b65578182fd5b611e2184823560208401612871565b600060208284031215612b85578081fd5b5035919050565b60008151808452612ba4816020860160208601612e48565b601f01601f19169290920160200192915050565b600084516020612bcb8285838a01612e48565b855191840191612bde8184848a01612e48565b85549201918390600181811c9080831680612bfa57607f831692505b858310811415612c1857634e487b7160e01b88526022600452602488fd5b808015612c2c5760018114612c3d57612c69565b60ff19851688528388019550612c69565b60008b815260209020895b85811015612c615781548a820152908401908801612c48565b505083880195505b50939b9a5050505050505050505050565b6001600160a01b0385811682528416602082015260408101839052608060608201819052600090612cad90830184612b8c565b9695505050505050565b6020808252825182820181905260009190848201906040850190845b81811015612cef57835183529284019291840191600101612cd3565b50909695505050505050565b60208152600061292d6020830184612b8c565b60208082526032908201527f4552433732313a207472616e7366657220746f206e6f6e20455243373231526560408201527131b2b4bb32b91034b6b83632b6b2b73a32b960711b606082015260800190565b6020808252818101527f4f776e61626c653a2063616c6c6572206973206e6f7420746865206f776e6572604082015260600190565b60208082526031908201527f4552433732313a207472616e736665722063616c6c6572206973206e6f74206f6040820152701ddb995c881b9bdc88185c1c1c9bdd9959607a1b606082015260800190565b60008219821115612df957612df9612ef5565b500190565b600082612e0d57612e0d612f0b565b500490565b6000816000190483118215151615612e2c57612e2c612ef5565b500290565b600082821015612e4357612e43612ef5565b500390565b60005b83811015612e63578181015183820152602001612e4b565b838111156114305750506000910152565b600081612e8357612e83612ef5565b506000190190565b600181811c90821680612e9f57607f821691505b60208210811415612ec057634e487b7160e01b600052602260045260246000fd5b50919050565b6000600019821415612eda57612eda612ef5565b5060010190565b600082612ef057612ef0612f0b565b500690565b634e487b7160e01b600052601160045260246000fd5b634e487b7160e01b600052601260045260246000fd5b634e487b7160e01b600052604160045260246000fd5b6001600160e01b031981168114610e5f57600080fdfea264697066735822122080569a31b612528a63022a26e08c7e9e27ba433afd33776abff198136b7f499264736f6c6343000804003368747470733a2f2f697066732e696f2f697066732f516d6242474634735158445074584c5756626d34614d71374a36487279506f43424438777a557635774e563845312f312e6a736f6e",
          "opcodes": "PUSH1 0xC0 PUSH1 0x40 MSTORE PUSH1 0x5 PUSH1 0x80 DUP2 SWAP1 MSTORE PUSH5 0x173539B7B7 PUSH1 0xD9 SHL PUSH1 0xA0 SWAP1 DUP2 MSTORE PUSH3 0x28 SWAP2 PUSH1 0xD SWAP2 SWAP1 PUSH3 0x236 JUMP JUMPDEST POP PUSH1 0x40 DUP1 MLOAD PUSH1 0x20 DUP2 ADD SWAP2 DUP3 SWAP1 MSTORE PUSH1 0x0 SWAP1 DUP2 SWAP1 MSTORE PUSH3 0x49 SWAP2 PUSH1 0xE SWAP2 PUSH3 0x236 JUMP JUMPDEST POP PUSH1 0x40 MLOAD DUP1 PUSH1 0x80 ADD PUSH1 0x40 MSTORE DUP1 PUSH1 0x4A DUP2 MSTORE PUSH1 0x20 ADD PUSH3 0x3402 PUSH1 0x4A SWAP2 CODECOPY DUP1 MLOAD PUSH3 0x7A SWAP2 PUSH1 0xF SWAP2 PUSH1 0x20 SWAP1 SWAP2 ADD SWAP1 PUSH3 0x236 JUMP JUMPDEST POP PUSH8 0x11BDCA06D8DC000 PUSH1 0x13 SSTORE PUSH2 0x840 PUSH1 0x14 DUP2 SWAP1 SSTORE PUSH1 0x15 SSTORE PUSH1 0x7 PUSH1 0x16 DUP2 SWAP1 SSTORE PUSH1 0x17 SSTORE PUSH1 0x1 PUSH1 0x18 DUP2 SWAP1 SSTORE PUSH1 0x0 PUSH1 0x19 SSTORE PUSH1 0x1A DUP1 SLOAD PUSH2 0xFFFF NOT AND SWAP1 SSTORE PUSH1 0x1B SSTORE PUSH1 0xA SLOAD PUSH1 0x1C DUP1 SLOAD PUSH1 0x1 PUSH1 0x1 PUSH1 0xA0 SHL SUB NOT AND PUSH1 0x1 PUSH1 0x1 PUSH1 0xA0 SHL SUB SWAP1 SWAP3 AND SWAP2 SWAP1 SWAP2 OR SWAP1 SSTORE CALLVALUE DUP1 ISZERO PUSH3 0xE5 JUMPI PUSH1 0x0 DUP1 REVERT JUMPDEST POP PUSH1 0x40 MLOAD PUSH3 0x344C CODESIZE SUB DUP1 PUSH3 0x344C DUP4 CODECOPY DUP2 ADD PUSH1 0x40 DUP2 SWAP1 MSTORE PUSH3 0x108 SWAP2 PUSH3 0x38F JUMP JUMPDEST DUP3 MLOAD DUP4 SWAP1 DUP4 SWAP1 PUSH3 0x121 SWAP1 PUSH1 0x0 SWAP1 PUSH1 0x20 DUP6 ADD SWAP1 PUSH3 0x236 JUMP JUMPDEST POP DUP1 MLOAD PUSH3 0x137 SWAP1 PUSH1 0x1 SWAP1 PUSH1 0x20 DUP5 ADD SWAP1 PUSH3 0x236 JUMP JUMPDEST POP POP POP PUSH3 0x154 PUSH3 0x14E PUSH3 0x168 PUSH1 0x20 SHL PUSH1 0x20 SHR JUMP JUMPDEST PUSH3 0x16C JUMP JUMPDEST PUSH3 0x15F DUP2 PUSH3 0x1BE JUMP JUMPDEST POP POP POP PUSH3 0x46F JUMP JUMPDEST CALLER SWAP1 JUMP JUMPDEST PUSH1 0xA DUP1 SLOAD PUSH1 0x1 PUSH1 0x1 PUSH1 0xA0 SHL SUB DUP4 DUP2 AND PUSH1 0x1 PUSH1 0x1 PUSH1 0xA0 SHL SUB NOT DUP4 AND DUP2 OR SWAP1 SWAP4 SSTORE PUSH1 0x40 MLOAD SWAP2 AND SWAP2 SWAP1 DUP3 SWAP1 PUSH32 0x8BE0079C531659141344CD1FD0A4F28419497F9722A3DAAFE3B4186F6B6457E0 SWAP1 PUSH1 0x0 SWAP1 LOG3 POP POP JUMP JUMPDEST PUSH1 0xA SLOAD PUSH1 0x1 PUSH1 0x1 PUSH1 0xA0 SHL SUB AND CALLER EQ PUSH3 0x21D JUMPI PUSH1 0x40 MLOAD PUSH3 0x461BCD PUSH1 0xE5 SHL DUP2 MSTORE PUSH1 0x20 PUSH1 0x4 DUP3 ADD DUP2 SWAP1 MSTORE PUSH1 0x24 DUP3 ADD MSTORE PUSH32 0x4F776E61626C653A2063616C6C6572206973206E6F7420746865206F776E6572 PUSH1 0x44 DUP3 ADD MSTORE PUSH1 0x64 ADD PUSH1 0x40 MLOAD DUP1 SWAP2 SUB SWAP1 REVERT JUMPDEST DUP1 MLOAD PUSH3 0x232 SWAP1 PUSH1 0xC SWAP1 PUSH1 0x20 DUP5 ADD SWAP1 PUSH3 0x236 JUMP JUMPDEST POP POP JUMP JUMPDEST DUP3 DUP1 SLOAD PUSH3 0x244 SWAP1 PUSH3 0x41C JUMP JUMPDEST SWAP1 PUSH1 0x0 MSTORE PUSH1 0x20 PUSH1 0x0 KECCAK256 SWAP1 PUSH1 0x1F ADD PUSH1 0x20 SWAP1 DIV DUP2 ADD SWAP3 DUP3 PUSH3 0x268 JUMPI PUSH1 0x0 DUP6 SSTORE PUSH3 0x2B3 JUMP JUMPDEST DUP3 PUSH1 0x1F LT PUSH3 0x283 JUMPI DUP1 MLOAD PUSH1 0xFF NOT AND DUP4 DUP1 ADD OR DUP6 SSTORE PUSH3 0x2B3 JUMP JUMPDEST DUP3 DUP1 ADD PUSH1 0x1 ADD DUP6 SSTORE DUP3 ISZERO PUSH3 0x2B3 JUMPI SWAP2 DUP3 ADD JUMPDEST DUP3 DUP2 GT ISZERO PUSH3 0x2B3 JUMPI DUP3 MLOAD DUP3 SSTORE SWAP2 PUSH1 0x20 ADD SWAP2 SWAP1 PUSH1 0x1 ADD SWAP1 PUSH3 0x296 JUMP JUMPDEST POP PUSH3 0x2C1 SWAP3 SWAP2 POP PUSH3 0x2C5 JUMP JUMPDEST POP SWAP1 JUMP JUMPDEST JUMPDEST DUP1 DUP3 GT ISZERO PUSH3 0x2C1 JUMPI PUSH1 0x0 DUP2 SSTORE PUSH1 0x1 ADD PUSH3 0x2C6 JUMP JUMPDEST PUSH1 0x0 DUP3 PUSH1 0x1F DUP4 ADD SLT PUSH3 0x2ED JUMPI DUP1 DUP2 REVERT JUMPDEST DUP2 MLOAD PUSH1 0x1 PUSH1 0x1 PUSH1 0x40 SHL SUB DUP1 DUP3 GT ISZERO PUSH3 0x30A JUMPI PUSH3 0x30A PUSH3 0x459 JUMP JUMPDEST PUSH1 0x40 MLOAD PUSH1 0x1F DUP4 ADD PUSH1 0x1F NOT SWAP1 DUP2 AND PUSH1 0x3F ADD AND DUP2 ADD SWAP1 DUP3 DUP3 GT DUP2 DUP4 LT OR ISZERO PUSH3 0x335 JUMPI PUSH3 0x335 PUSH3 0x459 JUMP JUMPDEST DUP2 PUSH1 0x40 MSTORE DUP4 DUP2 MSTORE PUSH1 0x20 SWAP3 POP DUP7 DUP4 DUP6 DUP9 ADD ADD GT ISZERO PUSH3 0x351 JUMPI DUP5 DUP6 REVERT JUMPDEST DUP5 SWAP2 POP JUMPDEST DUP4 DUP3 LT ISZERO PUSH3 0x374 JUMPI DUP6 DUP3 ADD DUP4 ADD MLOAD DUP2 DUP4 ADD DUP5 ADD MSTORE SWAP1 DUP3 ADD SWAP1 PUSH3 0x355 JUMP JUMPDEST DUP4 DUP3 GT ISZERO PUSH3 0x385 JUMPI DUP5 DUP4 DUP6 DUP4 ADD ADD MSTORE JUMPDEST SWAP7 SWAP6 POP POP POP POP POP POP JUMP JUMPDEST PUSH1 0x0 DUP1 PUSH1 0x0 PUSH1 0x60 DUP5 DUP7 SUB SLT ISZERO PUSH3 0x3A4 JUMPI DUP3 DUP4 REVERT JUMPDEST DUP4 MLOAD PUSH1 0x1 PUSH1 0x1 PUSH1 0x40 SHL SUB DUP1 DUP3 GT ISZERO PUSH3 0x3BB JUMPI DUP5 DUP6 REVERT JUMPDEST PUSH3 0x3C9 DUP8 DUP4 DUP9 ADD PUSH3 0x2DC JUMP JUMPDEST SWAP5 POP PUSH1 0x20 DUP7 ADD MLOAD SWAP2 POP DUP1 DUP3 GT ISZERO PUSH3 0x3DF JUMPI DUP4 DUP5 REVERT JUMPDEST PUSH3 0x3ED DUP8 DUP4 DUP9 ADD PUSH3 0x2DC JUMP JUMPDEST SWAP4 POP PUSH1 0x40 DUP7 ADD MLOAD SWAP2 POP DUP1 DUP3 GT ISZERO PUSH3 0x403 JUMPI DUP3 DUP4 REVERT JUMPDEST POP PUSH3 0x412 DUP7 DUP3 DUP8 ADD PUSH3 0x2DC JUMP JUMPDEST SWAP2 POP POP SWAP3 POP SWAP3 POP SWAP3 JUMP JUMPDEST PUSH1 0x1 DUP2 DUP2 SHR SWAP1 DUP3 AND DUP1 PUSH3 0x431 JUMPI PUSH1 0x7F DUP3 AND SWAP2 POP JUMPDEST PUSH1 0x20 DUP3 LT DUP2 EQ ISZERO PUSH3 0x453 JUMPI PUSH4 0x4E487B71 PUSH1 0xE0 SHL PUSH1 0x0 MSTORE PUSH1 0x22 PUSH1 0x4 MSTORE PUSH1 0x24 PUSH1 0x0 REVERT JUMPDEST POP SWAP2 SWAP1 POP JUMP JUMPDEST PUSH4 0x4E487B71 PUSH1 0xE0 SHL PUSH1 0x0 MSTORE PUSH1 0x41 PUSH1 0x4 MSTORE PUSH1 0x24 PUSH1 0x0 REVERT JUMPDEST PUSH2 0x2F83 DUP1 PUSH3 0x47F PUSH1 0x0 CODECOPY PUSH1 0x0 RETURN INVALID PUSH1 0x80 PUSH1 0x40 MSTORE PUSH1 0x4 CALLDATASIZE LT PUSH2 0x38C JUMPI PUSH1 0x0 CALLDATALOAD PUSH1 0xE0 SHR DUP1 PUSH4 0x70A08231 GT PUSH2 0x1DC JUMPI DUP1 PUSH4 0xBA4E5C49 GT PUSH2 0x102 JUMPI DUP1 PUSH4 0xCEA7CF90 GT PUSH2 0xA0 JUMPI DUP1 PUSH4 0xDA3EF23F GT PUSH2 0x6F JUMPI DUP1 PUSH4 0xDA3EF23F EQ PUSH2 0x998 JUMPI DUP1 PUSH4 0xE985E9C5 EQ PUSH2 0x9B8 JUMPI DUP1 PUSH4 0xEDEC5F27 EQ PUSH2 0xA01 JUMPI DUP1 PUSH4 0xF2FDE38B EQ PUSH2 0xA21 JUMPI PUSH1 0x0 DUP1 REVERT JUMPDEST DUP1 PUSH4 0xCEA7CF90 EQ PUSH2 0x92D JUMPI DUP1 PUSH4 0xD0EB26B0 EQ PUSH2 0x94D JUMPI DUP1 PUSH4 0xD28D8852 EQ PUSH2 0x96D JUMPI DUP1 PUSH4 0xD5ABEB01 EQ PUSH2 0x982 JUMPI PUSH1 0x0 DUP1 REVERT JUMPDEST DUP1 PUSH4 0xC5F9816B GT PUSH2 0xDC JUMPI DUP1 PUSH4 0xC5F9816B EQ PUSH2 0x8C2 JUMPI DUP1 PUSH4 0xC6682862 EQ PUSH2 0x8E2 JUMPI DUP1 PUSH4 0xC7873B83 EQ PUSH2 0x8F7 JUMPI DUP1 PUSH4 0xC87B56DD EQ PUSH2 0x90D JUMPI PUSH1 0x0 DUP1 REVERT JUMPDEST DUP1 PUSH4 0xBA4E5C49 EQ PUSH2 0x876 JUMPI DUP1 PUSH4 0xBA7D2C76 EQ PUSH2 0x896 JUMPI DUP1 PUSH4 0xC051E38A EQ PUSH2 0x8AC JUMPI PUSH1 0x0 DUP1 REVERT JUMPDEST DUP1 PUSH4 0x95D89B41 GT PUSH2 0x17A JUMPI DUP1 PUSH4 0xAAC8520A GT PUSH2 0x149 JUMPI DUP1 PUSH4 0xAAC8520A EQ PUSH2 0x80D JUMPI DUP1 PUSH4 0xB09F1266 EQ PUSH2 0x82C JUMPI DUP1 PUSH4 0xB187BD26 EQ PUSH2 0x841 JUMPI DUP1 PUSH4 0xB88D4FDE EQ PUSH2 0x856 JUMPI PUSH1 0x0 DUP1 REVERT JUMPDEST DUP1 PUSH4 0x95D89B41 EQ PUSH2 0x7AD JUMPI DUP1 PUSH4 0x9C70B512 EQ PUSH2 0x7C2 JUMPI DUP1 PUSH4 0xA22CB465 EQ PUSH2 0x7D8 JUMPI DUP1 PUSH4 0xA475B5DD EQ PUSH2 0x7F8 JUMPI PUSH1 0x0 DUP1 REVERT JUMPDEST DUP1 PUSH4 0x774A8835 GT PUSH2 0x1B6 JUMPI DUP1 PUSH4 0x774A8835 EQ PUSH2 0x745 JUMPI DUP1 PUSH4 0x7F00C7A6 EQ PUSH2 0x75A JUMPI DUP1 PUSH4 0x8DA5CB5B EQ PUSH2 0x77A JUMPI DUP1 PUSH4 0x9502743D EQ PUSH2 0x798 JUMPI PUSH1 0x0 DUP1 REVERT JUMPDEST DUP1 PUSH4 0x70A08231 EQ PUSH2 0x6FB JUMPI DUP1 PUSH4 0x715018A6 EQ PUSH2 0x71B JUMPI DUP1 PUSH4 0x743CC26A EQ PUSH2 0x730 JUMPI PUSH1 0x0 DUP1 REVERT JUMPDEST DUP1 PUSH4 0x23B872DD GT PUSH2 0x2C1 JUMPI DUP1 PUSH4 0x438B6300 GT PUSH2 0x25F JUMPI DUP1 PUSH4 0x55F804B3 GT PUSH2 0x22E JUMPI DUP1 PUSH4 0x55F804B3 EQ PUSH2 0x68C JUMPI DUP1 PUSH4 0x5C975ABB EQ PUSH2 0x6AC JUMPI DUP1 PUSH4 0x6352211E EQ PUSH2 0x6C6 JUMPI DUP1 PUSH4 0x6C0360EB EQ PUSH2 0x6E6 JUMPI PUSH1 0x0 DUP1 REVERT JUMPDEST DUP1 PUSH4 0x438B6300 EQ PUSH2 0x609 JUMPI DUP1 PUSH4 0x44A0D68A EQ PUSH2 0x636 JUMPI DUP1 PUSH4 0x4F6CCCE7 EQ PUSH2 0x656 JUMPI DUP1 PUSH4 0x51830227 EQ PUSH2 0x676 JUMPI PUSH1 0x0 DUP1 REVERT JUMPDEST DUP1 PUSH4 0x3AF32ABF GT PUSH2 0x29B JUMPI DUP1 PUSH4 0x3AF32ABF EQ PUSH2 0x5AE JUMPI DUP1 PUSH4 0x3CCFD60B EQ PUSH2 0x5CE JUMPI DUP1 PUSH4 0x40C10F19 EQ PUSH2 0x5D6 JUMPI DUP1 PUSH4 0x42842E0E EQ PUSH2 0x5E9 JUMPI PUSH1 0x0 DUP1 REVERT JUMPDEST DUP1 PUSH4 0x23B872DD EQ PUSH2 0x54E JUMPI DUP1 PUSH4 0x2F745C59 EQ PUSH2 0x56E JUMPI DUP1 PUSH4 0x326D4388 EQ PUSH2 0x58E JUMPI PUSH1 0x0 DUP1 REVERT JUMPDEST DUP1 PUSH4 0x95EA7B3 GT PUSH2 0x32E JUMPI DUP1 PUSH4 0x18160DDD GT PUSH2 0x308 JUMPI DUP1 PUSH4 0x18160DDD EQ PUSH2 0x4E1 JUMPI DUP1 PUSH4 0x18CAE269 EQ PUSH2 0x4F6 JUMPI DUP1 PUSH4 0x1DE18B36 EQ PUSH2 0x523 JUMPI DUP1 PUSH4 0x239C70AE EQ PUSH2 0x538 JUMPI PUSH1 0x0 DUP1 REVERT JUMPDEST DUP1 PUSH4 0x95EA7B3 EQ PUSH2 0x48B JUMPI DUP1 PUSH4 0xBB862D1 EQ PUSH2 0x4AB JUMPI DUP1 PUSH4 0x13FAEDE6 EQ PUSH2 0x4CB JUMPI PUSH1 0x0 DUP1 REVERT JUMPDEST DUP1 PUSH4 0x6FDDE03 GT PUSH2 0x36A JUMPI DUP1 PUSH4 0x6FDDE03 EQ PUSH2 0x407 JUMPI DUP1 PUSH4 0x7C0AF47 EQ PUSH2 0x429 JUMPI DUP1 PUSH4 0x81812FC EQ PUSH2 0x43E JUMPI DUP1 PUSH4 0x81C8C44 EQ PUSH2 0x476 JUMPI PUSH1 0x0 DUP1 REVERT JUMPDEST DUP1 PUSH4 0x1FFC9A7 EQ PUSH2 0x391 JUMPI DUP1 PUSH4 0x2329A29 EQ PUSH2 0x3C6 JUMPI DUP1 PUSH4 0x2FCB7AF EQ PUSH2 0x3E8 JUMPI JUMPDEST PUSH1 0x0 DUP1 REVERT JUMPDEST CALLVALUE DUP1 ISZERO PUSH2 0x39D JUMPI PUSH1 0x0 DUP1 REVERT JUMPDEST POP PUSH2 0x3B1 PUSH2 0x3AC CALLDATASIZE PUSH1 0x4 PUSH2 0x2AF6 JUMP JUMPDEST PUSH2 0xA41 JUMP JUMPDEST PUSH1 0x40 MLOAD SWAP1 ISZERO ISZERO DUP2 MSTORE PUSH1 0x20 ADD JUMPDEST PUSH1 0x40 MLOAD DUP1 SWAP2 SUB SWAP1 RETURN JUMPDEST CALLVALUE DUP1 ISZERO PUSH2 0x3D2 JUMPI PUSH1 0x0 DUP1 REVERT JUMPDEST POP PUSH2 0x3E6 PUSH2 0x3E1 CALLDATASIZE PUSH1 0x4 PUSH2 0x2ADC JUMP JUMPDEST PUSH2 0xA6C JUMP JUMPDEST STOP JUMPDEST CALLVALUE DUP1 ISZERO PUSH2 0x3F4 JUMPI PUSH1 0x0 DUP1 REVERT JUMPDEST POP PUSH1 0x15 SLOAD JUMPDEST PUSH1 0x40 MLOAD SWAP1 DUP2 MSTORE PUSH1 0x20 ADD PUSH2 0x3BD JUMP JUMPDEST CALLVALUE DUP1 ISZERO PUSH2 0x413 JUMPI PUSH1 0x0 DUP1 REVERT JUMPDEST POP PUSH2 0x41C PUSH2 0xAB2 JUMP JUMPDEST PUSH1 0x40 MLOAD PUSH2 0x3BD SWAP2 SWAP1 PUSH2 0x2CFB JUMP JUMPDEST CALLVALUE DUP1 ISZERO PUSH2 0x435 JUMPI PUSH1 0x0 DUP1 REVERT JUMPDEST POP PUSH1 0x19 SLOAD PUSH2 0x3F9 JUMP JUMPDEST CALLVALUE DUP1 ISZERO PUSH2 0x44A JUMPI PUSH1 0x0 DUP1 REVERT JUMPDEST POP PUSH2 0x45E PUSH2 0x459 CALLDATASIZE PUSH1 0x4 PUSH2 0x2B74 JUMP JUMPDEST PUSH2 0xB44 JUMP JUMPDEST PUSH1 0x40 MLOAD PUSH1 0x1 PUSH1 0x1 PUSH1 0xA0 SHL SUB SWAP1 SWAP2 AND DUP2 MSTORE PUSH1 0x20 ADD PUSH2 0x3BD JUMP JUMPDEST CALLVALUE DUP1 ISZERO PUSH2 0x482 JUMPI PUSH1 0x0 DUP1 REVERT JUMPDEST POP PUSH2 0x41C PUSH2 0xBD9 JUMP JUMPDEST CALLVALUE DUP1 ISZERO PUSH2 0x497 JUMPI PUSH1 0x0 DUP1 REVERT JUMPDEST POP PUSH2 0x3E6 PUSH2 0x4A6 CALLDATASIZE PUSH1 0x4 PUSH2 0x2A43 JUMP JUMPDEST PUSH2 0xC67 JUMP JUMPDEST CALLVALUE DUP1 ISZERO PUSH2 0x4B7 JUMPI PUSH1 0x0 DUP1 REVERT JUMPDEST POP PUSH2 0x3E6 PUSH2 0x4C6 CALLDATASIZE PUSH1 0x4 PUSH2 0x2B74 JUMP JUMPDEST PUSH2 0xD7D JUMP JUMPDEST CALLVALUE DUP1 ISZERO PUSH2 0x4D7 JUMPI PUSH1 0x0 DUP1 REVERT JUMPDEST POP PUSH2 0x3F9 PUSH1 0x13 SLOAD DUP2 JUMP JUMPDEST CALLVALUE DUP1 ISZERO PUSH2 0x4ED JUMPI PUSH1 0x0 DUP1 REVERT JUMPDEST POP PUSH1 0x8 SLOAD PUSH2 0x3F9 JUMP JUMPDEST CALLVALUE DUP1 ISZERO PUSH2 0x502 JUMPI PUSH1 0x0 DUP1 REVERT JUMPDEST POP PUSH2 0x3F9 PUSH2 0x511 CALLDATASIZE PUSH1 0x4 PUSH2 0x2913 JUMP JUMPDEST PUSH1 0x1E PUSH1 0x20 MSTORE PUSH1 0x0 SWAP1 DUP2 MSTORE PUSH1 0x40 SWAP1 KECCAK256 SLOAD DUP2 JUMP JUMPDEST CALLVALUE DUP1 ISZERO PUSH2 0x52F JUMPI PUSH1 0x0 DUP1 REVERT JUMPDEST POP PUSH2 0x41C PUSH2 0xE8B JUMP JUMPDEST CALLVALUE DUP1 ISZERO PUSH2 0x544 JUMPI PUSH1 0x0 DUP1 REVERT JUMPDEST POP PUSH2 0x3F9 PUSH1 0x16 SLOAD DUP2 JUMP JUMPDEST CALLVALUE DUP1 ISZERO PUSH2 0x55A JUMPI PUSH1 0x0 DUP1 REVERT JUMPDEST POP PUSH2 0x3E6 PUSH2 0x569 CALLDATASIZE PUSH1 0x4 PUSH2 0x2966 JUMP JUMPDEST PUSH2 0xE98 JUMP JUMPDEST CALLVALUE DUP1 ISZERO PUSH2 0x57A JUMPI PUSH1 0x0 DUP1 REVERT JUMPDEST POP PUSH2 0x3F9 PUSH2 0x589 CALLDATASIZE PUSH1 0x4 PUSH2 0x2A43 JUMP JUMPDEST PUSH2 0xEC9 JUMP JUMPDEST CALLVALUE DUP1 ISZERO PUSH2 0x59A JUMPI PUSH1 0x0 DUP1 REVERT JUMPDEST POP PUSH2 0x3E6 PUSH2 0x5A9 CALLDATASIZE PUSH1 0x4 PUSH2 0x2B2E JUMP JUMPDEST PUSH2 0xF5F JUMP JUMPDEST CALLVALUE DUP1 ISZERO PUSH2 0x5BA JUMPI PUSH1 0x0 DUP1 REVERT JUMPDEST POP PUSH2 0x3B1 PUSH2 0x5C9 CALLDATASIZE PUSH1 0x4 PUSH2 0x2913 JUMP JUMPDEST PUSH2 0xF9A JUMP JUMPDEST PUSH2 0x3E6 PUSH2 0x1012 JUMP JUMPDEST PUSH2 0x3E6 PUSH2 0x5E4 CALLDATASIZE PUSH1 0x4 PUSH2 0x2A43 JUMP JUMPDEST PUSH2 0x10AD JUMP JUMPDEST CALLVALUE DUP1 ISZERO PUSH2 0x5F5 JUMPI PUSH1 0x0 DUP1 REVERT JUMPDEST POP PUSH2 0x3E6 PUSH2 0x604 CALLDATASIZE PUSH1 0x4 PUSH2 0x2966 JUMP JUMPDEST PUSH2 0x1436 JUMP JUMPDEST CALLVALUE DUP1 ISZERO PUSH2 0x615 JUMPI PUSH1 0x0 DUP1 REVERT JUMPDEST POP PUSH2 0x629 PUSH2 0x624 CALLDATASIZE PUSH1 0x4 PUSH2 0x2913 JUMP JUMPDEST PUSH2 0x1451 JUMP JUMPDEST PUSH1 0x40 MLOAD PUSH2 0x3BD SWAP2 SWAP1 PUSH2 0x2CB7 JUMP JUMPDEST CALLVALUE DUP1 ISZERO PUSH2 0x642 JUMPI PUSH1 0x0 DUP1 REVERT JUMPDEST POP PUSH2 0x3E6 PUSH2 0x651 CALLDATASIZE PUSH1 0x4 PUSH2 0x2B74 JUMP JUMPDEST PUSH2 0x150F JUMP JUMPDEST CALLVALUE DUP1 ISZERO PUSH2 0x662 JUMPI PUSH1 0x0 DUP1 REVERT JUMPDEST POP PUSH2 0x3F9 PUSH2 0x671 CALLDATASIZE PUSH1 0x4 PUSH2 0x2B74 JUMP JUMPDEST PUSH2 0x153E JUMP JUMPDEST CALLVALUE DUP1 ISZERO PUSH2 0x682 JUMPI PUSH1 0x0 DUP1 REVERT JUMPDEST POP PUSH2 0x3F9 PUSH1 0x19 SLOAD DUP2 JUMP JUMPDEST CALLVALUE DUP1 ISZERO PUSH2 0x698 JUMPI PUSH1 0x0 DUP1 REVERT JUMPDEST POP PUSH2 0x3E6 PUSH2 0x6A7 CALLDATASIZE PUSH1 0x4 PUSH2 0x2B2E JUMP JUMPDEST PUSH2 0x15DF JUMP JUMPDEST CALLVALUE DUP1 ISZERO PUSH2 0x6B8 JUMPI PUSH1 0x0 DUP1 REVERT JUMPDEST POP PUSH1 0x1A SLOAD PUSH2 0x3B1 SWAP1 PUSH1 0xFF AND DUP2 JUMP JUMPDEST CALLVALUE DUP1 ISZERO PUSH2 0x6D2 JUMPI PUSH1 0x0 DUP1 REVERT JUMPDEST POP PUSH2 0x45E PUSH2 0x6E1 CALLDATASIZE PUSH1 0x4 PUSH2 0x2B74 JUMP JUMPDEST PUSH2 0x1620 JUMP JUMPDEST CALLVALUE DUP1 ISZERO PUSH2 0x6F2 JUMPI PUSH1 0x0 DUP1 REVERT JUMPDEST POP PUSH2 0x41C PUSH2 0x1697 JUMP JUMPDEST CALLVALUE DUP1 ISZERO PUSH2 0x707 JUMPI PUSH1 0x0 DUP1 REVERT JUMPDEST POP PUSH2 0x3F9 PUSH2 0x716 CALLDATASIZE PUSH1 0x4 PUSH2 0x2913 JUMP JUMPDEST PUSH2 0x16A4 JUMP JUMPDEST CALLVALUE DUP1 ISZERO PUSH2 0x727 JUMPI PUSH1 0x0 DUP1 REVERT JUMPDEST POP PUSH2 0x3E6 PUSH2 0x172B JUMP JUMPDEST CALLVALUE DUP1 ISZERO PUSH2 0x73C JUMPI PUSH1 0x0 DUP1 REVERT JUMPDEST POP PUSH2 0x3F9 PUSH2 0x1761 JUMP JUMPDEST CALLVALUE DUP1 ISZERO PUSH2 0x751 JUMPI PUSH1 0x0 DUP1 REVERT JUMPDEST POP PUSH1 0x1B SLOAD PUSH2 0x3F9 JUMP JUMPDEST CALLVALUE DUP1 ISZERO PUSH2 0x766 JUMPI PUSH1 0x0 DUP1 REVERT JUMPDEST POP PUSH2 0x3E6 PUSH2 0x775 CALLDATASIZE PUSH1 0x4 PUSH2 0x2B74 JUMP JUMPDEST PUSH2 0x17B3 JUMP JUMPDEST CALLVALUE DUP1 ISZERO PUSH2 0x786 JUMPI PUSH1 0x0 DUP1 REVERT JUMPDEST POP PUSH1 0xA SLOAD PUSH1 0x1 PUSH1 0x1 PUSH1 0xA0 SHL SUB AND PUSH2 0x45E JUMP JUMPDEST CALLVALUE DUP1 ISZERO PUSH2 0x7A4 JUMPI PUSH1 0x0 DUP1 REVERT JUMPDEST POP PUSH2 0x41C PUSH2 0x17E2 JUMP JUMPDEST CALLVALUE DUP1 ISZERO PUSH2 0x7B9 JUMPI PUSH1 0x0 DUP1 REVERT JUMPDEST POP PUSH2 0x41C PUSH2 0x17EF JUMP JUMPDEST CALLVALUE DUP1 ISZERO PUSH2 0x7CE JUMPI PUSH1 0x0 DUP1 REVERT JUMPDEST POP PUSH2 0x3F9 PUSH1 0x18 SLOAD DUP2 JUMP JUMPDEST CALLVALUE DUP1 ISZERO PUSH2 0x7E4 JUMPI PUSH1 0x0 DUP1 REVERT JUMPDEST POP PUSH2 0x3E6 PUSH2 0x7F3 CALLDATASIZE PUSH1 0x4 PUSH2 0x2A1A JUMP JUMPDEST PUSH2 0x17FE JUMP JUMPDEST CALLVALUE DUP1 ISZERO PUSH2 0x804 JUMPI PUSH1 0x0 DUP1 REVERT JUMPDEST POP PUSH2 0x3E6 PUSH2 0x1809 JUMP JUMPDEST CALLVALUE DUP1 ISZERO PUSH2 0x819 JUMPI PUSH1 0x0 DUP1 REVERT JUMPDEST POP PUSH1 0x1A SLOAD PUSH2 0x3B1 SWAP1 PUSH2 0x100 SWAP1 DIV PUSH1 0xFF AND DUP2 JUMP JUMPDEST CALLVALUE DUP1 ISZERO PUSH2 0x838 JUMPI PUSH1 0x0 DUP1 REVERT JUMPDEST POP PUSH2 0x41C PUSH2 0x183A JUMP JUMPDEST CALLVALUE DUP1 ISZERO PUSH2 0x84D JUMPI PUSH1 0x0 DUP1 REVERT JUMPDEST POP PUSH2 0x3F9 PUSH2 0x1847 JUMP JUMPDEST CALLVALUE DUP1 ISZERO PUSH2 0x862 JUMPI PUSH1 0x0 DUP1 REVERT JUMPDEST POP PUSH2 0x3E6 PUSH2 0x871 CALLDATASIZE PUSH1 0x4 PUSH2 0x29A1 JUMP JUMPDEST PUSH2 0x1866 JUMP JUMPDEST CALLVALUE DUP1 ISZERO PUSH2 0x882 JUMPI PUSH1 0x0 DUP1 REVERT JUMPDEST POP PUSH2 0x45E PUSH2 0x891 CALLDATASIZE PUSH1 0x4 PUSH2 0x2B74 JUMP JUMPDEST PUSH2 0x1898 JUMP JUMPDEST CALLVALUE DUP1 ISZERO PUSH2 0x8A2 JUMPI PUSH1 0x0 DUP1 REVERT JUMPDEST POP PUSH2 0x3F9 PUSH1 0x17 SLOAD DUP2 JUMP JUMPDEST CALLVALUE DUP1 ISZERO PUSH2 0x8B8 JUMPI PUSH1 0x0 DUP1 REVERT JUMPDEST POP PUSH2 0x3F9 PUSH1 0x1B SLOAD DUP2 JUMP JUMPDEST CALLVALUE DUP1 ISZERO PUSH2 0x8CE JUMPI PUSH1 0x0 DUP1 REVERT JUMPDEST POP PUSH2 0x3E6 PUSH2 0x8DD CALLDATASIZE PUSH1 0x4 PUSH2 0x2B74 JUMP JUMPDEST PUSH2 0x18C2 JUMP JUMPDEST CALLVALUE DUP1 ISZERO PUSH2 0x8EE JUMPI PUSH1 0x0 DUP1 REVERT JUMPDEST POP PUSH2 0x41C PUSH2 0x18F1 JUMP JUMPDEST CALLVALUE DUP1 ISZERO PUSH2 0x903 JUMPI PUSH1 0x0 DUP1 REVERT JUMPDEST POP PUSH2 0x3F9 PUSH1 0x15 SLOAD DUP2 JUMP JUMPDEST CALLVALUE DUP1 ISZERO PUSH2 0x919 JUMPI PUSH1 0x0 DUP1 REVERT JUMPDEST POP PUSH2 0x41C PUSH2 0x928 CALLDATASIZE PUSH1 0x4 PUSH2 0x2B74 JUMP JUMPDEST PUSH2 0x18FE JUMP JUMPDEST CALLVALUE DUP1 ISZERO PUSH2 0x939 JUMPI PUSH1 0x0 DUP1 REVERT JUMPDEST POP PUSH1 0x1C SLOAD PUSH2 0x45E SWAP1 PUSH1 0x1 PUSH1 0x1 PUSH1 0xA0 SHL SUB AND DUP2 JUMP JUMPDEST CALLVALUE DUP1 ISZERO PUSH2 0x959 JUMPI PUSH1 0x0 DUP1 REVERT JUMPDEST POP PUSH2 0x3E6 PUSH2 0x968 CALLDATASIZE PUSH1 0x4 PUSH2 0x2B74 JUMP JUMPDEST PUSH2 0x1B21 JUMP JUMPDEST CALLVALUE DUP1 ISZERO PUSH2 0x979 JUMPI PUSH1 0x0 DUP1 REVERT JUMPDEST POP PUSH2 0x41C PUSH2 0x1B50 JUMP JUMPDEST CALLVALUE DUP1 ISZERO PUSH2 0x98E JUMPI PUSH1 0x0 DUP1 REVERT JUMPDEST POP PUSH2 0x3F9 PUSH1 0x14 SLOAD DUP2 JUMP JUMPDEST CALLVALUE DUP1 ISZERO PUSH2 0x9A4 JUMPI PUSH1 0x0 DUP1 REVERT JUMPDEST POP PUSH2 0x3E6 PUSH2 0x9B3 CALLDATASIZE PUSH1 0x4 PUSH2 0x2B2E JUMP JUMPDEST PUSH2 0x1B5D JUMP JUMPDEST CALLVALUE DUP1 ISZERO PUSH2 0x9C4 JUMPI PUSH1 0x0 DUP1 REVERT JUMPDEST POP PUSH2 0x3B1 PUSH2 0x9D3 CALLDATASIZE PUSH1 0x4 PUSH2 0x2934 JUMP JUMPDEST PUSH1 0x1 PUSH1 0x1 PUSH1 0xA0 SHL SUB SWAP2 DUP3 AND PUSH1 0x0 SWAP1 DUP2 MSTORE PUSH1 0x5 PUSH1 0x20 SWAP1 DUP2 MSTORE PUSH1 0x40 DUP1 DUP4 KECCAK256 SWAP4 SWAP1 SWAP5 AND DUP3 MSTORE SWAP2 SWAP1 SWAP2 MSTORE KECCAK256 SLOAD PUSH1 0xFF AND SWAP1 JUMP JUMPDEST CALLVALUE DUP1 ISZERO PUSH2 0xA0D JUMPI PUSH1 0x0 DUP1 REVERT JUMPDEST POP PUSH2 0x3E6 PUSH2 0xA1C CALLDATASIZE PUSH1 0x4 PUSH2 0x2A6C JUMP JUMPDEST PUSH2 0x1B9A JUMP JUMPDEST CALLVALUE DUP1 ISZERO PUSH2 0xA2D JUMPI PUSH1 0x0 DUP1 REVERT JUMPDEST POP PUSH2 0x3E6 PUSH2 0xA3C CALLDATASIZE PUSH1 0x4 PUSH2 0x2913 JUMP JUMPDEST PUSH2 0x1BDC JUMP JUMPDEST PUSH1 0x0 PUSH1 0x1 PUSH1 0x1 PUSH1 0xE0 SHL SUB NOT DUP3 AND PUSH4 0x780E9D63 PUSH1 0xE0 SHL EQ DUP1 PUSH2 0xA66 JUMPI POP PUSH2 0xA66 DUP3 PUSH2 0x1C74 JUMP JUMPDEST SWAP3 SWAP2 POP POP JUMP JUMPDEST PUSH1 0xA SLOAD PUSH1 0x1 PUSH1 0x1 PUSH1 0xA0 SHL SUB AND CALLER EQ PUSH2 0xA9F JUMPI PUSH1 0x40 MLOAD PUSH3 0x461BCD PUSH1 0xE5 SHL DUP2 MSTORE PUSH1 0x4 ADD PUSH2 0xA96 SWAP1 PUSH2 0x2D60 JUMP JUMPDEST PUSH1 0x40 MLOAD DUP1 SWAP2 SUB SWAP1 REVERT JUMPDEST PUSH1 0x1A DUP1 SLOAD PUSH1 0xFF NOT AND SWAP2 ISZERO ISZERO SWAP2 SWAP1 SWAP2 OR SWAP1 SSTORE JUMP JUMPDEST PUSH1 0x60 PUSH1 0x0 DUP1 SLOAD PUSH2 0xAC1 SWAP1 PUSH2 0x2E8B JUMP JUMPDEST DUP1 PUSH1 0x1F ADD PUSH1 0x20 DUP1 SWAP2 DIV MUL PUSH1 0x20 ADD PUSH1 0x40 MLOAD SWAP1 DUP2 ADD PUSH1 0x40 MSTORE DUP1 SWAP3 SWAP2 SWAP1 DUP2 DUP2 MSTORE PUSH1 0x20 ADD DUP3 DUP1 SLOAD PUSH2 0xAED SWAP1 PUSH2 0x2E8B JUMP JUMPDEST DUP1 ISZERO PUSH2 0xB3A JUMPI DUP1 PUSH1 0x1F LT PUSH2 0xB0F JUMPI PUSH2 0x100 DUP1 DUP4 SLOAD DIV MUL DUP4 MSTORE SWAP2 PUSH1 0x20 ADD SWAP2 PUSH2 0xB3A JUMP JUMPDEST DUP3 ADD SWAP2 SWAP1 PUSH1 0x0 MSTORE PUSH1 0x20 PUSH1 0x0 KECCAK256 SWAP1 JUMPDEST DUP2 SLOAD DUP2 MSTORE SWAP1 PUSH1 0x1 ADD SWAP1 PUSH1 0x20 ADD DUP1 DUP4 GT PUSH2 0xB1D JUMPI DUP3 SWAP1 SUB PUSH1 0x1F AND DUP3 ADD SWAP2 JUMPDEST POP POP POP POP POP SWAP1 POP SWAP1 JUMP JUMPDEST PUSH1 0x0 DUP2 DUP2 MSTORE PUSH1 0x2 PUSH1 0x20 MSTORE PUSH1 0x40 DUP2 KECCAK256 SLOAD PUSH1 0x1 PUSH1 0x1 PUSH1 0xA0 SHL SUB AND PUSH2 0xBBD JUMPI PUSH1 0x40 MLOAD PUSH3 0x461BCD PUSH1 0xE5 SHL DUP2 MSTORE PUSH1 0x20 PUSH1 0x4 DUP3 ADD MSTORE PUSH1 0x2C PUSH1 0x24 DUP3 ADD MSTORE PUSH32 0x4552433732313A20617070726F76656420717565727920666F72206E6F6E6578 PUSH1 0x44 DUP3 ADD MSTORE PUSH12 0x34B9BA32B73A103A37B5B2B7 PUSH1 0xA1 SHL PUSH1 0x64 DUP3 ADD MSTORE PUSH1 0x84 ADD PUSH2 0xA96 JUMP JUMPDEST POP PUSH1 0x0 SWAP1 DUP2 MSTORE PUSH1 0x4 PUSH1 0x20 MSTORE PUSH1 0x40 SWAP1 KECCAK256 SLOAD PUSH1 0x1 PUSH1 0x1 PUSH1 0xA0 SHL SUB AND SWAP1 JUMP JUMPDEST PUSH1 0xF DUP1 SLOAD PUSH2 0xBE6 SWAP1 PUSH2 0x2E8B JUMP JUMPDEST DUP1 PUSH1 0x1F ADD PUSH1 0x20 DUP1 SWAP2 DIV MUL PUSH1 0x20 ADD PUSH1 0x40 MLOAD SWAP1 DUP2 ADD PUSH1 0x40 MSTORE DUP1 SWAP3 SWAP2 SWAP1 DUP2 DUP2 MSTORE PUSH1 0x20 ADD DUP3 DUP1 SLOAD PUSH2 0xC12 SWAP1 PUSH2 0x2E8B JUMP JUMPDEST DUP1 ISZERO PUSH2 0xC5F JUMPI DUP1 PUSH1 0x1F LT PUSH2 0xC34 JUMPI PUSH2 0x100 DUP1 DUP4 SLOAD DIV MUL DUP4 MSTORE SWAP2 PUSH1 0x20 ADD SWAP2 PUSH2 0xC5F JUMP JUMPDEST DUP3 ADD SWAP2 SWAP1 PUSH1 0x0 MSTORE PUSH1 0x20 PUSH1 0x0 KECCAK256 SWAP1 JUMPDEST DUP2 SLOAD DUP2 MSTORE SWAP1 PUSH1 0x1 ADD SWAP1 PUSH1 0x20 ADD DUP1 DUP4 GT PUSH2 0xC42 JUMPI DUP3 SWAP1 SUB PUSH1 0x1F AND DUP3 ADD SWAP2 JUMPDEST POP POP POP POP POP DUP2 JUMP JUMPDEST PUSH1 0x0 PUSH2 0xC72 DUP3 PUSH2 0x1620 JUMP JUMPDEST SWAP1 POP DUP1 PUSH1 0x1 PUSH1 0x1 PUSH1 0xA0 SHL SUB AND DUP4 PUSH1 0x1 PUSH1 0x1 PUSH1 0xA0 SHL SUB AND EQ ISZERO PUSH2 0xCE0 JUMPI PUSH1 0x40 MLOAD PUSH3 0x461BCD PUSH1 0xE5 SHL DUP2 MSTORE PUSH1 0x20 PUSH1 0x4 DUP3 ADD MSTORE PUSH1 0x21 PUSH1 0x24 DUP3 ADD MSTORE PUSH32 0x4552433732313A20617070726F76616C20746F2063757272656E74206F776E65 PUSH1 0x44 DUP3 ADD MSTORE PUSH1 0x39 PUSH1 0xF9 SHL PUSH1 0x64 DUP3 ADD MSTORE PUSH1 0x84 ADD PUSH2 0xA96 JUMP JUMPDEST CALLER PUSH1 0x1 PUSH1 0x1 PUSH1 0xA0 SHL SUB DUP3 AND EQ DUP1 PUSH2 0xCFC JUMPI POP PUSH2 0xCFC DUP2 CALLER PUSH2 0x9D3 JUMP JUMPDEST PUSH2 0xD6E JUMPI PUSH1 0x40 MLOAD PUSH3 0x461BCD PUSH1 0xE5 SHL DUP2 MSTORE PUSH1 0x20 PUSH1 0x4 DUP3 ADD MSTORE PUSH1 0x38 PUSH1 0x24 DUP3 ADD MSTORE PUSH32 0x4552433732313A20617070726F76652063616C6C6572206973206E6F74206F77 PUSH1 0x44 DUP3 ADD MSTORE PUSH32 0x6E6572206E6F7220617070726F76656420666F7220616C6C0000000000000000 PUSH1 0x64 DUP3 ADD MSTORE PUSH1 0x84 ADD PUSH2 0xA96 JUMP JUMPDEST PUSH2 0xD78 DUP4 DUP4 PUSH2 0x1CC4 JUMP JUMPDEST POP POP POP JUMP JUMPDEST PUSH1 0xA SLOAD PUSH1 0x1 PUSH1 0x1 PUSH1 0xA0 SHL SUB AND CALLER EQ PUSH2 0xDA7 JUMPI PUSH1 0x40 MLOAD PUSH3 0x461BCD PUSH1 0xE5 SHL DUP2 MSTORE PUSH1 0x4 ADD PUSH2 0xA96 SWAP1 PUSH2 0x2D60 JUMP JUMPDEST PUSH1 0x1 DUP2 LT ISZERO PUSH2 0xDF2 JUMPI PUSH1 0x40 MLOAD PUSH3 0x461BCD PUSH1 0xE5 SHL DUP2 MSTORE PUSH1 0x20 PUSH1 0x4 DUP3 ADD MSTORE PUSH1 0x17 PUSH1 0x24 DUP3 ADD MSTORE PUSH23 0x24B7383ABA102BB937B7339036B4B73A1039BA30BA329 PUSH1 0x4D SHL PUSH1 0x44 DUP3 ADD MSTORE PUSH1 0x64 ADD PUSH2 0xA96 JUMP JUMPDEST PUSH1 0x2 DUP2 GT ISZERO PUSH2 0xE3D JUMPI PUSH1 0x40 MLOAD PUSH3 0x461BCD PUSH1 0xE5 SHL DUP2 MSTORE PUSH1 0x20 PUSH1 0x4 DUP3 ADD MSTORE PUSH1 0x17 PUSH1 0x24 DUP3 ADD MSTORE PUSH23 0x24B7383ABA102BB937B7339036B4B73A1039BA30BA329 PUSH1 0x4D SHL PUSH1 0x44 DUP3 ADD MSTORE PUSH1 0x64 ADD PUSH2 0xA96 JUMP JUMPDEST PUSH1 0x1B DUP2 SWAP1 SSTORE PUSH1 0x1 DUP2 EQ ISZERO PUSH2 0xE62 JUMPI PUSH2 0xE55 PUSH1 0x7 PUSH2 0x1B21 JUMP JUMPDEST PUSH2 0xE5F PUSH1 0x7 PUSH2 0x17B3 JUMP JUMPDEST POP JUMP JUMPDEST PUSH1 0x1B SLOAD PUSH1 0x2 EQ ISZERO PUSH2 0xE5F JUMPI PUSH2 0xE77 PUSH1 0x64 PUSH2 0x1B21 JUMP JUMPDEST PUSH2 0xE81 PUSH1 0x64 PUSH2 0x17B3 JUMP JUMPDEST PUSH2 0xE5F PUSH1 0x0 PUSH2 0x18C2 JUMP JUMPDEST PUSH1 0x12 DUP1 SLOAD PUSH2 0xBE6 SWAP1 PUSH2 0x2E8B JUMP JUMPDEST PUSH2 0xEA2 CALLER DUP3 PUSH2 0x1D32 JUMP JUMPDEST PUSH2 0xEBE JUMPI PUSH1 0x40 MLOAD PUSH3 0x461BCD PUSH1 0xE5 SHL DUP2 MSTORE PUSH1 0x4 ADD PUSH2 0xA96 SWAP1 PUSH2 0x2D95 JUMP JUMPDEST PUSH2 0xD78 DUP4 DUP4 DUP4 PUSH2 0x1E29 JUMP JUMPDEST PUSH1 0x0 PUSH2 0xED4 DUP4 PUSH2 0x16A4 JUMP JUMPDEST DUP3 LT PUSH2 0xF36 JUMPI PUSH1 0x40 MLOAD PUSH3 0x461BCD PUSH1 0xE5 SHL DUP2 MSTORE PUSH1 0x20 PUSH1 0x4 DUP3 ADD MSTORE PUSH1 0x2B PUSH1 0x24 DUP3 ADD MSTORE PUSH32 0x455243373231456E756D657261626C653A206F776E657220696E646578206F75 PUSH1 0x44 DUP3 ADD MSTORE PUSH11 0x74206F6620626F756E6473 PUSH1 0xA8 SHL PUSH1 0x64 DUP3 ADD MSTORE PUSH1 0x84 ADD PUSH2 0xA96 JUMP JUMPDEST POP PUSH1 0x1 PUSH1 0x1 PUSH1 0xA0 SHL SUB SWAP2 SWAP1 SWAP2 AND PUSH1 0x0 SWAP1 DUP2 MSTORE PUSH1 0x6 PUSH1 0x20 SWAP1 DUP2 MSTORE PUSH1 0x40 DUP1 DUP4 KECCAK256 SWAP4 DUP4 MSTORE SWAP3 SWAP1 MSTORE KECCAK256 SLOAD SWAP1 JUMP JUMPDEST PUSH1 0xA SLOAD PUSH1 0x1 PUSH1 0x1 PUSH1 0xA0 SHL SUB AND CALLER EQ PUSH2 0xF89 JUMPI PUSH1 0x40 MLOAD PUSH3 0x461BCD PUSH1 0xE5 SHL DUP2 MSTORE PUSH1 0x4 ADD PUSH2 0xA96 SWAP1 PUSH2 0x2D60 JUMP JUMPDEST PUSH2 0xF91 PUSH2 0x1809 JUMP JUMPDEST PUSH2 0xE5F DUP2 PUSH2 0x15DF JUMP JUMPDEST PUSH1 0x0 DUP1 JUMPDEST PUSH1 0x1D SLOAD DUP2 LT ISZERO PUSH2 0x1009 JUMPI DUP3 PUSH1 0x1 PUSH1 0x1 PUSH1 0xA0 SHL SUB AND PUSH1 0x1D DUP3 DUP2 SLOAD DUP2 LT PUSH2 0xFD3 JUMPI PUSH4 0x4E487B71 PUSH1 0xE0 SHL PUSH1 0x0 MSTORE PUSH1 0x32 PUSH1 0x4 MSTORE PUSH1 0x24 PUSH1 0x0 REVERT JUMPDEST PUSH1 0x0 SWAP2 DUP3 MSTORE PUSH1 0x20 SWAP1 SWAP2 KECCAK256 ADD SLOAD PUSH1 0x1 PUSH1 0x1 PUSH1 0xA0 SHL SUB AND EQ ISZERO PUSH2 0xFF7 JUMPI POP PUSH1 0x1 SWAP3 SWAP2 POP POP JUMP JUMPDEST DUP1 PUSH2 0x1001 DUP2 PUSH2 0x2EC6 JUMP JUMPDEST SWAP2 POP POP PUSH2 0xF9E JUMP JUMPDEST POP PUSH1 0x0 SWAP3 SWAP2 POP POP JUMP JUMPDEST PUSH1 0xA SLOAD PUSH1 0x1 PUSH1 0x1 PUSH1 0xA0 SHL SUB AND CALLER EQ PUSH2 0x103C JUMPI PUSH1 0x40 MLOAD PUSH3 0x461BCD PUSH1 0xE5 SHL DUP2 MSTORE PUSH1 0x4 ADD PUSH2 0xA96 SWAP1 PUSH2 0x2D60 JUMP JUMPDEST PUSH1 0x0 PUSH2 0x1050 PUSH1 0xA SLOAD PUSH1 0x1 PUSH1 0x1 PUSH1 0xA0 SHL SUB AND SWAP1 JUMP JUMPDEST PUSH1 0x1 PUSH1 0x1 PUSH1 0xA0 SHL SUB AND SELFBALANCE PUSH1 0x40 MLOAD PUSH1 0x0 PUSH1 0x40 MLOAD DUP1 DUP4 SUB DUP2 DUP6 DUP8 GAS CALL SWAP3 POP POP POP RETURNDATASIZE DUP1 PUSH1 0x0 DUP2 EQ PUSH2 0x109A JUMPI PUSH1 0x40 MLOAD SWAP2 POP PUSH1 0x1F NOT PUSH1 0x3F RETURNDATASIZE ADD AND DUP3 ADD PUSH1 0x40 MSTORE RETURNDATASIZE DUP3 MSTORE RETURNDATASIZE PUSH1 0x0 PUSH1 0x20 DUP5 ADD RETURNDATACOPY PUSH2 0x109F JUMP JUMPDEST PUSH1 0x60 SWAP2 POP JUMPDEST POP POP SWAP1 POP DUP1 PUSH2 0xE5F JUMPI PUSH1 0x0 DUP1 REVERT JUMPDEST PUSH1 0x0 PUSH2 0x10B8 PUSH1 0x8 SLOAD SWAP1 JUMP JUMPDEST PUSH1 0x1A SLOAD SWAP1 SWAP2 POP PUSH1 0xFF AND ISZERO PUSH2 0x1107 JUMPI PUSH1 0x40 MLOAD PUSH3 0x461BCD PUSH1 0xE5 SHL DUP2 MSTORE PUSH1 0x20 PUSH1 0x4 DUP3 ADD MSTORE PUSH1 0x16 PUSH1 0x24 DUP3 ADD MSTORE PUSH22 0x1D1A194818DBDB9D1C9858DD081A5CC81C185D5CD959 PUSH1 0x52 SHL PUSH1 0x44 DUP3 ADD MSTORE PUSH1 0x64 ADD PUSH2 0xA96 JUMP JUMPDEST CALLER PUSH2 0x1154 JUMPI PUSH1 0x40 MLOAD PUSH3 0x461BCD PUSH1 0xE5 SHL DUP2 MSTORE PUSH1 0x20 PUSH1 0x4 DUP3 ADD MSTORE PUSH1 0x1B PUSH1 0x24 DUP3 ADD MSTORE PUSH32 0x526563697069656E742073686F756C642062652070726573656E740000000000 PUSH1 0x44 DUP3 ADD MSTORE PUSH1 0x64 ADD PUSH2 0xA96 JUMP JUMPDEST PUSH1 0x0 DUP3 GT PUSH2 0x11A4 JUMPI PUSH1 0x40 MLOAD PUSH3 0x461BCD PUSH1 0xE5 SHL DUP2 MSTORE PUSH1 0x20 PUSH1 0x4 DUP3 ADD MSTORE PUSH1 0x1B PUSH1 0x24 DUP3 ADD MSTORE PUSH32 0x6E65656420746F206D696E74206174206C656173742031204E46540000000000 PUSH1 0x44 DUP3 ADD MSTORE PUSH1 0x64 ADD PUSH2 0xA96 JUMP JUMPDEST PUSH1 0x0 PUSH1 0x15 SLOAD GT PUSH2 0x11EF JUMPI PUSH1 0x40 MLOAD PUSH3 0x461BCD PUSH1 0xE5 SHL DUP2 MSTORE PUSH1 0x20 PUSH1 0x4 DUP3 ADD MSTORE PUSH1 0x16 PUSH1 0x24 DUP3 ADD MSTORE PUSH22 0x1B585E08139195081B1A5B5A5D08195E18D959591959 PUSH1 0x52 SHL PUSH1 0x44 DUP3 ADD MSTORE PUSH1 0x64 ADD PUSH2 0xA96 JUMP JUMPDEST PUSH1 0xA SLOAD PUSH1 0x1 PUSH1 0x1 PUSH1 0xA0 SHL SUB AND CALLER EQ PUSH2 0x13CB JUMPI PUSH1 0x18 SLOAD PUSH1 0x1 EQ ISZERO PUSH2 0x12CE JUMPI PUSH2 0x1215 CALLER PUSH2 0xF9A JUMP JUMPDEST PUSH2 0x1261 JUMPI PUSH1 0x40 MLOAD PUSH3 0x461BCD PUSH1 0xE5 SHL DUP2 MSTORE PUSH1 0x20 PUSH1 0x4 DUP3 ADD MSTORE PUSH1 0x17 PUSH1 0x24 DUP3 ADD MSTORE PUSH32 0x75736572206973206E6F742077686974656C6973746564000000000000000000 PUSH1 0x44 DUP3 ADD MSTORE PUSH1 0x64 ADD PUSH2 0xA96 JUMP JUMPDEST CALLER PUSH1 0x0 SWAP1 DUP2 MSTORE PUSH1 0x1E PUSH1 0x20 MSTORE PUSH1 0x40 SWAP1 KECCAK256 SLOAD PUSH1 0x17 SLOAD PUSH2 0x127E DUP5 DUP4 PUSH2 0x2DE6 JUMP JUMPDEST GT ISZERO PUSH2 0x12CC JUMPI PUSH1 0x40 MLOAD PUSH3 0x461BCD PUSH1 0xE5 SHL DUP2 MSTORE PUSH1 0x20 PUSH1 0x4 DUP3 ADD MSTORE PUSH1 0x1C PUSH1 0x24 DUP3 ADD MSTORE PUSH32 0x6D6178204E465420706572206164647265737320657863656564656400000000 PUSH1 0x44 DUP3 ADD MSTORE PUSH1 0x64 ADD PUSH2 0xA96 JUMP JUMPDEST POP JUMPDEST CALLVALUE PUSH2 0x131B JUMPI PUSH1 0x40 MLOAD PUSH3 0x461BCD PUSH1 0xE5 SHL DUP2 MSTORE PUSH1 0x20 PUSH1 0x4 DUP3 ADD DUP2 SWAP1 MSTORE PUSH1 0x24 DUP3 ADD MSTORE PUSH32 0x526F79616C74792076616C75652073686F756C6420626520706F736974697665 PUSH1 0x44 DUP3 ADD MSTORE PUSH1 0x64 ADD PUSH2 0xA96 JUMP JUMPDEST DUP2 PUSH1 0x13 SLOAD PUSH2 0x1329 SWAP2 SWAP1 PUSH2 0x2E12 JUMP JUMPDEST CALLVALUE LT ISZERO PUSH2 0x136D JUMPI PUSH1 0x40 MLOAD PUSH3 0x461BCD PUSH1 0xE5 SHL DUP2 MSTORE PUSH1 0x20 PUSH1 0x4 DUP3 ADD MSTORE PUSH1 0x12 PUSH1 0x24 DUP3 ADD MSTORE PUSH18 0x696E73756666696369656E742066756E6473 PUSH1 0x70 SHL PUSH1 0x44 DUP3 ADD MSTORE PUSH1 0x64 ADD PUSH2 0xA96 JUMP JUMPDEST PUSH1 0x16 SLOAD DUP3 GT ISZERO PUSH2 0x13CB JUMPI PUSH1 0x40 MLOAD PUSH3 0x461BCD PUSH1 0xE5 SHL DUP2 MSTORE PUSH1 0x20 PUSH1 0x4 DUP3 ADD MSTORE PUSH1 0x24 DUP1 DUP3 ADD MSTORE PUSH32 0x6D6178206D696E7420616D6F756E74207065722073657373696F6E2065786365 PUSH1 0x44 DUP3 ADD MSTORE PUSH4 0x19591959 PUSH1 0xE2 SHL PUSH1 0x64 DUP3 ADD MSTORE PUSH1 0x84 ADD PUSH2 0xA96 JUMP JUMPDEST PUSH1 0x1 JUMPDEST DUP3 DUP2 GT PUSH2 0x1430 JUMPI PUSH2 0x13E8 DUP5 PUSH2 0x13E3 DUP4 DUP6 PUSH2 0x2DE6 JUMP JUMPDEST PUSH2 0x1FD0 JUMP JUMPDEST CALLER PUSH1 0x0 SWAP1 DUP2 MSTORE PUSH1 0x1E PUSH1 0x20 MSTORE PUSH1 0x40 DUP2 KECCAK256 DUP1 SLOAD SWAP2 PUSH2 0x1403 DUP4 PUSH2 0x2EC6 JUMP JUMPDEST SWAP1 SWAP2 SSTORE POP POP PUSH1 0x15 DUP1 SLOAD SWAP1 PUSH1 0x0 PUSH2 0x1418 DUP4 PUSH2 0x2E74 JUMP JUMPDEST SWAP2 SWAP1 POP SSTORE POP DUP1 DUP1 PUSH2 0x1428 SWAP1 PUSH2 0x2EC6 JUMP JUMPDEST SWAP2 POP POP PUSH2 0x13CE JUMP JUMPDEST POP POP POP POP JUMP JUMPDEST PUSH2 0xD78 DUP4 DUP4 DUP4 PUSH1 0x40 MLOAD DUP1 PUSH1 0x20 ADD PUSH1 0x40 MSTORE DUP1 PUSH1 0x0 DUP2 MSTORE POP PUSH2 0x1866 JUMP JUMPDEST PUSH1 0x60 PUSH1 0x0 PUSH2 0x145E DUP4 PUSH2 0x16A4 JUMP JUMPDEST SWAP1 POP PUSH1 0x0 DUP2 PUSH8 0xFFFFFFFFFFFFFFFF DUP2 GT ISZERO PUSH2 0x1489 JUMPI PUSH4 0x4E487B71 PUSH1 0xE0 SHL PUSH1 0x0 MSTORE PUSH1 0x41 PUSH1 0x4 MSTORE PUSH1 0x24 PUSH1 0x0 REVERT JUMPDEST PUSH1 0x40 MLOAD SWAP1 DUP1 DUP3 MSTORE DUP1 PUSH1 0x20 MUL PUSH1 0x20 ADD DUP3 ADD PUSH1 0x40 MSTORE DUP1 ISZERO PUSH2 0x14B2 JUMPI DUP2 PUSH1 0x20 ADD PUSH1 0x20 DUP3 MUL DUP1 CALLDATASIZE DUP4 CALLDATACOPY ADD SWAP1 POP JUMPDEST POP SWAP1 POP PUSH1 0x0 JUMPDEST DUP3 DUP2 LT ISZERO PUSH2 0x1507 JUMPI PUSH2 0x14CA DUP6 DUP3 PUSH2 0xEC9 JUMP JUMPDEST DUP3 DUP3 DUP2 MLOAD DUP2 LT PUSH2 0x14EA JUMPI PUSH4 0x4E487B71 PUSH1 0xE0 SHL PUSH1 0x0 MSTORE PUSH1 0x32 PUSH1 0x4 MSTORE PUSH1 0x24 PUSH1 0x0 REVERT JUMPDEST PUSH1 0x20 SWAP1 DUP2 MUL SWAP2 SWAP1 SWAP2 ADD ADD MSTORE DUP1 PUSH2 0x14FF DUP2 PUSH2 0x2EC6 JUMP JUMPDEST SWAP2 POP POP PUSH2 0x14B8 JUMP JUMPDEST POP SWAP4 SWAP3 POP POP POP JUMP JUMPDEST PUSH1 0xA SLOAD PUSH1 0x1 PUSH1 0x1 PUSH1 0xA0 SHL SUB AND CALLER EQ PUSH2 0x1539 JUMPI PUSH1 0x40 MLOAD PUSH3 0x461BCD PUSH1 0xE5 SHL DUP2 MSTORE PUSH1 0x4 ADD PUSH2 0xA96 SWAP1 PUSH2 0x2D60 JUMP JUMPDEST PUSH1 0x13 SSTORE JUMP JUMPDEST PUSH1 0x0 PUSH2 0x1549 PUSH1 0x8 SLOAD SWAP1 JUMP JUMPDEST DUP3 LT PUSH2 0x15AC JUMPI PUSH1 0x40 MLOAD PUSH3 0x461BCD PUSH1 0xE5 SHL DUP2 MSTORE PUSH1 0x20 PUSH1 0x4 DUP3 ADD MSTORE PUSH1 0x2C PUSH1 0x24 DUP3 ADD MSTORE PUSH32 0x455243373231456E756D657261626C653A20676C6F62616C20696E646578206F PUSH1 0x44 DUP3 ADD MSTORE PUSH12 0x7574206F6620626F756E6473 PUSH1 0xA0 SHL PUSH1 0x64 DUP3 ADD MSTORE PUSH1 0x84 ADD PUSH2 0xA96 JUMP JUMPDEST PUSH1 0x8 DUP3 DUP2 SLOAD DUP2 LT PUSH2 0x15CD JUMPI PUSH4 0x4E487B71 PUSH1 0xE0 SHL PUSH1 0x0 MSTORE PUSH1 0x32 PUSH1 0x4 MSTORE PUSH1 0x24 PUSH1 0x0 REVERT JUMPDEST SWAP1 PUSH1 0x0 MSTORE PUSH1 0x20 PUSH1 0x0 KECCAK256 ADD SLOAD SWAP1 POP SWAP2 SWAP1 POP JUMP JUMPDEST PUSH1 0xA SLOAD PUSH1 0x1 PUSH1 0x1 PUSH1 0xA0 SHL SUB AND CALLER EQ PUSH2 0x1609 JUMPI PUSH1 0x40 MLOAD PUSH3 0x461BCD PUSH1 0xE5 SHL DUP2 MSTORE PUSH1 0x4 ADD PUSH2 0xA96 SWAP1 PUSH2 0x2D60 JUMP JUMPDEST DUP1 MLOAD PUSH2 0x161C SWAP1 PUSH1 0xC SWAP1 PUSH1 0x20 DUP5 ADD SWAP1 PUSH2 0x2767 JUMP JUMPDEST POP POP JUMP JUMPDEST PUSH1 0x0 DUP2 DUP2 MSTORE PUSH1 0x2 PUSH1 0x20 MSTORE PUSH1 0x40 DUP2 KECCAK256 SLOAD PUSH1 0x1 PUSH1 0x1 PUSH1 0xA0 SHL SUB AND DUP1 PUSH2 0xA66 JUMPI PUSH1 0x40 MLOAD PUSH3 0x461BCD PUSH1 0xE5 SHL DUP2 MSTORE PUSH1 0x20 PUSH1 0x4 DUP3 ADD MSTORE PUSH1 0x29 PUSH1 0x24 DUP3 ADD MSTORE PUSH32 0x4552433732313A206F776E657220717565727920666F72206E6F6E6578697374 PUSH1 0x44 DUP3 ADD MSTORE PUSH9 0x32B73A103A37B5B2B7 PUSH1 0xB9 SHL PUSH1 0x64 DUP3 ADD MSTORE PUSH1 0x84 ADD PUSH2 0xA96 JUMP JUMPDEST PUSH1 0xC DUP1 SLOAD PUSH2 0xBE6 SWAP1 PUSH2 0x2E8B JUMP JUMPDEST PUSH1 0x0 PUSH1 0x1 PUSH1 0x1 PUSH1 0xA0 SHL SUB DUP3 AND PUSH2 0x170F JUMPI PUSH1 0x40 MLOAD PUSH3 0x461BCD PUSH1 0xE5 SHL DUP2 MSTORE PUSH1 0x20 PUSH1 0x4 DUP3 ADD MSTORE PUSH1 0x2A PUSH1 0x24 DUP3 ADD MSTORE PUSH32 0x4552433732313A2062616C616E636520717565727920666F7220746865207A65 PUSH1 0x44 DUP3 ADD MSTORE PUSH10 0x726F2061646472657373 PUSH1 0xB0 SHL PUSH1 0x64 DUP3 ADD MSTORE PUSH1 0x84 ADD PUSH2 0xA96 JUMP JUMPDEST POP PUSH1 0x1 PUSH1 0x1 PUSH1 0xA0 SHL SUB AND PUSH1 0x0 SWAP1 DUP2 MSTORE PUSH1 0x3 PUSH1 0x20 MSTORE PUSH1 0x40 SWAP1 KECCAK256 SLOAD SWAP1 JUMP JUMPDEST PUSH1 0xA SLOAD PUSH1 0x1 PUSH1 0x1 PUSH1 0xA0 SHL SUB AND CALLER EQ PUSH2 0x1755 JUMPI PUSH1 0x40 MLOAD PUSH3 0x461BCD PUSH1 0xE5 SHL DUP2 MSTORE PUSH1 0x4 ADD PUSH2 0xA96 SWAP1 PUSH2 0x2D60 JUMP JUMPDEST PUSH2 0x175F PUSH1 0x0 PUSH2 0x1FEA JUMP JUMPDEST JUMP JUMPDEST PUSH1 0x0 DUP1 PUSH2 0x1776 PUSH1 0xA SLOAD PUSH1 0x1 PUSH1 0x1 PUSH1 0xA0 SHL SUB AND SWAP1 JUMP JUMPDEST PUSH1 0x1 PUSH1 0x1 PUSH1 0xA0 SHL SUB AND CALLER PUSH1 0x1 PUSH1 0x1 PUSH1 0xA0 SHL SUB AND EQ PUSH2 0x17AB JUMPI CALLER PUSH1 0x0 SWAP1 DUP2 MSTORE PUSH1 0x1E PUSH1 0x20 MSTORE PUSH1 0x40 SWAP1 KECCAK256 SLOAD PUSH1 0x17 SLOAD PUSH2 0xA66 SWAP2 SWAP1 PUSH2 0x2E31 JUMP JUMPDEST POP PUSH1 0xC8 SWAP2 SWAP1 POP JUMP JUMPDEST PUSH1 0xA SLOAD PUSH1 0x1 PUSH1 0x1 PUSH1 0xA0 SHL SUB AND CALLER EQ PUSH2 0x17DD JUMPI PUSH1 0x40 MLOAD PUSH3 0x461BCD PUSH1 0xE5 SHL DUP2 MSTORE PUSH1 0x4 ADD PUSH2 0xA96 SWAP1 PUSH2 0x2D60 JUMP JUMPDEST PUSH1 0x16 SSTORE JUMP JUMPDEST PUSH1 0xE DUP1 SLOAD PUSH2 0xBE6 SWAP1 PUSH2 0x2E8B JUMP JUMPDEST PUSH1 0x60 PUSH1 0x1 DUP1 SLOAD PUSH2 0xAC1 SWAP1 PUSH2 0x2E8B JUMP JUMPDEST PUSH2 0x161C CALLER DUP4 DUP4 PUSH2 0x203C JUMP JUMPDEST PUSH1 0xA SLOAD PUSH1 0x1 PUSH1 0x1 PUSH1 0xA0 SHL SUB AND CALLER EQ PUSH2 0x1833 JUMPI PUSH1 0x40 MLOAD PUSH3 0x461BCD PUSH1 0xE5 SHL DUP2 MSTORE PUSH1 0x4 ADD PUSH2 0xA96 SWAP1 PUSH2 0x2D60 JUMP JUMPDEST PUSH1 0x1 PUSH1 0x19 SSTORE JUMP JUMPDEST PUSH1 0x11 DUP1 SLOAD PUSH2 0xBE6 SWAP1 PUSH2 0x2E8B JUMP JUMPDEST PUSH1 0x1A SLOAD PUSH1 0x0 SWAP1 PUSH1 0xFF AND ISZERO ISZERO PUSH1 0x1 EQ ISZERO PUSH2 0x1860 JUMPI POP PUSH1 0x1 SWAP1 JUMP JUMPDEST POP PUSH1 0x0 SWAP1 JUMP JUMPDEST PUSH2 0x1870 CALLER DUP4 PUSH2 0x1D32 JUMP JUMPDEST PUSH2 0x188C JUMPI PUSH1 0x40 MLOAD PUSH3 0x461BCD PUSH1 0xE5 SHL DUP2 MSTORE PUSH1 0x4 ADD PUSH2 0xA96 SWAP1 PUSH2 0x2D95 JUMP JUMPDEST PUSH2 0x1430 DUP5 DUP5 DUP5 DUP5 PUSH2 0x210B JUMP JUMPDEST PUSH1 0x1D DUP2 DUP2 SLOAD DUP2 LT PUSH2 0x18A8 JUMPI PUSH1 0x0 DUP1 REVERT JUMPDEST PUSH1 0x0 SWAP2 DUP3 MSTORE PUSH1 0x20 SWAP1 SWAP2 KECCAK256 ADD SLOAD PUSH1 0x1 PUSH1 0x1 PUSH1 0xA0 SHL SUB AND SWAP1 POP DUP2 JUMP JUMPDEST PUSH1 0xA SLOAD PUSH1 0x1 PUSH1 0x1 PUSH1 0xA0 SHL SUB AND CALLER EQ PUSH2 0x18EC JUMPI PUSH1 0x40 MLOAD PUSH3 0x461BCD PUSH1 0xE5 SHL DUP2 MSTORE PUSH1 0x4 ADD PUSH2 0xA96 SWAP1 PUSH2 0x2D60 JUMP JUMPDEST PUSH1 0x18 SSTORE JUMP JUMPDEST PUSH1 0xD DUP1 SLOAD PUSH2 0xBE6 SWAP1 PUSH2 0x2E8B JUMP JUMPDEST PUSH1 0x0 DUP2 DUP2 MSTORE PUSH1 0x2 PUSH1 0x20 MSTORE PUSH1 0x40 SWAP1 KECCAK256 SLOAD PUSH1 0x60 SWAP1 PUSH1 0x1 PUSH1 0x1 PUSH1 0xA0 SHL SUB AND PUSH2 0x197D JUMPI PUSH1 0x40 MLOAD PUSH3 0x461BCD PUSH1 0xE5 SHL DUP2 MSTORE PUSH1 0x20 PUSH1 0x4 DUP3 ADD MSTORE PUSH1 0x2F PUSH1 0x24 DUP3 ADD MSTORE PUSH32 0x4552433732314D657461646174613A2055524920717565727920666F72206E6F PUSH1 0x44 DUP3 ADD MSTORE PUSH15 0x3732BC34B9BA32B73A103A37B5B2B7 PUSH1 0x89 SHL PUSH1 0x64 DUP3 ADD MSTORE PUSH1 0x84 ADD PUSH2 0xA96 JUMP JUMPDEST PUSH1 0x0 DUP3 DUP2 MSTORE PUSH1 0xB PUSH1 0x20 MSTORE PUSH1 0x40 DUP2 KECCAK256 DUP1 SLOAD PUSH2 0x1996 SWAP1 PUSH2 0x2E8B JUMP JUMPDEST DUP1 PUSH1 0x1F ADD PUSH1 0x20 DUP1 SWAP2 DIV MUL PUSH1 0x20 ADD PUSH1 0x40 MLOAD SWAP1 DUP2 ADD PUSH1 0x40 MSTORE DUP1 SWAP3 SWAP2 SWAP1 DUP2 DUP2 MSTORE PUSH1 0x20 ADD DUP3 DUP1 SLOAD PUSH2 0x19C2 SWAP1 PUSH2 0x2E8B JUMP JUMPDEST DUP1 ISZERO PUSH2 0x1A0F JUMPI DUP1 PUSH1 0x1F LT PUSH2 0x19E4 JUMPI PUSH2 0x100 DUP1 DUP4 SLOAD DIV MUL DUP4 MSTORE SWAP2 PUSH1 0x20 ADD SWAP2 PUSH2 0x1A0F JUMP JUMPDEST DUP3 ADD SWAP2 SWAP1 PUSH1 0x0 MSTORE PUSH1 0x20 PUSH1 0x0 KECCAK256 SWAP1 JUMPDEST DUP2 SLOAD DUP2 MSTORE SWAP1 PUSH1 0x1 ADD SWAP1 PUSH1 0x20 ADD DUP1 DUP4 GT PUSH2 0x19F2 JUMPI DUP3 SWAP1 SUB PUSH1 0x1F AND DUP3 ADD SWAP2 JUMPDEST POP POP POP POP POP SWAP1 POP PUSH1 0x0 PUSH2 0x1A20 PUSH2 0x213E JUMP JUMPDEST SWAP1 POP PUSH1 0x19 SLOAD PUSH1 0x0 EQ ISZERO PUSH2 0x1AC1 JUMPI PUSH1 0xF DUP1 SLOAD PUSH2 0x1A3A SWAP1 PUSH2 0x2E8B JUMP JUMPDEST DUP1 PUSH1 0x1F ADD PUSH1 0x20 DUP1 SWAP2 DIV MUL PUSH1 0x20 ADD PUSH1 0x40 MLOAD SWAP1 DUP2 ADD PUSH1 0x40 MSTORE DUP1 SWAP3 SWAP2 SWAP1 DUP2 DUP2 MSTORE PUSH1 0x20 ADD DUP3 DUP1 SLOAD PUSH2 0x1A66 SWAP1 PUSH2 0x2E8B JUMP JUMPDEST DUP1 ISZERO PUSH2 0x1AB3 JUMPI DUP1 PUSH1 0x1F LT PUSH2 0x1A88 JUMPI PUSH2 0x100 DUP1 DUP4 SLOAD DIV MUL DUP4 MSTORE SWAP2 PUSH1 0x20 ADD SWAP2 PUSH2 0x1AB3 JUMP JUMPDEST DUP3 ADD SWAP2 SWAP1 PUSH1 0x0 MSTORE PUSH1 0x20 PUSH1 0x0 KECCAK256 SWAP1 JUMPDEST DUP2 SLOAD DUP2 MSTORE SWAP1 PUSH1 0x1 ADD SWAP1 PUSH1 0x20 ADD DUP1 DUP4 GT PUSH2 0x1A96 JUMPI DUP3 SWAP1 SUB PUSH1 0x1F AND DUP3 ADD SWAP2 JUMPDEST POP POP POP POP POP SWAP3 POP POP POP SWAP2 SWAP1 POP JUMP JUMPDEST DUP1 MLOAD PUSH2 0x1ACE JUMPI POP SWAP3 SWAP2 POP POP JUMP JUMPDEST DUP2 MLOAD ISZERO PUSH2 0x1B03 JUMPI DUP1 DUP3 PUSH1 0xD PUSH1 0x40 MLOAD PUSH1 0x20 ADD PUSH2 0x1AEB SWAP4 SWAP3 SWAP2 SWAP1 PUSH2 0x2BB8 JUMP JUMPDEST PUSH1 0x40 MLOAD PUSH1 0x20 DUP2 DUP4 SUB SUB DUP2 MSTORE SWAP1 PUSH1 0x40 MSTORE SWAP3 POP POP POP SWAP2 SWAP1 POP JUMP JUMPDEST DUP1 PUSH2 0x1B0D DUP6 PUSH2 0x214D JUMP JUMPDEST PUSH1 0xD PUSH1 0x40 MLOAD PUSH1 0x20 ADD PUSH2 0x1AEB SWAP4 SWAP3 SWAP2 SWAP1 PUSH2 0x2BB8 JUMP JUMPDEST PUSH1 0xA SLOAD PUSH1 0x1 PUSH1 0x1 PUSH1 0xA0 SHL SUB AND CALLER EQ PUSH2 0x1B4B JUMPI PUSH1 0x40 MLOAD PUSH3 0x461BCD PUSH1 0xE5 SHL DUP2 MSTORE PUSH1 0x4 ADD PUSH2 0xA96 SWAP1 PUSH2 0x2D60 JUMP JUMPDEST PUSH1 0x17 SSTORE JUMP JUMPDEST PUSH1 0x10 DUP1 SLOAD PUSH2 0xBE6 SWAP1 PUSH2 0x2E8B JUMP JUMPDEST PUSH1 0xA SLOAD PUSH1 0x1 PUSH1 0x1 PUSH1 0xA0 SHL SUB AND CALLER EQ PUSH2 0x1B87 JUMPI PUSH1 0x40 MLOAD PUSH3 0x461BCD PUSH1 0xE5 SHL DUP2 MSTORE PUSH1 0x4 ADD PUSH2 0xA96 SWAP1 PUSH2 0x2D60 JUMP JUMPDEST DUP1 MLOAD PUSH2 0x161C SWAP1 PUSH1 0xD SWAP1 PUSH1 0x20 DUP5 ADD SWAP1 PUSH2 0x2767 JUMP JUMPDEST PUSH1 0xA SLOAD PUSH1 0x1 PUSH1 0x1 PUSH1 0xA0 SHL SUB AND CALLER EQ PUSH2 0x1BC4 JUMPI PUSH1 0x40 MLOAD PUSH3 0x461BCD PUSH1 0xE5 SHL DUP2 MSTORE PUSH1 0x4 ADD PUSH2 0xA96 SWAP1 PUSH2 0x2D60 JUMP JUMPDEST PUSH2 0x1BD0 PUSH1 0x1D PUSH1 0x0 PUSH2 0x27EB JUMP JUMPDEST PUSH2 0xD78 PUSH1 0x1D DUP4 DUP4 PUSH2 0x2809 JUMP JUMPDEST PUSH1 0xA SLOAD PUSH1 0x1 PUSH1 0x1 PUSH1 0xA0 SHL SUB AND CALLER EQ PUSH2 0x1C06 JUMPI PUSH1 0x40 MLOAD PUSH3 0x461BCD PUSH1 0xE5 SHL DUP2 MSTORE PUSH1 0x4 ADD PUSH2 0xA96 SWAP1 PUSH2 0x2D60 JUMP JUMPDEST PUSH1 0x1 PUSH1 0x1 PUSH1 0xA0 SHL SUB DUP2 AND PUSH2 0x1C6B JUMPI PUSH1 0x40 MLOAD PUSH3 0x461BCD PUSH1 0xE5 SHL DUP2 MSTORE PUSH1 0x20 PUSH1 0x4 DUP3 ADD MSTORE PUSH1 0x26 PUSH1 0x24 DUP3 ADD MSTORE PUSH32 0x4F776E61626C653A206E6577206F776E657220697320746865207A65726F2061 PUSH1 0x44 DUP3 ADD MSTORE PUSH6 0x646472657373 PUSH1 0xD0 SHL PUSH1 0x64 DUP3 ADD MSTORE PUSH1 0x84 ADD PUSH2 0xA96 JUMP JUMPDEST PUSH2 0xE5F DUP2 PUSH2 0x1FEA JUMP JUMPDEST PUSH1 0x0 PUSH1 0x1 PUSH1 0x1 PUSH1 0xE0 SHL SUB NOT DUP3 AND PUSH4 0x80AC58CD PUSH1 0xE0 SHL EQ DUP1 PUSH2 0x1CA5 JUMPI POP PUSH1 0x1 PUSH1 0x1 PUSH1 0xE0 SHL SUB NOT DUP3 AND PUSH4 0x5B5E139F PUSH1 0xE0 SHL EQ JUMPDEST DUP1 PUSH2 0xA66 JUMPI POP PUSH4 0x1FFC9A7 PUSH1 0xE0 SHL PUSH1 0x1 PUSH1 0x1 PUSH1 0xE0 SHL SUB NOT DUP4 AND EQ PUSH2 0xA66 JUMP JUMPDEST PUSH1 0x0 DUP2 DUP2 MSTORE PUSH1 0x4 PUSH1 0x20 MSTORE PUSH1 0x40 SWAP1 KECCAK256 DUP1 SLOAD PUSH1 0x1 PUSH1 0x1 PUSH1 0xA0 SHL SUB NOT AND PUSH1 0x1 PUSH1 0x1 PUSH1 0xA0 SHL SUB DUP5 AND SWAP1 DUP2 OR SWAP1 SWAP2 SSTORE DUP2 SWAP1 PUSH2 0x1CF9 DUP3 PUSH2 0x1620 JUMP JUMPDEST PUSH1 0x1 PUSH1 0x1 PUSH1 0xA0 SHL SUB AND PUSH32 0x8C5BE1E5EBEC7D5BD14F71427D1E84F3DD0314C0F7B2291E5B200AC8C7C3B925 PUSH1 0x40 MLOAD PUSH1 0x40 MLOAD DUP1 SWAP2 SUB SWAP1 LOG4 POP POP JUMP JUMPDEST PUSH1 0x0 DUP2 DUP2 MSTORE PUSH1 0x2 PUSH1 0x20 MSTORE PUSH1 0x40 DUP2 KECCAK256 SLOAD PUSH1 0x1 PUSH1 0x1 PUSH1 0xA0 SHL SUB AND PUSH2 0x1DAB JUMPI PUSH1 0x40 MLOAD PUSH3 0x461BCD PUSH1 0xE5 SHL DUP2 MSTORE PUSH1 0x20 PUSH1 0x4 DUP3 ADD MSTORE PUSH1 0x2C PUSH1 0x24 DUP3 ADD MSTORE PUSH32 0x4552433732313A206F70657261746F7220717565727920666F72206E6F6E6578 PUSH1 0x44 DUP3 ADD MSTORE PUSH12 0x34B9BA32B73A103A37B5B2B7 PUSH1 0xA1 SHL PUSH1 0x64 DUP3 ADD MSTORE PUSH1 0x84 ADD PUSH2 0xA96 JUMP JUMPDEST PUSH1 0x0 PUSH2 0x1DB6 DUP4 PUSH2 0x1620 JUMP JUMPDEST SWAP1 POP DUP1 PUSH1 0x1 PUSH1 0x1 PUSH1 0xA0 SHL SUB AND DUP5 PUSH1 0x1 PUSH1 0x1 PUSH1 0xA0 SHL SUB AND EQ DUP1 PUSH2 0x1DF1 JUMPI POP DUP4 PUSH1 0x1 PUSH1 0x1 PUSH1 0xA0 SHL SUB AND PUSH2 0x1DE6 DUP5 PUSH2 0xB44 JUMP JUMPDEST PUSH1 0x1 PUSH1 0x1 PUSH1 0xA0 SHL SUB AND EQ JUMPDEST DUP1 PUSH2 0x1E21 JUMPI POP PUSH1 0x1 PUSH1 0x1 PUSH1 0xA0 SHL SUB DUP1 DUP3 AND PUSH1 0x0 SWAP1 DUP2 MSTORE PUSH1 0x5 PUSH1 0x20 SWAP1 DUP2 MSTORE PUSH1 0x40 DUP1 DUP4 KECCAK256 SWAP4 DUP9 AND DUP4 MSTORE SWAP3 SWAP1 MSTORE KECCAK256 SLOAD PUSH1 0xFF AND JUMPDEST SWAP5 SWAP4 POP POP POP POP JUMP JUMPDEST DUP3 PUSH1 0x1 PUSH1 0x1 PUSH1 0xA0 SHL SUB AND PUSH2 0x1E3C DUP3 PUSH2 0x1620 JUMP JUMPDEST PUSH1 0x1 PUSH1 0x1 PUSH1 0xA0 SHL SUB AND EQ PUSH2 0x1EA0 JUMPI PUSH1 0x40 MLOAD PUSH3 0x461BCD PUSH1 0xE5 SHL DUP2 MSTORE PUSH1 0x20 PUSH1 0x4 DUP3 ADD MSTORE PUSH1 0x25 PUSH1 0x24 DUP3 ADD MSTORE PUSH32 0x4552433732313A207472616E736665722066726F6D20696E636F727265637420 PUSH1 0x44 DUP3 ADD MSTORE PUSH5 0x37BBB732B9 PUSH1 0xD9 SHL PUSH1 0x64 DUP3 ADD MSTORE PUSH1 0x84 ADD PUSH2 0xA96 JUMP JUMPDEST PUSH1 0x1 PUSH1 0x1 PUSH1 0xA0 SHL SUB DUP3 AND PUSH2 0x1F02 JUMPI PUSH1 0x40 MLOAD PUSH3 0x461BCD PUSH1 0xE5 SHL DUP2 MSTORE PUSH1 0x20 PUSH1 0x4 DUP3 ADD MSTORE PUSH1 0x24 DUP1 DUP3 ADD MSTORE PUSH32 0x4552433732313A207472616E7366657220746F20746865207A65726F20616464 PUSH1 0x44 DUP3 ADD MSTORE PUSH4 0x72657373 PUSH1 0xE0 SHL PUSH1 0x64 DUP3 ADD MSTORE PUSH1 0x84 ADD PUSH2 0xA96 JUMP JUMPDEST PUSH2 0x1F0D DUP4 DUP4 DUP4 PUSH2 0x2267 JUMP JUMPDEST PUSH2 0x1F18 PUSH1 0x0 DUP3 PUSH2 0x1CC4 JUMP JUMPDEST PUSH1 0x1 PUSH1 0x1 PUSH1 0xA0 SHL SUB DUP4 AND PUSH1 0x0 SWAP1 DUP2 MSTORE PUSH1 0x3 PUSH1 0x20 MSTORE PUSH1 0x40 DUP2 KECCAK256 DUP1 SLOAD PUSH1 0x1 SWAP3 SWAP1 PUSH2 0x1F41 SWAP1 DUP5 SWAP1 PUSH2 0x2E31 JUMP JUMPDEST SWAP1 SWAP2 SSTORE POP POP PUSH1 0x1 PUSH1 0x1 PUSH1 0xA0 SHL SUB DUP3 AND PUSH1 0x0 SWAP1 DUP2 MSTORE PUSH1 0x3 PUSH1 0x20 MSTORE PUSH1 0x40 DUP2 KECCAK256 DUP1 SLOAD PUSH1 0x1 SWAP3 SWAP1 PUSH2 0x1F6F SWAP1 DUP5 SWAP1 PUSH2 0x2DE6 JUMP JUMPDEST SWAP1 SWAP2 SSTORE POP POP PUSH1 0x0 DUP2 DUP2 MSTORE PUSH1 0x2 PUSH1 0x20 MSTORE PUSH1 0x40 DUP1 DUP3 KECCAK256 DUP1 SLOAD PUSH1 0x1 PUSH1 0x1 PUSH1 0xA0 SHL SUB NOT AND PUSH1 0x1 PUSH1 0x1 PUSH1 0xA0 SHL SUB DUP7 DUP2 AND SWAP2 DUP3 OR SWAP1 SWAP3 SSTORE SWAP2 MLOAD DUP5 SWAP4 SWAP2 DUP8 AND SWAP2 PUSH32 0xDDF252AD1BE2C89B69C2B068FC378DAA952BA7F163C4A11628F55A4DF523B3EF SWAP2 LOG4 POP POP POP JUMP JUMPDEST PUSH2 0x161C DUP3 DUP3 PUSH1 0x40 MLOAD DUP1 PUSH1 0x20 ADD PUSH1 0x40 MSTORE DUP1 PUSH1 0x0 DUP2 MSTORE POP PUSH2 0x231F JUMP JUMPDEST PUSH1 0xA DUP1 SLOAD PUSH1 0x1 PUSH1 0x1 PUSH1 0xA0 SHL SUB DUP4 DUP2 AND PUSH1 0x1 PUSH1 0x1 PUSH1 0xA0 SHL SUB NOT DUP4 AND DUP2 OR SWAP1 SWAP4 SSTORE PUSH1 0x40 MLOAD SWAP2 AND SWAP2 SWAP1 DUP3 SWAP1 PUSH32 0x8BE0079C531659141344CD1FD0A4F28419497F9722A3DAAFE3B4186F6B6457E0 SWAP1 PUSH1 0x0 SWAP1 LOG3 POP POP JUMP JUMPDEST DUP2 PUSH1 0x1 PUSH1 0x1 PUSH1 0xA0 SHL SUB AND DUP4 PUSH1 0x1 PUSH1 0x1 PUSH1 0xA0 SHL SUB AND EQ ISZERO PUSH2 0x209E JUMPI PUSH1 0x40 MLOAD PUSH3 0x461BCD PUSH1 0xE5 SHL DUP2 MSTORE PUSH1 0x20 PUSH1 0x4 DUP3 ADD MSTORE PUSH1 0x19 PUSH1 0x24 DUP3 ADD MSTORE PUSH32 0x4552433732313A20617070726F766520746F2063616C6C657200000000000000 PUSH1 0x44 DUP3 ADD MSTORE PUSH1 0x64 ADD PUSH2 0xA96 JUMP JUMPDEST PUSH1 0x1 PUSH1 0x1 PUSH1 0xA0 SHL SUB DUP4 DUP2 AND PUSH1 0x0 DUP2 DUP2 MSTORE PUSH1 0x5 PUSH1 0x20 SWAP1 DUP2 MSTORE PUSH1 0x40 DUP1 DUP4 KECCAK256 SWAP5 DUP8 AND DUP1 DUP5 MSTORE SWAP5 DUP3 MSTORE SWAP2 DUP3 SWAP1 KECCAK256 DUP1 SLOAD PUSH1 0xFF NOT AND DUP7 ISZERO ISZERO SWAP1 DUP2 OR SWAP1 SWAP2 SSTORE SWAP2 MLOAD SWAP2 DUP3 MSTORE PUSH32 0x17307EAB39AB6107E8899845AD3D59BD9653F200F220920489CA2B5937696C31 SWAP2 ADD PUSH1 0x40 MLOAD DUP1 SWAP2 SUB SWAP1 LOG3 POP POP POP JUMP JUMPDEST PUSH2 0x2116 DUP5 DUP5 DUP5 PUSH2 0x1E29 JUMP JUMPDEST PUSH2 0x2122 DUP5 DUP5 DUP5 DUP5 PUSH2 0x2352 JUMP JUMPDEST PUSH2 0x1430 JUMPI PUSH1 0x40 MLOAD PUSH3 0x461BCD PUSH1 0xE5 SHL DUP2 MSTORE PUSH1 0x4 ADD PUSH2 0xA96 SWAP1 PUSH2 0x2D0E JUMP JUMPDEST PUSH1 0x60 PUSH1 0xC DUP1 SLOAD PUSH2 0xAC1 SWAP1 PUSH2 0x2E8B JUMP JUMPDEST PUSH1 0x60 DUP2 PUSH2 0x2171 JUMPI POP POP PUSH1 0x40 DUP1 MLOAD DUP1 DUP3 ADD SWAP1 SWAP2 MSTORE PUSH1 0x1 DUP2 MSTORE PUSH1 0x3 PUSH1 0xFC SHL PUSH1 0x20 DUP3 ADD MSTORE SWAP1 JUMP JUMPDEST DUP2 PUSH1 0x0 JUMPDEST DUP2 ISZERO PUSH2 0x219B JUMPI DUP1 PUSH2 0x2185 DUP2 PUSH2 0x2EC6 JUMP JUMPDEST SWAP2 POP PUSH2 0x2194 SWAP1 POP PUSH1 0xA DUP4 PUSH2 0x2DFE JUMP JUMPDEST SWAP2 POP PUSH2 0x2175 JUMP JUMPDEST PUSH1 0x0 DUP2 PUSH8 0xFFFFFFFFFFFFFFFF DUP2 GT ISZERO PUSH2 0x21C4 JUMPI PUSH4 0x4E487B71 PUSH1 0xE0 SHL PUSH1 0x0 MSTORE PUSH1 0x41 PUSH1 0x4 MSTORE PUSH1 0x24 PUSH1 0x0 REVERT JUMPDEST PUSH1 0x40 MLOAD SWAP1 DUP1 DUP3 MSTORE DUP1 PUSH1 0x1F ADD PUSH1 0x1F NOT AND PUSH1 0x20 ADD DUP3 ADD PUSH1 0x40 MSTORE DUP1 ISZERO PUSH2 0x21EE JUMPI PUSH1 0x20 DUP3 ADD DUP2 DUP1 CALLDATASIZE DUP4 CALLDATACOPY ADD SWAP1 POP JUMPDEST POP SWAP1 POP JUMPDEST DUP5 ISZERO PUSH2 0x1E21 JUMPI PUSH2 0x2203 PUSH1 0x1 DUP4 PUSH2 0x2E31 JUMP JUMPDEST SWAP2 POP PUSH2 0x2210 PUSH1 0xA DUP7 PUSH2 0x2EE1 JUMP JUMPDEST PUSH2 0x221B SWAP1 PUSH1 0x30 PUSH2 0x2DE6 JUMP JUMPDEST PUSH1 0xF8 SHL DUP2 DUP4 DUP2 MLOAD DUP2 LT PUSH2 0x223E JUMPI PUSH4 0x4E487B71 PUSH1 0xE0 SHL PUSH1 0x0 MSTORE PUSH1 0x32 PUSH1 0x4 MSTORE PUSH1 0x24 PUSH1 0x0 REVERT JUMPDEST PUSH1 0x20 ADD ADD SWAP1 PUSH1 0x1 PUSH1 0x1 PUSH1 0xF8 SHL SUB NOT AND SWAP1 DUP2 PUSH1 0x0 BYTE SWAP1 MSTORE8 POP PUSH2 0x2260 PUSH1 0xA DUP7 PUSH2 0x2DFE JUMP JUMPDEST SWAP5 POP PUSH2 0x21F2 JUMP JUMPDEST PUSH1 0x1 PUSH1 0x1 PUSH1 0xA0 SHL SUB DUP4 AND PUSH2 0x22C2 JUMPI PUSH2 0x22BD DUP2 PUSH1 0x8 DUP1 SLOAD PUSH1 0x0 DUP4 DUP2 MSTORE PUSH1 0x9 PUSH1 0x20 MSTORE PUSH1 0x40 DUP2 KECCAK256 DUP3 SWAP1 SSTORE PUSH1 0x1 DUP3 ADD DUP4 SSTORE SWAP2 SWAP1 SWAP2 MSTORE PUSH32 0xF3F7A9FE364FAAB93B216DA50A3214154F22A0A2B415B23A84C8169E8B636EE3 ADD SSTORE JUMP JUMPDEST PUSH2 0x22E5 JUMP JUMPDEST DUP2 PUSH1 0x1 PUSH1 0x1 PUSH1 0xA0 SHL SUB AND DUP4 PUSH1 0x1 PUSH1 0x1 PUSH1 0xA0 SHL SUB AND EQ PUSH2 0x22E5 JUMPI PUSH2 0x22E5 DUP4 DUP3 PUSH2 0x245F JUMP JUMPDEST PUSH1 0x1 PUSH1 0x1 PUSH1 0xA0 SHL SUB DUP3 AND PUSH2 0x22FC JUMPI PUSH2 0xD78 DUP2 PUSH2 0x24FC JUMP JUMPDEST DUP3 PUSH1 0x1 PUSH1 0x1 PUSH1 0xA0 SHL SUB AND DUP3 PUSH1 0x1 PUSH1 0x1 PUSH1 0xA0 SHL SUB AND EQ PUSH2 0xD78 JUMPI PUSH2 0xD78 DUP3 DUP3 PUSH2 0x25D5 JUMP JUMPDEST PUSH2 0x2329 DUP4 DUP4 PUSH2 0x2619 JUMP JUMPDEST PUSH2 0x2336 PUSH1 0x0 DUP5 DUP5 DUP5 PUSH2 0x2352 JUMP JUMPDEST PUSH2 0xD78 JUMPI PUSH1 0x40 MLOAD PUSH3 0x461BCD PUSH1 0xE5 SHL DUP2 MSTORE PUSH1 0x4 ADD PUSH2 0xA96 SWAP1 PUSH2 0x2D0E JUMP JUMPDEST PUSH1 0x0 PUSH1 0x1 PUSH1 0x1 PUSH1 0xA0 SHL SUB DUP5 AND EXTCODESIZE ISZERO PUSH2 0x2454 JUMPI PUSH1 0x40 MLOAD PUSH4 0xA85BD01 PUSH1 0xE1 SHL DUP2 MSTORE PUSH1 0x1 PUSH1 0x1 PUSH1 0xA0 SHL SUB DUP6 AND SWAP1 PUSH4 0x150B7A02 SWAP1 PUSH2 0x2396 SWAP1 CALLER SWAP1 DUP10 SWAP1 DUP9 SWAP1 DUP9 SWAP1 PUSH1 0x4 ADD PUSH2 0x2C7A JUMP JUMPDEST PUSH1 0x20 PUSH1 0x40 MLOAD DUP1 DUP4 SUB DUP2 PUSH1 0x0 DUP8 DUP1 EXTCODESIZE ISZERO DUP1 ISZERO PUSH2 0x23B0 JUMPI PUSH1 0x0 DUP1 REVERT JUMPDEST POP GAS CALL SWAP3 POP POP POP DUP1 ISZERO PUSH2 0x23E0 JUMPI POP PUSH1 0x40 DUP1 MLOAD PUSH1 0x1F RETURNDATASIZE SWAP1 DUP2 ADD PUSH1 0x1F NOT AND DUP3 ADD SWAP1 SWAP3 MSTORE PUSH2 0x23DD SWAP2 DUP2 ADD SWAP1 PUSH2 0x2B12 JUMP JUMPDEST PUSH1 0x1 JUMPDEST PUSH2 0x243A JUMPI RETURNDATASIZE DUP1 DUP1 ISZERO PUSH2 0x240E JUMPI PUSH1 0x40 MLOAD SWAP2 POP PUSH1 0x1F NOT PUSH1 0x3F RETURNDATASIZE ADD AND DUP3 ADD PUSH1 0x40 MSTORE RETURNDATASIZE DUP3 MSTORE RETURNDATASIZE PUSH1 0x0 PUSH1 0x20 DUP5 ADD RETURNDATACOPY PUSH2 0x2413 JUMP JUMPDEST PUSH1 0x60 SWAP2 POP JUMPDEST POP DUP1 MLOAD PUSH2 0x2432 JUMPI PUSH1 0x40 MLOAD PUSH3 0x461BCD PUSH1 0xE5 SHL DUP2 MSTORE PUSH1 0x4 ADD PUSH2 0xA96 SWAP1 PUSH2 0x2D0E JUMP JUMPDEST DUP1 MLOAD DUP2 PUSH1 0x20 ADD REVERT JUMPDEST PUSH1 0x1 PUSH1 0x1 PUSH1 0xE0 SHL SUB NOT AND PUSH4 0xA85BD01 PUSH1 0xE1 SHL EQ SWAP1 POP PUSH2 0x1E21 JUMP JUMPDEST POP PUSH1 0x1 SWAP5 SWAP4 POP POP POP POP JUMP JUMPDEST PUSH1 0x0 PUSH1 0x1 PUSH2 0x246C DUP5 PUSH2 0x16A4 JUMP JUMPDEST PUSH2 0x2476 SWAP2 SWAP1 PUSH2 0x2E31 JUMP JUMPDEST PUSH1 0x0 DUP4 DUP2 MSTORE PUSH1 0x7 PUSH1 0x20 MSTORE PUSH1 0x40 SWAP1 KECCAK256 SLOAD SWAP1 SWAP2 POP DUP1 DUP3 EQ PUSH2 0x24C9 JUMPI PUSH1 0x1 PUSH1 0x1 PUSH1 0xA0 SHL SUB DUP5 AND PUSH1 0x0 SWAP1 DUP2 MSTORE PUSH1 0x6 PUSH1 0x20 SWAP1 DUP2 MSTORE PUSH1 0x40 DUP1 DUP4 KECCAK256 DUP6 DUP5 MSTORE DUP3 MSTORE DUP1 DUP4 KECCAK256 SLOAD DUP5 DUP5 MSTORE DUP2 DUP5 KECCAK256 DUP2 SWAP1 SSTORE DUP4 MSTORE PUSH1 0x7 SWAP1 SWAP2 MSTORE SWAP1 KECCAK256 DUP2 SWAP1 SSTORE JUMPDEST POP PUSH1 0x0 SWAP2 DUP3 MSTORE PUSH1 0x7 PUSH1 0x20 SWAP1 DUP2 MSTORE PUSH1 0x40 DUP1 DUP5 KECCAK256 DUP5 SWAP1 SSTORE PUSH1 0x1 PUSH1 0x1 PUSH1 0xA0 SHL SUB SWAP1 SWAP5 AND DUP4 MSTORE PUSH1 0x6 DUP2 MSTORE DUP4 DUP4 KECCAK256 SWAP2 DUP4 MSTORE MSTORE SWAP1 DUP2 KECCAK256 SSTORE JUMP JUMPDEST PUSH1 0x8 SLOAD PUSH1 0x0 SWAP1 PUSH2 0x250E SWAP1 PUSH1 0x1 SWAP1 PUSH2 0x2E31 JUMP JUMPDEST PUSH1 0x0 DUP4 DUP2 MSTORE PUSH1 0x9 PUSH1 0x20 MSTORE PUSH1 0x40 DUP2 KECCAK256 SLOAD PUSH1 0x8 DUP1 SLOAD SWAP4 SWAP5 POP SWAP1 SWAP3 DUP5 SWAP1 DUP2 LT PUSH2 0x2544 JUMPI PUSH4 0x4E487B71 PUSH1 0xE0 SHL PUSH1 0x0 MSTORE PUSH1 0x32 PUSH1 0x4 MSTORE PUSH1 0x24 PUSH1 0x0 REVERT JUMPDEST SWAP1 PUSH1 0x0 MSTORE PUSH1 0x20 PUSH1 0x0 KECCAK256 ADD SLOAD SWAP1 POP DUP1 PUSH1 0x8 DUP4 DUP2 SLOAD DUP2 LT PUSH2 0x2573 JUMPI PUSH4 0x4E487B71 PUSH1 0xE0 SHL PUSH1 0x0 MSTORE PUSH1 0x32 PUSH1 0x4 MSTORE PUSH1 0x24 PUSH1 0x0 REVERT JUMPDEST PUSH1 0x0 SWAP2 DUP3 MSTORE PUSH1 0x20 DUP1 DUP4 KECCAK256 SWAP1 SWAP2 ADD SWAP3 SWAP1 SWAP3 SSTORE DUP3 DUP2 MSTORE PUSH1 0x9 SWAP1 SWAP2 MSTORE PUSH1 0x40 DUP1 DUP3 KECCAK256 DUP5 SWAP1 SSTORE DUP6 DUP3 MSTORE DUP2 KECCAK256 SSTORE PUSH1 0x8 DUP1 SLOAD DUP1 PUSH2 0x25B9 JUMPI PUSH4 0x4E487B71 PUSH1 0xE0 SHL PUSH1 0x0 MSTORE PUSH1 0x31 PUSH1 0x4 MSTORE PUSH1 0x24 PUSH1 0x0 REVERT JUMPDEST PUSH1 0x1 SWAP1 SUB DUP2 DUP2 SWAP1 PUSH1 0x0 MSTORE PUSH1 0x20 PUSH1 0x0 KECCAK256 ADD PUSH1 0x0 SWAP1 SSTORE SWAP1 SSTORE POP POP POP POP JUMP JUMPDEST PUSH1 0x0 PUSH2 0x25E0 DUP4 PUSH2 0x16A4 JUMP JUMPDEST PUSH1 0x1 PUSH1 0x1 PUSH1 0xA0 SHL SUB SWAP1 SWAP4 AND PUSH1 0x0 SWAP1 DUP2 MSTORE PUSH1 0x6 PUSH1 0x20 SWAP1 DUP2 MSTORE PUSH1 0x40 DUP1 DUP4 KECCAK256 DUP7 DUP5 MSTORE DUP3 MSTORE DUP1 DUP4 KECCAK256 DUP6 SWAP1 SSTORE SWAP4 DUP3 MSTORE PUSH1 0x7 SWAP1 MSTORE SWAP2 SWAP1 SWAP2 KECCAK256 SWAP2 SWAP1 SWAP2 SSTORE POP JUMP JUMPDEST PUSH1 0x1 PUSH1 0x1 PUSH1 0xA0 SHL SUB DUP3 AND PUSH2 0x266F JUMPI PUSH1 0x40 MLOAD PUSH3 0x461BCD PUSH1 0xE5 SHL DUP2 MSTORE PUSH1 0x20 PUSH1 0x4 DUP3 ADD DUP2 SWAP1 MSTORE PUSH1 0x24 DUP3 ADD MSTORE PUSH32 0x4552433732313A206D696E7420746F20746865207A65726F2061646472657373 PUSH1 0x44 DUP3 ADD MSTORE PUSH1 0x64 ADD PUSH2 0xA96 JUMP JUMPDEST PUSH1 0x0 DUP2 DUP2 MSTORE PUSH1 0x2 PUSH1 0x20 MSTORE PUSH1 0x40 SWAP1 KECCAK256 SLOAD PUSH1 0x1 PUSH1 0x1 PUSH1 0xA0 SHL SUB AND ISZERO PUSH2 0x26D4 JUMPI PUSH1 0x40 MLOAD PUSH3 0x461BCD PUSH1 0xE5 SHL DUP2 MSTORE PUSH1 0x20 PUSH1 0x4 DUP3 ADD MSTORE PUSH1 0x1C PUSH1 0x24 DUP3 ADD MSTORE PUSH32 0x4552433732313A20746F6B656E20616C7265616479206D696E74656400000000 PUSH1 0x44 DUP3 ADD MSTORE PUSH1 0x64 ADD PUSH2 0xA96 JUMP JUMPDEST PUSH2 0x26E0 PUSH1 0x0 DUP4 DUP4 PUSH2 0x2267 JUMP JUMPDEST PUSH1 0x1 PUSH1 0x1 PUSH1 0xA0 SHL SUB DUP3 AND PUSH1 0x0 SWAP1 DUP2 MSTORE PUSH1 0x3 PUSH1 0x20 MSTORE PUSH1 0x40 DUP2 KECCAK256 DUP1 SLOAD PUSH1 0x1 SWAP3 SWAP1 PUSH2 0x2709 SWAP1 DUP5 SWAP1 PUSH2 0x2DE6 JUMP JUMPDEST SWAP1 SWAP2 SSTORE POP POP PUSH1 0x0 DUP2 DUP2 MSTORE PUSH1 0x2 PUSH1 0x20 MSTORE PUSH1 0x40 DUP1 DUP3 KECCAK256 DUP1 SLOAD PUSH1 0x1 PUSH1 0x1 PUSH1 0xA0 SHL SUB NOT AND PUSH1 0x1 PUSH1 0x1 PUSH1 0xA0 SHL SUB DUP7 AND SWAP1 DUP2 OR SWAP1 SWAP2 SSTORE SWAP1 MLOAD DUP4 SWAP3 SWAP1 PUSH32 0xDDF252AD1BE2C89B69C2B068FC378DAA952BA7F163C4A11628F55A4DF523B3EF SWAP1 DUP3 SWAP1 LOG4 POP POP JUMP JUMPDEST DUP3 DUP1 SLOAD PUSH2 0x2773 SWAP1 PUSH2 0x2E8B JUMP JUMPDEST SWAP1 PUSH1 0x0 MSTORE PUSH1 0x20 PUSH1 0x0 KECCAK256 SWAP1 PUSH1 0x1F ADD PUSH1 0x20 SWAP1 DIV DUP2 ADD SWAP3 DUP3 PUSH2 0x2795 JUMPI PUSH1 0x0 DUP6 SSTORE PUSH2 0x27DB JUMP JUMPDEST DUP3 PUSH1 0x1F LT PUSH2 0x27AE JUMPI DUP1 MLOAD PUSH1 0xFF NOT AND DUP4 DUP1 ADD OR DUP6 SSTORE PUSH2 0x27DB JUMP JUMPDEST DUP3 DUP1 ADD PUSH1 0x1 ADD DUP6 SSTORE DUP3 ISZERO PUSH2 0x27DB JUMPI SWAP2 DUP3 ADD JUMPDEST DUP3 DUP2 GT ISZERO PUSH2 0x27DB JUMPI DUP3 MLOAD DUP3 SSTORE SWAP2 PUSH1 0x20 ADD SWAP2 SWAP1 PUSH1 0x1 ADD SWAP1 PUSH2 0x27C0 JUMP JUMPDEST POP PUSH2 0x27E7 SWAP3 SWAP2 POP PUSH2 0x285C JUMP JUMPDEST POP SWAP1 JUMP JUMPDEST POP DUP1 SLOAD PUSH1 0x0 DUP3 SSTORE SWAP1 PUSH1 0x0 MSTORE PUSH1 0x20 PUSH1 0x0 KECCAK256 SWAP1 DUP2 ADD SWAP1 PUSH2 0xE5F SWAP2 SWAP1 PUSH2 0x285C JUMP JUMPDEST DUP3 DUP1 SLOAD DUP3 DUP3 SSTORE SWAP1 PUSH1 0x0 MSTORE PUSH1 0x20 PUSH1 0x0 KECCAK256 SWAP1 DUP2 ADD SWAP3 DUP3 ISZERO PUSH2 0x27DB JUMPI SWAP2 PUSH1 0x20 MUL DUP3 ADD JUMPDEST DUP3 DUP2 GT ISZERO PUSH2 0x27DB JUMPI DUP2 SLOAD PUSH1 0x1 PUSH1 0x1 PUSH1 0xA0 SHL SUB NOT AND PUSH1 0x1 PUSH1 0x1 PUSH1 0xA0 SHL SUB DUP5 CALLDATALOAD AND OR DUP3 SSTORE PUSH1 0x20 SWAP1 SWAP3 ADD SWAP2 PUSH1 0x1 SWAP1 SWAP2 ADD SWAP1 PUSH2 0x2829 JUMP JUMPDEST JUMPDEST DUP1 DUP3 GT ISZERO PUSH2 0x27E7 JUMPI PUSH1 0x0 DUP2 SSTORE PUSH1 0x1 ADD PUSH2 0x285D JUMP JUMPDEST PUSH1 0x0 PUSH8 0xFFFFFFFFFFFFFFFF DUP1 DUP5 GT ISZERO PUSH2 0x288C JUMPI PUSH2 0x288C PUSH2 0x2F21 JUMP JUMPDEST PUSH1 0x40 MLOAD PUSH1 0x1F DUP6 ADD PUSH1 0x1F NOT SWAP1 DUP2 AND PUSH1 0x3F ADD AND DUP2 ADD SWAP1 DUP3 DUP3 GT DUP2 DUP4 LT OR ISZERO PUSH2 0x28B4 JUMPI PUSH2 0x28B4 PUSH2 0x2F21 JUMP JUMPDEST DUP2 PUSH1 0x40 MSTORE DUP1 SWAP4 POP DUP6 DUP2 MSTORE DUP7 DUP7 DUP7 ADD GT ISZERO PUSH2 0x28CD JUMPI PUSH1 0x0 DUP1 REVERT JUMPDEST DUP6 DUP6 PUSH1 0x20 DUP4 ADD CALLDATACOPY PUSH1 0x0 PUSH1 0x20 DUP8 DUP4 ADD ADD MSTORE POP POP POP SWAP4 SWAP3 POP POP POP JUMP JUMPDEST DUP1 CALLDATALOAD PUSH1 0x1 PUSH1 0x1 PUSH1 0xA0 SHL SUB DUP2 AND DUP2 EQ PUSH2 0x28FE JUMPI PUSH1 0x0 DUP1 REVERT JUMPDEST SWAP2 SWAP1 POP JUMP JUMPDEST DUP1 CALLDATALOAD DUP1 ISZERO ISZERO DUP2 EQ PUSH2 0x28FE JUMPI PUSH1 0x0 DUP1 REVERT JUMPDEST PUSH1 0x0 PUSH1 0x20 DUP3 DUP5 SUB SLT ISZERO PUSH2 0x2924 JUMPI DUP1 DUP2 REVERT JUMPDEST PUSH2 0x292D DUP3 PUSH2 0x28E7 JUMP JUMPDEST SWAP4 SWAP3 POP POP POP JUMP JUMPDEST PUSH1 0x0 DUP1 PUSH1 0x40 DUP4 DUP6 SUB SLT ISZERO PUSH2 0x2946 JUMPI DUP1 DUP2 REVERT JUMPDEST PUSH2 0x294F DUP4 PUSH2 0x28E7 JUMP JUMPDEST SWAP2 POP PUSH2 0x295D PUSH1 0x20 DUP5 ADD PUSH2 0x28E7 JUMP JUMPDEST SWAP1 POP SWAP3 POP SWAP3 SWAP1 POP JUMP JUMPDEST PUSH1 0x0 DUP1 PUSH1 0x0 PUSH1 0x60 DUP5 DUP7 SUB SLT ISZERO PUSH2 0x297A JUMPI DUP1 DUP2 REVERT JUMPDEST PUSH2 0x2983 DUP5 PUSH2 0x28E7 JUMP JUMPDEST SWAP3 POP PUSH2 0x2991 PUSH1 0x20 DUP6 ADD PUSH2 0x28E7 JUMP JUMPDEST SWAP2 POP PUSH1 0x40 DUP5 ADD CALLDATALOAD SWAP1 POP SWAP3 POP SWAP3 POP SWAP3 JUMP JUMPDEST PUSH1 0x0 DUP1 PUSH1 0x0 DUP1 PUSH1 0x80 DUP6 DUP8 SUB SLT ISZERO PUSH2 0x29B6 JUMPI DUP1 DUP2 REVERT JUMPDEST PUSH2 0x29BF DUP6 PUSH2 0x28E7 JUMP JUMPDEST SWAP4 POP PUSH2 0x29CD PUSH1 0x20 DUP7 ADD PUSH2 0x28E7 JUMP JUMPDEST SWAP3 POP PUSH1 0x40 DUP6 ADD CALLDATALOAD SWAP2 POP PUSH1 0x60 DUP6 ADD CALLDATALOAD PUSH8 0xFFFFFFFFFFFFFFFF DUP2 GT ISZERO PUSH2 0x29EF JUMPI DUP2 DUP3 REVERT JUMPDEST DUP6 ADD PUSH1 0x1F DUP2 ADD DUP8 SGT PUSH2 0x29FF JUMPI DUP2 DUP3 REVERT JUMPDEST PUSH2 0x2A0E DUP8 DUP3 CALLDATALOAD PUSH1 0x20 DUP5 ADD PUSH2 0x2871 JUMP JUMPDEST SWAP2 POP POP SWAP3 SWAP6 SWAP2 SWAP5 POP SWAP3 POP JUMP JUMPDEST PUSH1 0x0 DUP1 PUSH1 0x40 DUP4 DUP6 SUB SLT ISZERO PUSH2 0x2A2C JUMPI DUP2 DUP3 REVERT JUMPDEST PUSH2 0x2A35 DUP4 PUSH2 0x28E7 JUMP JUMPDEST SWAP2 POP PUSH2 0x295D PUSH1 0x20 DUP5 ADD PUSH2 0x2903 JUMP JUMPDEST PUSH1 0x0 DUP1 PUSH1 0x40 DUP4 DUP6 SUB SLT ISZERO PUSH2 0x2A55 JUMPI DUP2 DUP3 REVERT JUMPDEST PUSH2 0x2A5E DUP4 PUSH2 0x28E7 JUMP JUMPDEST SWAP5 PUSH1 0x20 SWAP4 SWAP1 SWAP4 ADD CALLDATALOAD SWAP4 POP POP POP JUMP JUMPDEST PUSH1 0x0 DUP1 PUSH1 0x20 DUP4 DUP6 SUB SLT ISZERO PUSH2 0x2A7E JUMPI DUP2 DUP3 REVERT JUMPDEST DUP3 CALLDATALOAD PUSH8 0xFFFFFFFFFFFFFFFF DUP1 DUP3 GT ISZERO PUSH2 0x2A95 JUMPI DUP4 DUP5 REVERT JUMPDEST DUP2 DUP6 ADD SWAP2 POP DUP6 PUSH1 0x1F DUP4 ADD SLT PUSH2 0x2AA8 JUMPI DUP4 DUP5 REVERT JUMPDEST DUP2 CALLDATALOAD DUP2 DUP2 GT ISZERO PUSH2 0x2AB6 JUMPI DUP5 DUP6 REVERT JUMPDEST DUP7 PUSH1 0x20 DUP3 PUSH1 0x5 SHL DUP6 ADD ADD GT ISZERO PUSH2 0x2ACA JUMPI DUP5 DUP6 REVERT JUMPDEST PUSH1 0x20 SWAP3 SWAP1 SWAP3 ADD SWAP7 SWAP2 SWAP6 POP SWAP1 SWAP4 POP POP POP POP JUMP JUMPDEST PUSH1 0x0 PUSH1 0x20 DUP3 DUP5 SUB SLT ISZERO PUSH2 0x2AED JUMPI DUP1 DUP2 REVERT JUMPDEST PUSH2 0x292D DUP3 PUSH2 0x2903 JUMP JUMPDEST PUSH1 0x0 PUSH1 0x20 DUP3 DUP5 SUB SLT ISZERO PUSH2 0x2B07 JUMPI DUP1 DUP2 REVERT JUMPDEST DUP2 CALLDATALOAD PUSH2 0x292D DUP2 PUSH2 0x2F37 JUMP JUMPDEST PUSH1 0x0 PUSH1 0x20 DUP3 DUP5 SUB SLT ISZERO PUSH2 0x2B23 JUMPI DUP1 DUP2 REVERT JUMPDEST DUP2 MLOAD PUSH2 0x292D DUP2 PUSH2 0x2F37 JUMP JUMPDEST PUSH1 0x0 PUSH1 0x20 DUP3 DUP5 SUB SLT ISZERO PUSH2 0x2B3F JUMPI DUP1 DUP2 REVERT JUMPDEST DUP2 CALLDATALOAD PUSH8 0xFFFFFFFFFFFFFFFF DUP2 GT ISZERO PUSH2 0x2B55 JUMPI DUP2 DUP3 REVERT JUMPDEST DUP3 ADD PUSH1 0x1F DUP2 ADD DUP5 SGT PUSH2 0x2B65 JUMPI DUP2 DUP3 REVERT JUMPDEST PUSH2 0x1E21 DUP5 DUP3 CALLDATALOAD PUSH1 0x20 DUP5 ADD PUSH2 0x2871 JUMP JUMPDEST PUSH1 0x0 PUSH1 0x20 DUP3 DUP5 SUB SLT ISZERO PUSH2 0x2B85 JUMPI DUP1 DUP2 REVERT JUMPDEST POP CALLDATALOAD SWAP2 SWAP1 POP JUMP JUMPDEST PUSH1 0x0 DUP2 MLOAD DUP1 DUP5 MSTORE PUSH2 0x2BA4 DUP2 PUSH1 0x20 DUP7 ADD PUSH1 0x20 DUP7 ADD PUSH2 0x2E48 JUMP JUMPDEST PUSH1 0x1F ADD PUSH1 0x1F NOT AND SWAP3 SWAP1 SWAP3 ADD PUSH1 0x20 ADD SWAP3 SWAP2 POP POP JUMP JUMPDEST PUSH1 0x0 DUP5 MLOAD PUSH1 0x20 PUSH2 0x2BCB DUP3 DUP6 DUP4 DUP11 ADD PUSH2 0x2E48 JUMP JUMPDEST DUP6 MLOAD SWAP2 DUP5 ADD SWAP2 PUSH2 0x2BDE DUP2 DUP5 DUP5 DUP11 ADD PUSH2 0x2E48 JUMP JUMPDEST DUP6 SLOAD SWAP3 ADD SWAP2 DUP4 SWAP1 PUSH1 0x1 DUP2 DUP2 SHR SWAP1 DUP1 DUP4 AND DUP1 PUSH2 0x2BFA JUMPI PUSH1 0x7F DUP4 AND SWAP3 POP JUMPDEST DUP6 DUP4 LT DUP2 EQ ISZERO PUSH2 0x2C18 JUMPI PUSH4 0x4E487B71 PUSH1 0xE0 SHL DUP9 MSTORE PUSH1 0x22 PUSH1 0x4 MSTORE PUSH1 0x24 DUP9 REVERT JUMPDEST DUP1 DUP1 ISZERO PUSH2 0x2C2C JUMPI PUSH1 0x1 DUP2 EQ PUSH2 0x2C3D JUMPI PUSH2 0x2C69 JUMP JUMPDEST PUSH1 0xFF NOT DUP6 AND DUP9 MSTORE DUP4 DUP9 ADD SWAP6 POP PUSH2 0x2C69 JUMP JUMPDEST PUSH1 0x0 DUP12 DUP2 MSTORE PUSH1 0x20 SWAP1 KECCAK256 DUP10 JUMPDEST DUP6 DUP2 LT ISZERO PUSH2 0x2C61 JUMPI DUP2 SLOAD DUP11 DUP3 ADD MSTORE SWAP1 DUP5 ADD SWAP1 DUP9 ADD PUSH2 0x2C48 JUMP JUMPDEST POP POP DUP4 DUP9 ADD SWAP6 POP JUMPDEST POP SWAP4 SWAP12 SWAP11 POP POP POP POP POP POP POP POP POP POP POP JUMP JUMPDEST PUSH1 0x1 PUSH1 0x1 PUSH1 0xA0 SHL SUB DUP6 DUP2 AND DUP3 MSTORE DUP5 AND PUSH1 0x20 DUP3 ADD MSTORE PUSH1 0x40 DUP2 ADD DUP4 SWAP1 MSTORE PUSH1 0x80 PUSH1 0x60 DUP3 ADD DUP2 SWAP1 MSTORE PUSH1 0x0 SWAP1 PUSH2 0x2CAD SWAP1 DUP4 ADD DUP5 PUSH2 0x2B8C JUMP JUMPDEST SWAP7 SWAP6 POP POP POP POP POP POP JUMP JUMPDEST PUSH1 0x20 DUP1 DUP3 MSTORE DUP3 MLOAD DUP3 DUP3 ADD DUP2 SWAP1 MSTORE PUSH1 0x0 SWAP2 SWAP1 DUP5 DUP3 ADD SWAP1 PUSH1 0x40 DUP6 ADD SWAP1 DUP5 JUMPDEST DUP2 DUP2 LT ISZERO PUSH2 0x2CEF JUMPI DUP4 MLOAD DUP4 MSTORE SWAP3 DUP5 ADD SWAP3 SWAP2 DUP5 ADD SWAP2 PUSH1 0x1 ADD PUSH2 0x2CD3 JUMP JUMPDEST POP SWAP1 SWAP7 SWAP6 POP POP POP POP POP POP JUMP JUMPDEST PUSH1 0x20 DUP2 MSTORE PUSH1 0x0 PUSH2 0x292D PUSH1 0x20 DUP4 ADD DUP5 PUSH2 0x2B8C JUMP JUMPDEST PUSH1 0x20 DUP1 DUP3 MSTORE PUSH1 0x32 SWAP1 DUP3 ADD MSTORE PUSH32 0x4552433732313A207472616E7366657220746F206E6F6E204552433732315265 PUSH1 0x40 DUP3 ADD MSTORE PUSH18 0x31B2B4BB32B91034B6B83632B6B2B73A32B9 PUSH1 0x71 SHL PUSH1 0x60 DUP3 ADD MSTORE PUSH1 0x80 ADD SWAP1 JUMP JUMPDEST PUSH1 0x20 DUP1 DUP3 MSTORE DUP2 DUP2 ADD MSTORE PUSH32 0x4F776E61626C653A2063616C6C6572206973206E6F7420746865206F776E6572 PUSH1 0x40 DUP3 ADD MSTORE PUSH1 0x60 ADD SWAP1 JUMP JUMPDEST PUSH1 0x20 DUP1 DUP3 MSTORE PUSH1 0x31 SWAP1 DUP3 ADD MSTORE PUSH32 0x4552433732313A207472616E736665722063616C6C6572206973206E6F74206F PUSH1 0x40 DUP3 ADD MSTORE PUSH17 0x1DDB995C881B9BDC88185C1C1C9BDD9959 PUSH1 0x7A SHL PUSH1 0x60 DUP3 ADD MSTORE PUSH1 0x80 ADD SWAP1 JUMP JUMPDEST PUSH1 0x0 DUP3 NOT DUP3 GT ISZERO PUSH2 0x2DF9 JUMPI PUSH2 0x2DF9 PUSH2 0x2EF5 JUMP JUMPDEST POP ADD SWAP1 JUMP JUMPDEST PUSH1 0x0 DUP3 PUSH2 0x2E0D JUMPI PUSH2 0x2E0D PUSH2 0x2F0B JUMP JUMPDEST POP DIV SWAP1 JUMP JUMPDEST PUSH1 0x0 DUP2 PUSH1 0x0 NOT DIV DUP4 GT DUP3 ISZERO ISZERO AND ISZERO PUSH2 0x2E2C JUMPI PUSH2 0x2E2C PUSH2 0x2EF5 JUMP JUMPDEST POP MUL SWAP1 JUMP JUMPDEST PUSH1 0x0 DUP3 DUP3 LT ISZERO PUSH2 0x2E43 JUMPI PUSH2 0x2E43 PUSH2 0x2EF5 JUMP JUMPDEST POP SUB SWAP1 JUMP JUMPDEST PUSH1 0x0 JUMPDEST DUP4 DUP2 LT ISZERO PUSH2 0x2E63 JUMPI DUP2 DUP2 ADD MLOAD DUP4 DUP3 ADD MSTORE PUSH1 0x20 ADD PUSH2 0x2E4B JUMP JUMPDEST DUP4 DUP2 GT ISZERO PUSH2 0x1430 JUMPI POP POP PUSH1 0x0 SWAP2 ADD MSTORE JUMP JUMPDEST PUSH1 0x0 DUP2 PUSH2 0x2E83 JUMPI PUSH2 0x2E83 PUSH2 0x2EF5 JUMP JUMPDEST POP PUSH1 0x0 NOT ADD SWAP1 JUMP JUMPDEST PUSH1 0x1 DUP2 DUP2 SHR SWAP1 DUP3 AND DUP1 PUSH2 0x2E9F JUMPI PUSH1 0x7F DUP3 AND SWAP2 POP JUMPDEST PUSH1 0x20 DUP3 LT DUP2 EQ ISZERO PUSH2 0x2EC0 JUMPI PUSH4 0x4E487B71 PUSH1 0xE0 SHL PUSH1 0x0 MSTORE PUSH1 0x22 PUSH1 0x4 MSTORE PUSH1 0x24 PUSH1 0x0 REVERT JUMPDEST POP SWAP2 SWAP1 POP JUMP JUMPDEST PUSH1 0x0 PUSH1 0x0 NOT DUP3 EQ ISZERO PUSH2 0x2EDA JUMPI PUSH2 0x2EDA PUSH2 0x2EF5 JUMP JUMPDEST POP PUSH1 0x1 ADD SWAP1 JUMP JUMPDEST PUSH1 0x0 DUP3 PUSH2 0x2EF0 JUMPI PUSH2 0x2EF0 PUSH2 0x2F0B JUMP JUMPDEST POP MOD SWAP1 JUMP JUMPDEST PUSH4 0x4E487B71 PUSH1 0xE0 SHL PUSH1 0x0 MSTORE PUSH1 0x11 PUSH1 0x4 MSTORE PUSH1 0x24 PUSH1 0x0 REVERT JUMPDEST PUSH4 0x4E487B71 PUSH1 0xE0 SHL PUSH1 0x0 MSTORE PUSH1 0x12 PUSH1 0x4 MSTORE PUSH1 0x24 PUSH1 0x0 REVERT JUMPDEST PUSH4 0x4E487B71 PUSH1 0xE0 SHL PUSH1 0x0 MSTORE PUSH1 0x41 PUSH1 0x4 MSTORE PUSH1 0x24 PUSH1 0x0 REVERT JUMPDEST PUSH1 0x1 PUSH1 0x1 PUSH1 0xE0 SHL SUB NOT DUP2 AND DUP2 EQ PUSH2 0xE5F JUMPI PUSH1 0x0 DUP1 REVERT INVALID LOG2 PUSH5 0x6970667358 0x22 SLT KECCAK256 DUP1 JUMP SWAP11 BALANCE 0xB6 SLT MSTORE DUP11 PUSH4 0x22A26E0 DUP13 PUSH31 0x9E27BA433AFD33776ABFF198136B7F499264736F6C63430008040033687474 PUSH17 0x733A2F2F697066732E696F2F697066732F MLOAD PUSH14 0x6242474634735158445074584C57 JUMP PUSH3 0x6D3461 0x4D PUSH18 0x374A36487279506F43424438777A55763577 0x4E JUMP CODESIZE GASLIMIT BALANCE 0x2F BALANCE 0x2E PUSH11 0x736F6E0000000000000000 "
        },
        "gasEstimates": {
          "creation": {
            "codeDepositCost": "2432600",
            "executionCost": "infinite",
            "totalCost": "infinite"
          },
          "external": {
            "_initBaseURI()": "infinite",
            "_name()": "infinite",
            "_nftcreator()": "1104",
            "_symbol()": "infinite",
            "addressMintedBalance(address)": "1309",
            "approve(address,uint256)": "infinite",
            "balanceOf(address)": "1358",
            "baseExtension()": "infinite",
            "baseURI()": "infinite",
            "cost()": "1108",
            "deployedverified()": "1077",
            "getApproved(uint256)": "2205",
            "getIsRevealed()": "1083",
            "getMintState()": "1060",
            "getRemainCollections()": "1095",
            "getRemainNFTforUser()": "2961",
            "isApprovedForAll(address,address)": "infinite",
            "isPaused()": "1164",
            "isWhitelisted(address)": "infinite",
            "maxMintAmount()": "1129",
            "maxSupply()": "1128",
            "metaDataFolder()": "infinite",
            "mint(address,uint256)": "infinite",
            "mintState()": "1107",
            "name()": "infinite",
            "nftPerAddressLimit()": "1085",
            "notRevealedUri()": "infinite",
            "onlyWhitelisted()": "1085",
            "owner()": "1143",
            "ownerOf(uint256)": "1367",
            "pause(bool)": "22061",
            "paused()": "1088",
            "remainTokenAmount()": "1106",
            "renounceOwnership()": "23508",
            "reveal()": "21124",
            "revealed()": "1129",
            "safeTransferFrom(address,address,uint256)": "infinite",
            "safeTransferFrom(address,address,uint256,bytes)": "infinite",
            "setApprovalForAll(address,bool)": "infinite",
            "setBaseExtension(string)": "infinite",
            "setBaseURI(string)": "infinite",
            "setCost(uint256)": "21154",
            "setMintState(uint256)": "69676",
            "setNftPerAddressLimit(uint256)": "21153",
            "setOnlyWhitelisted(uint256)": "21131",
            "setRevealedURI(string)": "infinite",
            "setmaxMintAmount(uint256)": "21154",
            "supportsInterface(bytes4)": "infinite",
            "symbol()": "infinite",
            "tokenByIndex(uint256)": "2927",
            "tokenOfOwnerByIndex(address,uint256)": "2421",
            "tokenURI(uint256)": "infinite",
            "totalSupply()": "1060",
            "transferFrom(address,address,uint256)": "infinite",
            "transferOwnership(address)": "23744",
            "walletOfOwner(address)": "infinite",
            "whitelistUsers(address[])": "infinite",
            "whitelistedAddresses(uint256)": "2082",
            "withdraw()": "infinite"
          },
          "internal": {
            "_baseURI()": "infinite",
            "_setTokenURI(uint256,string memory)": "infinite"
          }
        },
        "methodIdentifiers": {
          "_initBaseURI()": "1de18b36",
          "_name()": "d28d8852",
          "_nftcreator()": "cea7cf90",
          "_symbol()": "b09f1266",
          "addressMintedBalance(address)": "18cae269",
          "approve(address,uint256)": "095ea7b3",
          "balanceOf(address)": "70a08231",
          "baseExtension()": "c6682862",
          "baseURI()": "6c0360eb",
          "cost()": "13faede6",
          "deployedverified()": "aac8520a",
          "getApproved(uint256)": "081812fc",
          "getIsRevealed()": "07c0af47",
          "getMintState()": "774a8835",
          "getRemainCollections()": "02fcb7af",
          "getRemainNFTforUser()": "743cc26a",
          "isApprovedForAll(address,address)": "e985e9c5",
          "isPaused()": "b187bd26",
          "isWhitelisted(address)": "3af32abf",
          "maxMintAmount()": "239c70ae",
          "maxSupply()": "d5abeb01",
          "metaDataFolder()": "9502743d",
          "mint(address,uint256)": "40c10f19",
          "mintState()": "c051e38a",
          "name()": "06fdde03",
          "nftPerAddressLimit()": "ba7d2c76",
          "notRevealedUri()": "081c8c44",
          "onlyWhitelisted()": "9c70b512",
          "owner()": "8da5cb5b",
          "ownerOf(uint256)": "6352211e",
          "pause(bool)": "02329a29",
          "paused()": "5c975abb",
          "remainTokenAmount()": "c7873b83",
          "renounceOwnership()": "715018a6",
          "reveal()": "a475b5dd",
          "revealed()": "51830227",
          "safeTransferFrom(address,address,uint256)": "42842e0e",
          "safeTransferFrom(address,address,uint256,bytes)": "b88d4fde",
          "setApprovalForAll(address,bool)": "a22cb465",
          "setBaseExtension(string)": "da3ef23f",
          "setBaseURI(string)": "55f804b3",
          "setCost(uint256)": "44a0d68a",
          "setMintState(uint256)": "0bb862d1",
          "setNftPerAddressLimit(uint256)": "d0eb26b0",
          "setOnlyWhitelisted(uint256)": "c5f9816b",
          "setRevealedURI(string)": "326d4388",
          "setmaxMintAmount(uint256)": "7f00c7a6",
          "supportsInterface(bytes4)": "01ffc9a7",
          "symbol()": "95d89b41",
          "tokenByIndex(uint256)": "4f6ccce7",
          "tokenOfOwnerByIndex(address,uint256)": "2f745c59",
          "tokenURI(uint256)": "c87b56dd",
          "totalSupply()": "18160ddd",
          "transferFrom(address,address,uint256)": "23b872dd",
          "transferOwnership(address)": "f2fde38b",
          "walletOfOwner(address)": "438b6300",
          "whitelistUsers(address[])": "edec5f27",
          "whitelistedAddresses(uint256)": "ba4e5c49",
          "withdraw()": "3ccfd60b"
        }
      },
      "storageLayout": {
        "storage": [
          {
            "astId": 130,
            "contract": "contracts/UndergroundNFT.sol:UndergroundNFT",
            "label": "_name",
            "offset": 0,
            "slot": "0",
            "type": "t_string_storage"
          },
          {
            "astId": 132,
            "contract": "contracts/UndergroundNFT.sol:UndergroundNFT",
            "label": "_symbol",
            "offset": 0,
            "slot": "1",
            "type": "t_string_storage"
          },
          {
            "astId": 136,
            "contract": "contracts/UndergroundNFT.sol:UndergroundNFT",
            "label": "_owners",
            "offset": 0,
            "slot": "2",
            "type": "t_mapping(t_uint256,t_address)"
          },
          {
            "astId": 140,
            "contract": "contracts/UndergroundNFT.sol:UndergroundNFT",
            "label": "_balances",
            "offset": 0,
            "slot": "3",
            "type": "t_mapping(t_address,t_uint256)"
          },
          {
            "astId": 144,
            "contract": "contracts/UndergroundNFT.sol:UndergroundNFT",
            "label": "_tokenApprovals",
            "offset": 0,
            "slot": "4",
            "type": "t_mapping(t_uint256,t_address)"
          },
          {
            "astId": 150,
            "contract": "contracts/UndergroundNFT.sol:UndergroundNFT",
            "label": "_operatorApprovals",
            "offset": 0,
            "slot": "5",
            "type": "t_mapping(t_address,t_mapping(t_address,t_bool))"
          },
          {
            "astId": 1119,
            "contract": "contracts/UndergroundNFT.sol:UndergroundNFT",
            "label": "_ownedTokens",
            "offset": 0,
            "slot": "6",
            "type": "t_mapping(t_address,t_mapping(t_uint256,t_uint256))"
          },
          {
            "astId": 1123,
            "contract": "contracts/UndergroundNFT.sol:UndergroundNFT",
            "label": "_ownedTokensIndex",
            "offset": 0,
            "slot": "7",
            "type": "t_mapping(t_uint256,t_uint256)"
          },
          {
            "astId": 1126,
            "contract": "contracts/UndergroundNFT.sol:UndergroundNFT",
            "label": "_allTokens",
            "offset": 0,
            "slot": "8",
            "type": "t_array(t_uint256)dyn_storage"
          },
          {
            "astId": 1130,
            "contract": "contracts/UndergroundNFT.sol:UndergroundNFT",
            "label": "_allTokensIndex",
            "offset": 0,
            "slot": "9",
            "type": "t_mapping(t_uint256,t_uint256)"
          },
          {
            "astId": 7,
            "contract": "contracts/UndergroundNFT.sol:UndergroundNFT",
            "label": "_owner",
            "offset": 0,
            "slot": "10",
            "type": "t_address"
          },
          {
            "astId": 2071,
            "contract": "contracts/UndergroundNFT.sol:UndergroundNFT",
            "label": "_tokenURIs",
            "offset": 0,
            "slot": "11",
            "type": "t_mapping(t_uint256,t_string_storage)"
          },
          {
            "astId": 2073,
            "contract": "contracts/UndergroundNFT.sol:UndergroundNFT",
            "label": "baseURI",
            "offset": 0,
            "slot": "12",
            "type": "t_string_storage"
          },
          {
            "astId": 2076,
            "contract": "contracts/UndergroundNFT.sol:UndergroundNFT",
            "label": "baseExtension",
            "offset": 0,
            "slot": "13",
            "type": "t_string_storage"
          },
          {
            "astId": 2079,
            "contract": "contracts/UndergroundNFT.sol:UndergroundNFT",
            "label": "metaDataFolder",
            "offset": 0,
            "slot": "14",
            "type": "t_string_storage"
          },
          {
            "astId": 2082,
            "contract": "contracts/UndergroundNFT.sol:UndergroundNFT",
            "label": "notRevealedUri",
            "offset": 0,
            "slot": "15",
            "type": "t_string_storage"
          },
          {
            "astId": 2084,
            "contract": "contracts/UndergroundNFT.sol:UndergroundNFT",
            "label": "_name",
            "offset": 0,
            "slot": "16",
            "type": "t_string_storage"
          },
          {
            "astId": 2086,
            "contract": "contracts/UndergroundNFT.sol:UndergroundNFT",
            "label": "_symbol",
            "offset": 0,
            "slot": "17",
            "type": "t_string_storage"
          },
          {
            "astId": 2088,
            "contract": "contracts/UndergroundNFT.sol:UndergroundNFT",
            "label": "_initBaseURI",
            "offset": 0,
            "slot": "18",
            "type": "t_string_storage"
          },
          {
            "astId": 2091,
            "contract": "contracts/UndergroundNFT.sol:UndergroundNFT",
            "label": "cost",
            "offset": 0,
            "slot": "19",
            "type": "t_uint256"
          },
          {
            "astId": 2094,
            "contract": "contracts/UndergroundNFT.sol:UndergroundNFT",
            "label": "maxSupply",
            "offset": 0,
            "slot": "20",
            "type": "t_uint256"
          },
          {
            "astId": 2097,
            "contract": "contracts/UndergroundNFT.sol:UndergroundNFT",
            "label": "remainTokenAmount",
            "offset": 0,
            "slot": "21",
            "type": "t_uint256"
          },
          {
            "astId": 2100,
            "contract": "contracts/UndergroundNFT.sol:UndergroundNFT",
            "label": "maxMintAmount",
            "offset": 0,
            "slot": "22",
            "type": "t_uint256"
          },
          {
            "astId": 2103,
            "contract": "contracts/UndergroundNFT.sol:UndergroundNFT",
            "label": "nftPerAddressLimit",
            "offset": 0,
            "slot": "23",
            "type": "t_uint256"
          },
          {
            "astId": 2106,
            "contract": "contracts/UndergroundNFT.sol:UndergroundNFT",
            "label": "onlyWhitelisted",
            "offset": 0,
            "slot": "24",
            "type": "t_uint256"
          },
          {
            "astId": 2109,
            "contract": "contracts/UndergroundNFT.sol:UndergroundNFT",
            "label": "revealed",
            "offset": 0,
            "slot": "25",
            "type": "t_uint256"
          },
          {
            "astId": 2112,
            "contract": "contracts/UndergroundNFT.sol:UndergroundNFT",
            "label": "paused",
            "offset": 0,
            "slot": "26",
            "type": "t_bool"
          },
          {
            "astId": 2115,
            "contract": "contracts/UndergroundNFT.sol:UndergroundNFT",
            "label": "deployedverified",
            "offset": 1,
            "slot": "26",
            "type": "t_bool"
          },
          {
            "astId": 2118,
            "contract": "contracts/UndergroundNFT.sol:UndergroundNFT",
            "label": "mintState",
            "offset": 0,
            "slot": "27",
            "type": "t_uint256"
          },
          {
            "astId": 2122,
            "contract": "contracts/UndergroundNFT.sol:UndergroundNFT",
            "label": "_nftcreator",
            "offset": 0,
            "slot": "28",
            "type": "t_address"
          },
          {
            "astId": 2125,
            "contract": "contracts/UndergroundNFT.sol:UndergroundNFT",
            "label": "whitelistedAddresses",
            "offset": 0,
            "slot": "29",
            "type": "t_array(t_address)dyn_storage"
          },
          {
            "astId": 2129,
            "contract": "contracts/UndergroundNFT.sol:UndergroundNFT",
            "label": "addressMintedBalance",
            "offset": 0,
            "slot": "30",
            "type": "t_mapping(t_address,t_uint256)"
          }
        ],
        "types": {
          "t_address": {
            "encoding": "inplace",
            "label": "address",
            "numberOfBytes": "20"
          },
          "t_array(t_address)dyn_storage": {
            "base": "t_address",
            "encoding": "dynamic_array",
            "label": "address[]",
            "numberOfBytes": "32"
          },
          "t_array(t_uint256)dyn_storage": {
            "base": "t_uint256",
            "encoding": "dynamic_array",
            "label": "uint256[]",
            "numberOfBytes": "32"
          },
          "t_bool": {
            "encoding": "inplace",
            "label": "bool",
            "numberOfBytes": "1"
          },
          "t_mapping(t_address,t_bool)": {
            "encoding": "mapping",
            "key": "t_address",
            "label": "mapping(address => bool)",
            "numberOfBytes": "32",
            "value": "t_bool"
          },
          "t_mapping(t_address,t_mapping(t_address,t_bool))": {
            "encoding": "mapping",
            "key": "t_address",
            "label": "mapping(address => mapping(address => bool))",
            "numberOfBytes": "32",
            "value": "t_mapping(t_address,t_bool)"
          },
          "t_mapping(t_address,t_mapping(t_uint256,t_uint256))": {
            "encoding": "mapping",
            "key": "t_address",
            "label": "mapping(address => mapping(uint256 => uint256))",
            "numberOfBytes": "32",
            "value": "t_mapping(t_uint256,t_uint256)"
          },
          "t_mapping(t_address,t_uint256)": {
            "encoding": "mapping",
            "key": "t_address",
            "label": "mapping(address => uint256)",
            "numberOfBytes": "32",
            "value": "t_uint256"
          },
          "t_mapping(t_uint256,t_address)": {
            "encoding": "mapping",
            "key": "t_uint256",
            "label": "mapping(uint256 => address)",
            "numberOfBytes": "32",
            "value": "t_address"
          },
          "t_mapping(t_uint256,t_string_storage)": {
            "encoding": "mapping",
            "key": "t_uint256",
            "label": "mapping(uint256 => string)",
            "numberOfBytes": "32",
            "value": "t_string_storage"
          },
          "t_mapping(t_uint256,t_uint256)": {
            "encoding": "mapping",
            "key": "t_uint256",
            "label": "mapping(uint256 => uint256)",
            "numberOfBytes": "32",
            "value": "t_uint256"
          },
          "t_string_storage": {
            "encoding": "bytes",
            "label": "string",
            "numberOfBytes": "32"
          },
          "t_uint256": {
            "encoding": "inplace",
            "label": "uint256",
            "numberOfBytes": "32"
          }
        }
      },
      "userdoc": {
        "kind": "user",
        "methods": {},
        "version": 1
      }
    }
  }
}